{
  "_format": "hh-sol-artifact-1",
  "contractName": "ModredIP",
  "sourceName": "contracts/ModredIP.sol",
  "abi": [
    {
      "inputs": [
        {
          "internalType": "address",
          "name": "_registry",
          "type": "address"
        },
        {
          "internalType": "address",
          "name": "_accountImplementation",
          "type": "address"
        },
        {
          "internalType": "uint256",
          "name": "_chainId",
          "type": "uint256"
        },
        {
          "internalType": "address",
          "name": "_platformFeeCollector",
          "type": "address"
        }
      ],
      "stateMutability": "nonpayable",
      "type": "constructor"
    },
    {
      "inputs": [
        {
          "internalType": "address",
          "name": "sender",
          "type": "address"
        },
        {
          "internalType": "uint256",
          "name": "tokenId",
          "type": "uint256"
        },
        {
          "internalType": "address",
          "name": "owner",
          "type": "address"
        }
      ],
      "name": "ERC721IncorrectOwner",
      "type": "error"
    },
    {
      "inputs": [
        {
          "internalType": "address",
          "name": "operator",
          "type": "address"
        },
        {
          "internalType": "uint256",
          "name": "tokenId",
          "type": "uint256"
        }
      ],
      "name": "ERC721InsufficientApproval",
      "type": "error"
    },
    {
      "inputs": [
        {
          "internalType": "address",
          "name": "approver",
          "type": "address"
        }
      ],
      "name": "ERC721InvalidApprover",
      "type": "error"
    },
    {
      "inputs": [
        {
          "internalType": "address",
          "name": "operator",
          "type": "address"
        }
      ],
      "name": "ERC721InvalidOperator",
      "type": "error"
    },
    {
      "inputs": [
        {
          "internalType": "address",
          "name": "owner",
          "type": "address"
        }
      ],
      "name": "ERC721InvalidOwner",
      "type": "error"
    },
    {
      "inputs": [
        {
          "internalType": "address",
          "name": "receiver",
          "type": "address"
        }
      ],
      "name": "ERC721InvalidReceiver",
      "type": "error"
    },
    {
      "inputs": [
        {
          "internalType": "address",
          "name": "sender",
          "type": "address"
        }
      ],
      "name": "ERC721InvalidSender",
      "type": "error"
    },
    {
      "inputs": [
        {
          "internalType": "uint256",
          "name": "tokenId",
          "type": "uint256"
        }
      ],
      "name": "ERC721NonexistentToken",
      "type": "error"
    },
    {
      "inputs": [
        {
          "internalType": "address",
          "name": "owner",
          "type": "address"
        }
      ],
      "name": "OwnableInvalidOwner",
      "type": "error"
    },
    {
      "inputs": [
        {
          "internalType": "address",
          "name": "account",
          "type": "address"
        }
      ],
      "name": "OwnableUnauthorizedAccount",
      "type": "error"
    },
    {
      "inputs": [],
      "name": "ReentrancyGuardReentrantCall",
      "type": "error"
    },
    {
      "anonymous": false,
      "inputs": [
        {
          "indexed": true,
          "internalType": "address",
          "name": "owner",
          "type": "address"
        },
        {
          "indexed": true,
          "internalType": "address",
          "name": "approved",
          "type": "address"
        },
        {
          "indexed": true,
          "internalType": "uint256",
          "name": "tokenId",
          "type": "uint256"
        }
      ],
      "name": "Approval",
      "type": "event"
    },
    {
      "anonymous": false,
      "inputs": [
        {
          "indexed": true,
          "internalType": "address",
          "name": "owner",
          "type": "address"
        },
        {
          "indexed": true,
          "internalType": "address",
          "name": "operator",
          "type": "address"
        },
        {
          "indexed": false,
          "internalType": "bool",
          "name": "approved",
          "type": "bool"
        }
      ],
      "name": "ApprovalForAll",
      "type": "event"
    },
    {
      "anonymous": false,
      "inputs": [
        {
          "indexed": true,
          "internalType": "uint256",
          "name": "arbitrationId",
          "type": "uint256"
        },
        {
          "indexed": true,
          "internalType": "uint256",
          "name": "disputeId",
          "type": "uint256"
        },
        {
          "indexed": false,
          "internalType": "bool",
          "name": "upheld",
          "type": "bool"
        }
      ],
      "name": "ArbitrationResolved",
      "type": "event"
    },
    {
      "anonymous": false,
      "inputs": [
        {
          "indexed": true,
          "internalType": "uint256",
          "name": "arbitrationId",
          "type": "uint256"
        },
        {
          "indexed": true,
          "internalType": "address",
          "name": "arbitrator",
          "type": "address"
        },
        {
          "indexed": false,
          "internalType": "bool",
          "name": "decision",
          "type": "bool"
        }
      ],
      "name": "ArbitrationVote",
      "type": "event"
    },
    {
      "anonymous": false,
      "inputs": [
        {
          "indexed": true,
          "internalType": "address",
          "name": "arbitrator",
          "type": "address"
        },
        {
          "indexed": false,
          "internalType": "uint256",
          "name": "stake",
          "type": "uint256"
        }
      ],
      "name": "ArbitratorRegistered",
      "type": "event"
    },
    {
      "anonymous": false,
      "inputs": [
        {
          "indexed": true,
          "internalType": "address",
          "name": "arbitrator",
          "type": "address"
        },
        {
          "indexed": false,
          "internalType": "uint256",
          "name": "stake",
          "type": "uint256"
        }
      ],
      "name": "ArbitratorUnstaked",
      "type": "event"
    },
    {
      "anonymous": false,
      "inputs": [
        {
          "indexed": true,
          "internalType": "uint256",
          "name": "arbitrationId",
          "type": "uint256"
        },
        {
          "indexed": true,
          "internalType": "uint256",
          "name": "disputeId",
          "type": "uint256"
        },
        {
          "indexed": false,
          "internalType": "address[]",
          "name": "arbitrators",
          "type": "address[]"
        }
      ],
      "name": "ArbitratorsAssigned",
      "type": "event"
    },
    {
      "anonymous": false,
      "inputs": [
        {
          "indexed": true,
          "internalType": "uint256",
          "name": "disputeId",
          "type": "uint256"
        },
        {
          "indexed": true,
          "internalType": "uint256",
          "name": "tokenId",
          "type": "uint256"
        },
        {
          "indexed": true,
          "internalType": "address",
          "name": "disputer",
          "type": "address"
        }
      ],
      "name": "DisputeRaised",
      "type": "event"
    },
    {
      "anonymous": false,
      "inputs": [
        {
          "indexed": true,
          "internalType": "uint256",
          "name": "disputeId",
          "type": "uint256"
        },
        {
          "indexed": true,
          "internalType": "uint256",
          "name": "tokenId",
          "type": "uint256"
        },
        {
          "indexed": false,
          "internalType": "bool",
          "name": "resolved",
          "type": "bool"
        }
      ],
      "name": "DisputeResolved",
      "type": "event"
    },
    {
      "anonymous": false,
      "inputs": [
        {
          "indexed": true,
          "internalType": "uint256",
          "name": "tokenId",
          "type": "uint256"
        },
        {
          "indexed": true,
          "internalType": "address",
          "name": "owner",
          "type": "address"
        },
        {
          "indexed": false,
          "internalType": "string",
          "name": "ipHash",
          "type": "string"
        }
      ],
      "name": "IPRegistered",
      "type": "event"
    },
    {
      "anonymous": false,
      "inputs": [
        {
          "indexed": true,
          "internalType": "uint256",
          "name": "tokenId",
          "type": "uint256"
        },
        {
          "indexed": true,
          "internalType": "address",
          "name": "from",
          "type": "address"
        },
        {
          "indexed": true,
          "internalType": "address",
          "name": "to",
          "type": "address"
        }
      ],
      "name": "IPTransferred",
      "type": "event"
    },
    {
      "anonymous": false,
      "inputs": [
        {
          "indexed": true,
          "internalType": "uint256",
          "name": "licenseId",
          "type": "uint256"
        },
        {
          "indexed": true,
          "internalType": "uint256",
          "name": "tokenId",
          "type": "uint256"
        },
        {
          "indexed": true,
          "internalType": "address",
          "name": "licensee",
          "type": "address"
        }
      ],
      "name": "LicenseMinted",
      "type": "event"
    },
    {
      "anonymous": false,
      "inputs": [
        {
          "indexed": true,
          "internalType": "address",
          "name": "previousOwner",
          "type": "address"
        },
        {
          "indexed": true,
          "internalType": "address",
          "name": "newOwner",
          "type": "address"
        }
      ],
      "name": "OwnershipTransferred",
      "type": "event"
    },
    {
      "anonymous": false,
      "inputs": [
        {
          "indexed": true,
          "internalType": "uint256",
          "name": "tokenId",
          "type": "uint256"
        },
        {
          "indexed": false,
          "internalType": "uint256",
          "name": "amount",
          "type": "uint256"
        }
      ],
      "name": "RevenuePaid",
      "type": "event"
    },
    {
      "anonymous": false,
      "inputs": [
        {
          "indexed": true,
          "internalType": "uint256",
          "name": "tokenId",
          "type": "uint256"
        },
        {
          "indexed": true,
          "internalType": "address",
          "name": "claimant",
          "type": "address"
        },
        {
          "indexed": false,
          "internalType": "uint256",
          "name": "amount",
          "type": "uint256"
        }
      ],
      "name": "RoyaltyClaimed",
      "type": "event"
    },
    {
      "anonymous": false,
      "inputs": [
        {
          "indexed": true,
          "internalType": "address",
          "name": "from",
          "type": "address"
        },
        {
          "indexed": true,
          "internalType": "address",
          "name": "to",
          "type": "address"
        },
        {
          "indexed": true,
          "internalType": "uint256",
          "name": "tokenId",
          "type": "uint256"
        }
      ],
      "name": "Transfer",
      "type": "event"
    },
    {
      "inputs": [],
      "name": "ARBITRATION_TIMEOUT",
      "outputs": [
        {
          "internalType": "uint256",
          "name": "",
          "type": "uint256"
        }
      ],
      "stateMutability": "view",
      "type": "function"
    },
    {
      "inputs": [],
      "name": "DISPUTE_TIMEOUT",
      "outputs": [
        {
          "internalType": "uint256",
          "name": "",
          "type": "uint256"
        }
      ],
      "stateMutability": "view",
      "type": "function"
    },
    {
      "inputs": [],
      "name": "MINIMUM_LICENSE_DURATION",
      "outputs": [
        {
          "internalType": "uint256",
          "name": "",
          "type": "uint256"
        }
      ],
      "stateMutability": "view",
      "type": "function"
    },
    {
      "inputs": [],
      "name": "MIN_ARBITRATOR_STAKE",
      "outputs": [
        {
          "internalType": "uint256",
          "name": "",
          "type": "uint256"
        }
      ],
      "stateMutability": "view",
      "type": "function"
    },
    {
      "inputs": [],
      "name": "MIN_UPHOLD_VOTES",
      "outputs": [
        {
          "internalType": "uint256",
          "name": "",
          "type": "uint256"
        }
      ],
      "stateMutability": "view",
      "type": "function"
    },
    {
      "inputs": [],
      "name": "REQUIRED_ARBITRATORS",
      "outputs": [
        {
          "internalType": "uint256",
          "name": "",
          "type": "uint256"
        }
      ],
      "stateMutability": "view",
      "type": "function"
    },
    {
      "inputs": [],
      "name": "ROYALTY_DECIMALS",
      "outputs": [
        {
          "internalType": "uint256",
          "name": "",
          "type": "uint256"
        }
      ],
      "stateMutability": "view",
      "type": "function"
    },
    {
      "inputs": [],
      "name": "UPHOLD_WAIT_PERIOD",
      "outputs": [
        {
          "internalType": "uint256",
          "name": "",
          "type": "uint256"
        }
      ],
      "stateMutability": "view",
      "type": "function"
    },
    {
      "inputs": [],
      "name": "accountImplementation",
      "outputs": [
        {
          "internalType": "address",
          "name": "",
          "type": "address"
        }
      ],
      "stateMutability": "view",
      "type": "function"
    },
    {
      "inputs": [
        {
          "internalType": "address",
          "name": "arbitrator",
          "type": "address"
        }
      ],
      "name": "activateArbitrator",
      "outputs": [],
      "stateMutability": "nonpayable",
      "type": "function"
    },
    {
      "inputs": [
        {
          "internalType": "address",
          "name": "to",
          "type": "address"
        },
        {
          "internalType": "uint256",
          "name": "tokenId",
          "type": "uint256"
        }
      ],
      "name": "approve",
      "outputs": [],
      "stateMutability": "nonpayable",
      "type": "function"
    },
    {
      "inputs": [
        {
          "internalType": "uint256",
          "name": "",
          "type": "uint256"
        }
      ],
      "name": "arbitrations",
      "outputs": [
        {
          "internalType": "uint256",
          "name": "arbitrationId",
          "type": "uint256"
        },
        {
          "internalType": "uint256",
          "name": "disputeId",
          "type": "uint256"
        },
        {
          "internalType": "uint256",
          "name": "votesFor",
          "type": "uint256"
        },
        {
          "internalType": "uint256",
          "name": "votesAgainst",
          "type": "uint256"
        },
        {
          "internalType": "uint256",
          "name": "deadline",
          "type": "uint256"
        },
        {
          "internalType": "bool",
          "name": "isResolved",
          "type": "bool"
        },
        {
          "internalType": "string",
          "name": "resolution",
          "type": "string"
        },
        {
          "internalType": "uint256",
          "name": "threeUpholdVotesTimestamp",
          "type": "uint256"
        }
      ],
      "stateMutability": "view",
      "type": "function"
    },
    {
      "inputs": [
        {
          "internalType": "uint256",
          "name": "",
          "type": "uint256"
        }
      ],
      "name": "arbitratorList",
      "outputs": [
        {
          "internalType": "address",
          "name": "",
          "type": "address"
        }
      ],
      "stateMutability": "view",
      "type": "function"
    },
    {
      "inputs": [
        {
          "internalType": "address",
          "name": "",
          "type": "address"
        }
      ],
      "name": "arbitrators",
      "outputs": [
        {
          "internalType": "address",
          "name": "arbitrator",
          "type": "address"
        },
        {
          "internalType": "uint256",
          "name": "stake",
          "type": "uint256"
        },
        {
          "internalType": "uint256",
          "name": "reputation",
          "type": "uint256"
        },
        {
          "internalType": "uint256",
          "name": "totalCases",
          "type": "uint256"
        },
        {
          "internalType": "uint256",
          "name": "successfulCases",
          "type": "uint256"
        },
        {
          "internalType": "bool",
          "name": "isActive",
          "type": "bool"
        },
        {
          "internalType": "uint256",
          "name": "registrationDate",
          "type": "uint256"
        }
      ],
      "stateMutability": "view",
      "type": "function"
    },
    {
      "inputs": [
        {
          "internalType": "uint256",
          "name": "disputeId",
          "type": "uint256"
        },
        {
          "internalType": "address[]",
          "name": "selectedArbitrators",
          "type": "address[]"
        }
      ],
      "name": "assignArbitrators",
      "outputs": [],
      "stateMutability": "nonpayable",
      "type": "function"
    },
    {
      "inputs": [
        {
          "internalType": "address",
          "name": "owner",
          "type": "address"
        }
      ],
      "name": "balanceOf",
      "outputs": [
        {
          "internalType": "uint256",
          "name": "",
          "type": "uint256"
        }
      ],
      "stateMutability": "view",
      "type": "function"
    },
    {
      "inputs": [],
      "name": "chainId",
      "outputs": [
        {
          "internalType": "uint256",
          "name": "",
          "type": "uint256"
        }
      ],
      "stateMutability": "view",
      "type": "function"
    },
    {
      "inputs": [
        {
          "internalType": "uint256",
          "name": "disputeId",
          "type": "uint256"
        }
      ],
      "name": "checkAndResolveArbitration",
      "outputs": [],
      "stateMutability": "nonpayable",
      "type": "function"
    },
    {
      "inputs": [
        {
          "internalType": "uint256",
          "name": "tokenId",
          "type": "uint256"
        }
      ],
      "name": "claimRoyalties",
      "outputs": [],
      "stateMutability": "nonpayable",
      "type": "function"
    },
    {
      "inputs": [],
      "name": "creProxy",
      "outputs": [
        {
          "internalType": "address",
          "name": "",
          "type": "address"
        }
      ],
      "stateMutability": "view",
      "type": "function"
    },
    {
      "inputs": [
        {
          "internalType": "address",
          "name": "arbitrator",
          "type": "address"
        }
      ],
      "name": "deactivateArbitrator",
      "outputs": [],
      "stateMutability": "nonpayable",
      "type": "function"
    },
    {
      "inputs": [
        {
          "internalType": "uint256",
          "name": "",
          "type": "uint256"
        }
      ],
      "name": "disputes",
      "outputs": [
        {
          "internalType": "uint256",
          "name": "disputeId",
          "type": "uint256"
        },
        {
          "internalType": "uint256",
          "name": "tokenId",
          "type": "uint256"
        },
        {
          "internalType": "address",
          "name": "disputer",
          "type": "address"
        },
        {
          "internalType": "string",
          "name": "reason",
          "type": "string"
        },
        {
          "internalType": "uint256",
          "name": "timestamp",
          "type": "uint256"
        },
        {
          "internalType": "bool",
          "name": "isResolved",
          "type": "bool"
        },
        {
          "internalType": "uint256",
          "name": "arbitrationId",
          "type": "uint256"
        }
      ],
      "stateMutability": "view",
      "type": "function"
    },
    {
      "inputs": [],
      "name": "getActiveArbitratorsCount",
      "outputs": [
        {
          "internalType": "uint256",
          "name": "",
          "type": "uint256"
        }
      ],
      "stateMutability": "view",
      "type": "function"
    },
    {
      "inputs": [],
      "name": "getAllArbitrators",
      "outputs": [
        {
          "internalType": "address[]",
          "name": "",
          "type": "address[]"
        }
      ],
      "stateMutability": "view",
      "type": "function"
    },
    {
      "inputs": [
        {
          "internalType": "uint256",
          "name": "tokenId",
          "type": "uint256"
        }
      ],
      "name": "getApproved",
      "outputs": [
        {
          "internalType": "address",
          "name": "",
          "type": "address"
        }
      ],
      "stateMutability": "view",
      "type": "function"
    },
    {
      "inputs": [
        {
          "internalType": "uint256",
          "name": "arbitrationId",
          "type": "uint256"
        }
      ],
      "name": "getArbitration",
      "outputs": [
        {
          "internalType": "uint256",
          "name": "arbitrationId_",
          "type": "uint256"
        },
        {
          "internalType": "uint256",
          "name": "disputeId_",
          "type": "uint256"
        },
        {
          "internalType": "address[]",
          "name": "arbitrators_",
          "type": "address[]"
        },
        {
          "internalType": "uint256",
          "name": "votesFor_",
          "type": "uint256"
        },
        {
          "internalType": "uint256",
          "name": "votesAgainst_",
          "type": "uint256"
        },
        {
          "internalType": "uint256",
          "name": "deadline_",
          "type": "uint256"
        },
        {
          "internalType": "bool",
          "name": "isResolved_",
          "type": "bool"
        },
        {
          "internalType": "string",
          "name": "resolution_",
          "type": "string"
        },
        {
          "internalType": "uint256",
          "name": "threeUpholdVotesTimestamp_",
          "type": "uint256"
        }
      ],
      "stateMutability": "view",
      "type": "function"
    },
    {
      "inputs": [
        {
          "internalType": "address",
          "name": "arbitrator",
          "type": "address"
        }
      ],
      "name": "getArbitrator",
      "outputs": [
        {
          "internalType": "address",
          "name": "arbitrator_",
          "type": "address"
        },
        {
          "internalType": "uint256",
          "name": "stake_",
          "type": "uint256"
        },
        {
          "internalType": "uint256",
          "name": "reputation_",
          "type": "uint256"
        },
        {
          "internalType": "uint256",
          "name": "totalCases_",
          "type": "uint256"
        },
        {
          "internalType": "uint256",
          "name": "successfulCases_",
          "type": "uint256"
        },
        {
          "internalType": "bool",
          "name": "isActive_",
          "type": "bool"
        },
        {
          "internalType": "uint256",
          "name": "registrationDate_",
          "type": "uint256"
        }
      ],
      "stateMutability": "view",
      "type": "function"
    },
    {
      "inputs": [
        {
          "internalType": "address",
          "name": "arbitrator",
          "type": "address"
        }
      ],
      "name": "getArbitratorActiveDisputes",
      "outputs": [
        {
          "internalType": "uint256",
          "name": "",
          "type": "uint256"
        }
      ],
      "stateMutability": "view",
      "type": "function"
    },
    {
      "inputs": [
        {
          "internalType": "uint256",
          "name": "arbitrationId",
          "type": "uint256"
        },
        {
          "internalType": "address",
          "name": "arbitrator",
          "type": "address"
        }
      ],
      "name": "getArbitratorDecision",
      "outputs": [
        {
          "internalType": "bool",
          "name": "",
          "type": "bool"
        }
      ],
      "stateMutability": "view",
      "type": "function"
    },
    {
      "inputs": [
        {
          "internalType": "uint256",
          "name": "disputeId",
          "type": "uint256"
        }
      ],
      "name": "getDispute",
      "outputs": [
        {
          "internalType": "uint256",
          "name": "disputeId_",
          "type": "uint256"
        },
        {
          "internalType": "uint256",
          "name": "tokenId_",
          "type": "uint256"
        },
        {
          "internalType": "address",
          "name": "disputer_",
          "type": "address"
        },
        {
          "internalType": "string",
          "name": "reason_",
          "type": "string"
        },
        {
          "internalType": "uint256",
          "name": "timestamp_",
          "type": "uint256"
        },
        {
          "internalType": "bool",
          "name": "isResolved_",
          "type": "bool"
        },
        {
          "internalType": "uint256",
          "name": "arbitrationId_",
          "type": "uint256"
        }
      ],
      "stateMutability": "view",
      "type": "function"
    },
    {
      "inputs": [
        {
          "internalType": "uint256",
          "name": "tokenId",
          "type": "uint256"
        }
      ],
      "name": "getIPAccount",
      "outputs": [
        {
          "internalType": "address",
          "name": "",
          "type": "address"
        }
      ],
      "stateMutability": "view",
      "type": "function"
    },
    {
      "inputs": [
        {
          "internalType": "uint256",
          "name": "tokenId",
          "type": "uint256"
        }
      ],
      "name": "getIPAsset",
      "outputs": [
        {
          "internalType": "address",
          "name": "owner_",
          "type": "address"
        },
        {
          "internalType": "string",
          "name": "ipHash_",
          "type": "string"
        },
        {
          "internalType": "string",
          "name": "metadata_",
          "type": "string"
        },
        {
          "internalType": "bool",
          "name": "isEncrypted_",
          "type": "bool"
        },
        {
          "internalType": "bool",
          "name": "isDisputed_",
          "type": "bool"
        },
        {
          "internalType": "uint256",
          "name": "registrationDate_",
          "type": "uint256"
        },
        {
          "internalType": "uint256",
          "name": "totalRevenue_",
          "type": "uint256"
        },
        {
          "internalType": "uint256",
          "name": "royaltyTokens_",
          "type": "uint256"
        }
      ],
      "stateMutability": "view",
      "type": "function"
    },
    {
      "inputs": [
        {
          "internalType": "uint256",
          "name": "licenseId",
          "type": "uint256"
        }
      ],
      "name": "getLicense",
      "outputs": [
        {
          "internalType": "address",
          "name": "licensee_",
          "type": "address"
        },
        {
          "internalType": "uint256",
          "name": "tokenId_",
          "type": "uint256"
        },
        {
          "internalType": "uint256",
          "name": "royaltyPercentage_",
          "type": "uint256"
        },
        {
          "internalType": "uint256",
          "name": "duration_",
          "type": "uint256"
        },
        {
          "internalType": "uint256",
          "name": "startDate_",
          "type": "uint256"
        },
        {
          "internalType": "bool",
          "name": "isActive_",
          "type": "bool"
        },
        {
          "internalType": "bool",
          "name": "commercialUse_",
          "type": "bool"
        },
        {
          "internalType": "string",
          "name": "terms_",
          "type": "string"
        }
      ],
      "stateMutability": "view",
      "type": "function"
    },
    {
      "inputs": [
        {
          "internalType": "uint256",
          "name": "tokenId",
          "type": "uint256"
        },
        {
          "internalType": "address",
          "name": "claimant",
          "type": "address"
        }
      ],
      "name": "getRoyaltyInfo",
      "outputs": [
        {
          "internalType": "uint256",
          "name": "totalRevenue_",
          "type": "uint256"
        },
        {
          "internalType": "uint256",
          "name": "claimableAmount_",
          "type": "uint256"
        },
        {
          "internalType": "uint256",
          "name": "lastClaimed_",
          "type": "uint256"
        },
        {
          "internalType": "uint256",
          "name": "totalAccumulated_",
          "type": "uint256"
        }
      ],
      "stateMutability": "view",
      "type": "function"
    },
    {
      "inputs": [
        {
          "internalType": "uint256",
          "name": "tokenId",
          "type": "uint256"
        }
      ],
      "name": "getTokenDisputes",
      "outputs": [
        {
          "internalType": "uint256[]",
          "name": "",
          "type": "uint256[]"
        }
      ],
      "stateMutability": "view",
      "type": "function"
    },
    {
      "inputs": [
        {
          "internalType": "string",
          "name": "ipHash",
          "type": "string"
        }
      ],
      "name": "getTokenIdByIPHash",
      "outputs": [
        {
          "internalType": "uint256",
          "name": "",
          "type": "uint256"
        }
      ],
      "stateMutability": "view",
      "type": "function"
    },
    {
      "inputs": [
        {
          "internalType": "uint256",
          "name": "tokenId",
          "type": "uint256"
        }
      ],
      "name": "hasActiveDisputes",
      "outputs": [
        {
          "internalType": "bool",
          "name": "",
          "type": "bool"
        }
      ],
      "stateMutability": "view",
      "type": "function"
    },
    {
      "inputs": [
        {
          "internalType": "uint256",
          "name": "arbitrationId",
          "type": "uint256"
        },
        {
          "internalType": "address",
          "name": "arbitrator",
          "type": "address"
        }
      ],
      "name": "hasArbitratorVoted",
      "outputs": [
        {
          "internalType": "bool",
          "name": "",
          "type": "bool"
        }
      ],
      "stateMutability": "view",
      "type": "function"
    },
    {
      "inputs": [
        {
          "internalType": "uint256",
          "name": "",
          "type": "uint256"
        }
      ],
      "name": "ipAssets",
      "outputs": [
        {
          "internalType": "uint256",
          "name": "tokenId",
          "type": "uint256"
        },
        {
          "internalType": "address",
          "name": "owner",
          "type": "address"
        },
        {
          "internalType": "string",
          "name": "ipHash",
          "type": "string"
        },
        {
          "internalType": "string",
          "name": "metadata",
          "type": "string"
        },
        {
          "internalType": "bool",
          "name": "isEncrypted",
          "type": "bool"
        },
        {
          "internalType": "bool",
          "name": "isDisputed",
          "type": "bool"
        },
        {
          "internalType": "uint256",
          "name": "registrationDate",
          "type": "uint256"
        },
        {
          "internalType": "uint256",
          "name": "totalRevenue",
          "type": "uint256"
        },
        {
          "internalType": "uint256",
          "name": "royaltyTokens",
          "type": "uint256"
        }
      ],
      "stateMutability": "view",
      "type": "function"
    },
    {
      "inputs": [
        {
          "internalType": "bytes32",
          "name": "",
          "type": "bytes32"
        }
      ],
      "name": "ipHashToTokenId",
      "outputs": [
        {
          "internalType": "uint256",
          "name": "",
          "type": "uint256"
        }
      ],
      "stateMutability": "view",
      "type": "function"
    },
    {
      "inputs": [
        {
          "internalType": "address",
          "name": "owner",
          "type": "address"
        },
        {
          "internalType": "address",
          "name": "operator",
          "type": "address"
        }
      ],
      "name": "isApprovedForAll",
      "outputs": [
        {
          "internalType": "bool",
          "name": "",
          "type": "bool"
        }
      ],
      "stateMutability": "view",
      "type": "function"
    },
    {
      "inputs": [
        {
          "internalType": "uint256",
          "name": "",
          "type": "uint256"
        }
      ],
      "name": "licenses",
      "outputs": [
        {
          "internalType": "uint256",
          "name": "licenseId",
          "type": "uint256"
        },
        {
          "internalType": "address",
          "name": "licensee",
          "type": "address"
        },
        {
          "internalType": "uint256",
          "name": "tokenId",
          "type": "uint256"
        },
        {
          "internalType": "uint256",
          "name": "royaltyPercentage",
          "type": "uint256"
        },
        {
          "internalType": "uint256",
          "name": "duration",
          "type": "uint256"
        },
        {
          "internalType": "uint256",
          "name": "startDate",
          "type": "uint256"
        },
        {
          "internalType": "bool",
          "name": "isActive",
          "type": "bool"
        },
        {
          "internalType": "bool",
          "name": "commercialUse",
          "type": "bool"
        },
        {
          "internalType": "string",
          "name": "terms",
          "type": "string"
        }
      ],
      "stateMutability": "view",
      "type": "function"
    },
    {
      "inputs": [
        {
          "internalType": "uint256",
          "name": "tokenId",
          "type": "uint256"
        },
        {
          "internalType": "uint256",
          "name": "royaltyPercentage",
          "type": "uint256"
        },
        {
          "internalType": "uint256",
          "name": "duration",
          "type": "uint256"
        },
        {
          "internalType": "bool",
          "name": "commercialUse",
          "type": "bool"
        },
        {
          "internalType": "string",
          "name": "terms",
          "type": "string"
        }
      ],
      "name": "mintLicense",
      "outputs": [
        {
          "internalType": "uint256",
          "name": "",
          "type": "uint256"
        }
      ],
      "stateMutability": "nonpayable",
      "type": "function"
    },
    {
      "inputs": [
        {
          "internalType": "uint256",
          "name": "tokenId",
          "type": "uint256"
        },
        {
          "internalType": "address",
          "name": "licensee",
          "type": "address"
        },
        {
          "internalType": "uint256",
          "name": "royaltyPercentage",
          "type": "uint256"
        },
        {
          "internalType": "uint256",
          "name": "duration",
          "type": "uint256"
        },
        {
          "internalType": "bool",
          "name": "commercialUse",
          "type": "bool"
        },
        {
          "internalType": "string",
          "name": "terms",
          "type": "string"
        }
      ],
      "name": "mintLicenseByProxy",
      "outputs": [
        {
          "internalType": "uint256",
          "name": "",
          "type": "uint256"
        }
      ],
      "stateMutability": "nonpayable",
      "type": "function"
    },
    {
      "inputs": [],
      "name": "name",
      "outputs": [
        {
          "internalType": "string",
          "name": "",
          "type": "string"
        }
      ],
      "stateMutability": "view",
      "type": "function"
    },
    {
      "inputs": [],
      "name": "nextArbitrationId",
      "outputs": [
        {
          "internalType": "uint256",
          "name": "",
          "type": "uint256"
        }
      ],
      "stateMutability": "view",
      "type": "function"
    },
    {
      "inputs": [],
      "name": "nextDisputeId",
      "outputs": [
        {
          "internalType": "uint256",
          "name": "",
          "type": "uint256"
        }
      ],
      "stateMutability": "view",
      "type": "function"
    },
    {
      "inputs": [],
      "name": "nextLicenseId",
      "outputs": [
        {
          "internalType": "uint256",
          "name": "",
          "type": "uint256"
        }
      ],
      "stateMutability": "view",
      "type": "function"
    },
    {
      "inputs": [],
      "name": "nextTokenId",
      "outputs": [
        {
          "internalType": "uint256",
          "name": "",
          "type": "uint256"
        }
      ],
      "stateMutability": "view",
      "type": "function"
    },
    {
      "inputs": [],
      "name": "owner",
      "outputs": [
        {
          "internalType": "address",
          "name": "",
          "type": "address"
        }
      ],
      "stateMutability": "view",
      "type": "function"
    },
    {
      "inputs": [
        {
          "internalType": "uint256",
          "name": "tokenId",
          "type": "uint256"
        }
      ],
      "name": "ownerOf",
      "outputs": [
        {
          "internalType": "address",
          "name": "",
          "type": "address"
        }
      ],
      "stateMutability": "view",
      "type": "function"
    },
    {
      "inputs": [
        {
          "internalType": "uint256",
          "name": "tokenId",
          "type": "uint256"
        }
      ],
      "name": "payRevenue",
      "outputs": [],
      "stateMutability": "payable",
      "type": "function"
    },
    {
      "inputs": [],
      "name": "platformFeeCollector",
      "outputs": [
        {
          "internalType": "address",
          "name": "",
          "type": "address"
        }
      ],
      "stateMutability": "view",
      "type": "function"
    },
    {
      "inputs": [],
      "name": "platformFeePercentage",
      "outputs": [
        {
          "internalType": "uint256",
          "name": "",
          "type": "uint256"
        }
      ],
      "stateMutability": "view",
      "type": "function"
    },
    {
      "inputs": [
        {
          "internalType": "uint256",
          "name": "tokenId",
          "type": "uint256"
        },
        {
          "internalType": "string",
          "name": "reason",
          "type": "string"
        }
      ],
      "name": "raiseDispute",
      "outputs": [],
      "stateMutability": "nonpayable",
      "type": "function"
    },
    {
      "inputs": [],
      "name": "registerArbitrator",
      "outputs": [],
      "stateMutability": "payable",
      "type": "function"
    },
    {
      "inputs": [
        {
          "internalType": "string",
          "name": "ipHash",
          "type": "string"
        },
        {
          "internalType": "string",
          "name": "metadata",
          "type": "string"
        },
        {
          "internalType": "bool",
          "name": "isEncrypted",
          "type": "bool"
        }
      ],
      "name": "registerIP",
      "outputs": [
        {
          "internalType": "uint256",
          "name": "",
          "type": "uint256"
        }
      ],
      "stateMutability": "nonpayable",
      "type": "function"
    },
    {
      "inputs": [
        {
          "internalType": "address",
          "name": "beneficiary",
          "type": "address"
        },
        {
          "internalType": "string",
          "name": "ipHash",
          "type": "string"
        },
        {
          "internalType": "string",
          "name": "metadata",
          "type": "string"
        },
        {
          "internalType": "bool",
          "name": "isEncrypted",
          "type": "bool"
        }
      ],
      "name": "registerIPFor",
      "outputs": [
        {
          "internalType": "uint256",
          "name": "",
          "type": "uint256"
        }
      ],
      "stateMutability": "nonpayable",
      "type": "function"
    },
    {
      "inputs": [],
      "name": "registry",
      "outputs": [
        {
          "internalType": "contract ERC6551Registry",
          "name": "",
          "type": "address"
        }
      ],
      "stateMutability": "view",
      "type": "function"
    },
    {
      "inputs": [],
      "name": "renounceOwnership",
      "outputs": [],
      "stateMutability": "nonpayable",
      "type": "function"
    },
    {
      "inputs": [
        {
          "internalType": "uint256",
          "name": "disputeId",
          "type": "uint256"
        }
      ],
      "name": "resolveArbitrationAfterDeadline",
      "outputs": [],
      "stateMutability": "nonpayable",
      "type": "function"
    },
    {
      "inputs": [
        {
          "internalType": "uint256",
          "name": "disputeId",
          "type": "uint256"
        },
        {
          "internalType": "bool",
          "name": "resolved",
          "type": "bool"
        }
      ],
      "name": "resolveDispute",
      "outputs": [],
      "stateMutability": "nonpayable",
      "type": "function"
    },
    {
      "inputs": [
        {
          "internalType": "uint256",
          "name": "disputeId",
          "type": "uint256"
        }
      ],
      "name": "resolveDisputeWithoutArbitrators",
      "outputs": [],
      "stateMutability": "nonpayable",
      "type": "function"
    },
    {
      "inputs": [
        {
          "internalType": "uint256",
          "name": "",
          "type": "uint256"
        }
      ],
      "name": "royaltyVaults",
      "outputs": [
        {
          "internalType": "uint256",
          "name": "totalAccumulated",
          "type": "uint256"
        },
        {
          "internalType": "uint256",
          "name": "lastClaimed",
          "type": "uint256"
        }
      ],
      "stateMutability": "view",
      "type": "function"
    },
    {
      "inputs": [
        {
          "internalType": "address",
          "name": "from",
          "type": "address"
        },
        {
          "internalType": "address",
          "name": "to",
          "type": "address"
        },
        {
          "internalType": "uint256",
          "name": "tokenId",
          "type": "uint256"
        }
      ],
      "name": "safeTransferFrom",
      "outputs": [],
      "stateMutability": "nonpayable",
      "type": "function"
    },
    {
      "inputs": [
        {
          "internalType": "address",
          "name": "from",
          "type": "address"
        },
        {
          "internalType": "address",
          "name": "to",
          "type": "address"
        },
        {
          "internalType": "uint256",
          "name": "tokenId",
          "type": "uint256"
        },
        {
          "internalType": "bytes",
          "name": "data",
          "type": "bytes"
        }
      ],
      "name": "safeTransferFrom",
      "outputs": [],
      "stateMutability": "nonpayable",
      "type": "function"
    },
    {
      "inputs": [
        {
          "internalType": "address",
          "name": "operator",
          "type": "address"
        },
        {
          "internalType": "bool",
          "name": "approved",
          "type": "bool"
        }
      ],
      "name": "setApprovalForAll",
      "outputs": [],
      "stateMutability": "nonpayable",
      "type": "function"
    },
    {
      "inputs": [
        {
          "internalType": "address",
          "name": "_creProxy",
          "type": "address"
        }
      ],
      "name": "setCREProxy",
      "outputs": [],
      "stateMutability": "nonpayable",
      "type": "function"
    },
    {
      "inputs": [
        {
          "internalType": "address",
          "name": "_platformFeeCollector",
          "type": "address"
        }
      ],
      "name": "setPlatformFeeCollector",
      "outputs": [],
      "stateMutability": "nonpayable",
      "type": "function"
    },
    {
      "inputs": [
        {
          "internalType": "uint256",
          "name": "_platformFeePercentage",
          "type": "uint256"
        }
      ],
      "name": "setPlatformFeePercentage",
      "outputs": [],
      "stateMutability": "nonpayable",
      "type": "function"
    },
    {
      "inputs": [
        {
          "internalType": "uint256",
          "name": "disputeId",
          "type": "uint256"
        },
        {
          "internalType": "bool",
          "name": "decision",
          "type": "bool"
        },
        {
          "internalType": "string",
          "name": "resolution",
          "type": "string"
        }
      ],
      "name": "submitArbitrationDecision",
      "outputs": [],
      "stateMutability": "nonpayable",
      "type": "function"
    },
    {
      "inputs": [
        {
          "internalType": "bytes4",
          "name": "interfaceId",
          "type": "bytes4"
        }
      ],
      "name": "supportsInterface",
      "outputs": [
        {
          "internalType": "bool",
          "name": "",
          "type": "bool"
        }
      ],
      "stateMutability": "view",
      "type": "function"
    },
    {
      "inputs": [],
      "name": "symbol",
      "outputs": [
        {
          "internalType": "string",
          "name": "",
          "type": "string"
        }
      ],
      "stateMutability": "view",
      "type": "function"
    },
    {
      "inputs": [
        {
          "internalType": "uint256",
          "name": "",
          "type": "uint256"
        },
        {
          "internalType": "uint256",
          "name": "",
          "type": "uint256"
        }
      ],
      "name": "tokenDisputes",
      "outputs": [
        {
          "internalType": "uint256",
          "name": "",
          "type": "uint256"
        }
      ],
      "stateMutability": "view",
      "type": "function"
    },
    {
      "inputs": [
        {
          "internalType": "uint256",
          "name": "",
          "type": "uint256"
        },
        {
          "internalType": "uint256",
          "name": "",
          "type": "uint256"
        }
      ],
      "name": "tokenLicenses",
      "outputs": [
        {
          "internalType": "uint256",
          "name": "",
          "type": "uint256"
        }
      ],
      "stateMutability": "view",
      "type": "function"
    },
    {
      "inputs": [
        {
          "internalType": "uint256",
          "name": "tokenId",
          "type": "uint256"
        }
      ],
      "name": "tokenURI",
      "outputs": [
        {
          "internalType": "string",
          "name": "",
          "type": "string"
        }
      ],
      "stateMutability": "view",
      "type": "function"
    },
    {
      "inputs": [
        {
          "internalType": "address",
          "name": "from",
          "type": "address"
        },
        {
          "internalType": "address",
          "name": "to",
          "type": "address"
        },
        {
          "internalType": "uint256",
          "name": "tokenId",
          "type": "uint256"
        }
      ],
      "name": "transferFrom",
      "outputs": [],
      "stateMutability": "nonpayable",
      "type": "function"
    },
    {
      "inputs": [
        {
          "internalType": "uint256",
          "name": "tokenId",
          "type": "uint256"
        },
        {
          "internalType": "address",
          "name": "to",
          "type": "address"
        }
      ],
      "name": "transferIP",
      "outputs": [],
      "stateMutability": "nonpayable",
      "type": "function"
    },
    {
      "inputs": [
        {
          "internalType": "address",
          "name": "newOwner",
          "type": "address"
        }
      ],
      "name": "transferOwnership",
      "outputs": [],
      "stateMutability": "nonpayable",
      "type": "function"
    },
    {
      "inputs": [],
      "name": "unstake",
      "outputs": [],
      "stateMutability": "nonpayable",
      "type": "function"
    }
  ],
  "bytecode": "0x608060405260fa600c556001600e556001600f55600160105560016011553480156200002a57600080fd5b5060405162006398380380620063988339810160408190526200004d91620001a6565b336040518060400160405280600881526020016704d6f6472656449560c41b8152506040518060400160405280600381526020016208aa8960eb1b81525081600090816200009c9190620002a1565b506001620000ab8282620002a1565b5050506001600160a01b038116620000dd57604051631e4fbdf760e01b81526000600482015260240160405180910390fd5b620000e88162000137565b506001600755600880546001600160a01b039586166001600160a01b0319918216179091556009805494861694821694909417909355600a91909155600b80549190931691161790556200036d565b600680546001600160a01b038381166001600160a01b0319831681179093556040519116919082907f8be0079c531659141344cd1fd0a4f28419497f9722a3daafe3b4186f6b6457e090600090a35050565b80516001600160a01b0381168114620001a157600080fd5b919050565b60008060008060808587031215620001bd57600080fd5b620001c88562000189565b9350620001d86020860162000189565b925060408501519150620001ef6060860162000189565b905092959194509250565b634e487b7160e01b600052604160045260246000fd5b600181811c908216806200022557607f821691505b6020821081036200024657634e487b7160e01b600052602260045260246000fd5b50919050565b601f8211156200029c576000816000526020600020601f850160051c81016020861015620002775750805b601f850160051c820191505b81811015620002985782815560010162000283565b5050505b505050565b81516001600160401b03811115620002bd57620002bd620001fa565b620002d581620002ce845462000210565b846200024c565b602080601f8311600181146200030d5760008415620002f45750858301515b600019600386901b1c1916600185901b17855562000298565b600085815260208120601f198616915b828110156200033e578886015182559484019460019091019084016200031d565b50858210156200035d5787850151600019600388901b60f8161c191681555b5050505050600190811b01905550565b61601b806200037d6000396000f3fe6080604052600436106104735760003560e01c80637b1039991161024a578063bb9007c111610139578063cf7f8f79116100b6578063f2d5c14c1161007a578063f2d5c14c14610f40578063f2f9371114610f60578063f2fde38b14610f95578063f338456e14610fb5578063fa99e0e214610fe957600080fd5b8063cf7f8f7914610e3f578063dfc90cf214610ec0578063e3a96cbd14610ee0578063e73fcbd914610f00578063e985e9c514610f2057600080fd5b8063c31a5e72116100fd578063c31a5e7214610d87578063c87b56dd14610dd1578063c9e519e814610df1578063ca77df2c14610e13578063cdd78cfc14610e2957600080fd5b8063bb9007c114610cd9578063bdc51fbb14610cf9578063c0a0dc8714610d11578063c203a57814610d3e578063c26c445314610d5357600080fd5b8063a23ae203116101c7578063b2dd12121161018b578063b2dd121214610c25578063b315f72814610c59578063b3c424ae14610c79578063b88d4fde14610c99578063b917246614610cb957600080fd5b8063a23ae20314610b83578063a8597e1314610ba3578063a9b1b6cc14610839578063aece6c2d14610bc3578063b1cefb4b14610bf057600080fd5b806386ad310f1161020e57806386ad310f14610afa5780638da5cb5b14610b1a57806395d89b4114610b385780639a8a059214610b4d578063a22cb46514610b6357600080fd5b80637b10399914610a305780637f39170a14610a505780638333903e14610a7057806383ced0b014610a90578063853a65f914610ada57600080fd5b806334b25ee211610366578063564a565d116102e3578063703f08a6116102a7578063703f08a6146109a557806370a08231146109c5578063715018a6146109e55780637566d4e8146109fa57806375794a3c14610a1a57600080fd5b8063564a565d146108e95780635aef573c1461091c5780636352211e1461093c578063669c659e1461080b5780636f3636651461095c57600080fd5b8063486265c61161032a578063486265c61461082257806348abc14d14610839578063492f471c1461084e5780634eece7c71461086457806351d0ea371461088457600080fd5b806334b25ee2146106ff578063388b0c021461071f5780633a2ed6cd146107cb57806342842e0e146107eb5780634539e2c31461080b57600080fd5b80631211f5b2116103f45780632d932598116103b85780632d932598146106625780632def66201461068257806332258409146106975780633248cdf8146106b757806333790845146106ca57600080fd5b80631211f5b2146105c257806316a0425e146105e2578063194e5b5c1461060257806323b872dd1461062257806324c37d351461064257600080fd5b80630ccb8eda1161043b5780630ccb8eda1461054e5780630d4a51e91461056e5780630db39934146105845780630f0355561461059a57806311464fbe146105a257600080fd5b806301ffc9a71461047857806306fdde03146104ad578063081812fc146104cf578063095ea7b31461050757806309c71c0314610529575b600080fd5b34801561048457600080fd5b50610498610493366004615161565b611009565b60405190151581526020015b60405180910390f35b3480156104b957600080fd5b506104c261105b565b6040516104a491906151d5565b3480156104db57600080fd5b506104ef6104ea3660046151e8565b6110ed565b6040516001600160a01b0390911681526020016104a4565b34801561051357600080fd5b50610527610522366004615216565b611116565b005b34801561053557600080fd5b5061054062093a8081565b6040519081526020016104a4565b34801561055a57600080fd5b50610527610569366004615242565b611125565b34801561057a57600080fd5b5061054060115481565b34801561059057600080fd5b5061054060105481565b610527611194565b3480156105ae57600080fd5b506009546104ef906001600160a01b031681565b3480156105ce57600080fd5b506105406105dd36600461531e565b6113ce565b3480156105ee57600080fd5b506104986105fd3660046151e8565b611411565b34801561060e57600080fd5b5061054061061d366004615353565b6114ce565b34801561062e57600080fd5b5061052761063d366004615375565b6114ff565b34801561064e57600080fd5b5061052761065d366004615242565b61155a565b34801561066e57600080fd5b5061052761067d3660046153b6565b6115bd565b34801561068e57600080fd5b506105276116ac565b3480156106a357600080fd5b506105276106b23660046151e8565b6118cf565b6105276106c53660046151e8565b611b78565b3480156106d657600080fd5b506106ea6106e53660046151e8565b611f34565b6040516104a4999897969594939291906153e6565b34801561070b57600080fd5b5061052761071a36600461545c565b61201a565b34801561072b57600080fd5b5061078a61073a366004615242565b6001600160a01b0390811660009081526019602052604090208054600182015460028301546003840154600485015460058601546006909601549490961696929591949093919260ff9091169190565b604080516001600160a01b03909816885260208801969096529486019390935260608501919091526080840152151560a083015260c082015260e0016104a4565b3480156107d757600080fd5b506105276107e63660046151e8565b612126565b3480156107f757600080fd5b50610527610806366004615375565b61230a565b34801561081757600080fd5b506105406201518081565b34801561082e57600080fd5b5061054062278d0081565b34801561084557600080fd5b50610540600381565b34801561085a57600080fd5b50610540600f5481565b34801561087057600080fd5b5061052761087f3660046151e8565b612325565b34801561089057600080fd5b5061078a61089f366004615242565b60196020526000908152604090208054600182015460028301546003840154600485015460058601546006909601546001600160a01b0390951695939492939192909160ff169087565b3480156108f557600080fd5b506109096109043660046151e8565b612422565b6040516104a49796959493929190615488565b34801561092857600080fd5b506105276109373660046154d4565b6124f7565b34801561094857600080fd5b506104ef6109573660046151e8565b6126d6565b34801561096857600080fd5b506109906109773660046151e8565b6016602052600090815260409020805460019091015482565b604080519283526020830191909152016104a4565b3480156109b157600080fd5b506105276109c036600461551b565b6126e1565b3480156109d157600080fd5b506105406109e0366004615242565b61298b565b3480156109f157600080fd5b506105276129d3565b348015610a0657600080fd5b50610540610a153660046155d9565b6129e5565b348015610a2657600080fd5b50610540600e5481565b348015610a3c57600080fd5b506008546104ef906001600160a01b031681565b348015610a5c57600080fd5b50610540610a6b366004615242565b612c82565b348015610a7c57600080fd5b50610527610a8b3660046151e8565b612d20565b348015610a9c57600080fd5b50610498610aab3660046153b6565b6000828152601a602090815260408083206001600160a01b038516845260040190915290205460ff1692915050565b348015610ae657600080fd5b50600b546104ef906001600160a01b031681565b348015610b0657600080fd5b50610527610b153660046151e8565b612d6e565b348015610b2657600080fd5b506006546001600160a01b03166104ef565b348015610b4457600080fd5b506104c2612ecc565b348015610b5957600080fd5b50610540600a5481565b348015610b6f57600080fd5b50610527610b7e366004615660565b612edb565b348015610b8f57600080fd5b506104ef610b9e3660046151e8565b612ee6565b348015610baf57600080fd5b50610540610bbe36600461568c565b612f10565b348015610bcf57600080fd5b50610540610bde3660046151e8565b60126020526000908152604090205481565b348015610bfc57600080fd5b50610c10610c0b3660046151e8565b613251565b6040516104a4999897969594939291906156f7565b348015610c3157600080fd5b50610c45610c403660046151e8565b6133b9565b6040516104a4989796959493929190615764565b348015610c6557600080fd5b50600d546104ef906001600160a01b031681565b348015610c8557600080fd5b50610527610c943660046157bd565b6134c5565b348015610ca557600080fd5b50610527610cb4366004615814565b613863565b348015610cc557600080fd5b50610540610cd4366004615894565b6138c0565b348015610ce557600080fd5b50610540610cf4366004615908565b613aaf565b348015610d0557600080fd5b50610540633b9aca0081565b348015610d1d57600080fd5b50610d31610d2c3660046151e8565b613e43565b6040516104a49190615984565b348015610d4a57600080fd5b50610540613ea5565b348015610d5f57600080fd5b50610d73610d6e3660046151e8565b613f17565b6040516104a49897969594939291906159c8565b348015610d9357600080fd5b50610498610da23660046153b6565b6000828152601a602090815260408083206001600160a01b038516845260030190915290205460ff1692915050565b348015610ddd57600080fd5b506104c2610dec3660046151e8565b613fe8565b348015610dfd57600080fd5b50610e066140b2565b6040516104a49190615a5d565b348015610e1f57600080fd5b5061054061271081565b348015610e3557600080fd5b50610540600c5481565b348015610e4b57600080fd5b50610ea0610e5a3660046153b6565b6000918252601360209081526040808420601683528185206006909101546001600160a01b03949094168552600281019092529092205460018301549254919390929190565b6040805194855260208501939093529183015260608201526080016104a4565b348015610ecc57600080fd5b50610527610edb366004615242565b614113565b348015610eec57600080fd5b50610909610efb3660046151e8565b61413d565b348015610f0c57600080fd5b50610540610f1b366004615353565b614238565b348015610f2c57600080fd5b50610498610f3b366004615a70565b614254565b348015610f4c57600080fd5b506104ef610f5b3660046151e8565b614282565b348015610f6c57600080fd5b50610f80610f7b3660046151e8565b614316565b6040516104a499989796959493929190615a9e565b348015610fa157600080fd5b50610527610fb0366004615242565b61447b565b348015610fc157600080fd5b50610fd5610fd03660046151e8565b6144b6565b6040516104a4989796959493929190615b04565b348015610ff557600080fd5b50610527611004366004615242565b61464b565b60006001600160e01b031982166380ac58cd60e01b148061103a57506001600160e01b03198216635b5e139f60e01b145b8061105557506301ffc9a760e01b6001600160e01b03198316145b92915050565b60606000805461106a90615b69565b80601f016020809104026020016040519081016040528092919081815260200182805461109690615b69565b80156110e35780601f106110b8576101008083540402835291602001916110e3565b820191906000526020600020905b8154815290600101906020018083116110c657829003601f168201915b5050505050905090565b60006110f882614675565b506000828152600460205260409020546001600160a01b0316611055565b6111218282336146ad565b5050565b61112d6146ba565b6001600160a01b038181166000908152601960205260409020541661116d5760405162461bcd60e51b815260040161116490615b9d565b60405180910390fd5b6001600160a01b03166000908152601960205260409020600501805460ff19166001179055565b633b9aca003410156111dd5760405162461bcd60e51b8152602060048201526012602482015271496e73756666696369656e74207374616b6560701b6044820152606401611164565b336000908152601960205260409020546001600160a01b0316158061121557503360009081526019602052604090206005015460ff16155b6112565760405162461bcd60e51b8152602060048201526012602482015271105b1c9958591e481c9959da5cdd195c995960721b6044820152606401611164565b336000908152601960205260409020546001600160a01b031661135257601b805460018082019092557f3ad8aa4f87544323a9d1e5dd902f40c356527a7955687113db5f9a85ad579dc1018054336001600160a01b031991821681179092556040805160e0810182528381523460208083019182526000838501818152606085018281526080860183815260a087018b81524260c089019081529a8552601990955296909220945185549097166001600160a01b039097169690961784559151968301969096559251600282015591516003830155516004820155915160058301805460ff191691151591909117905551600690910155611397565b3360009081526019602052604081206001018054349290611374908490615bea565b9091555050336000908152601960205260409020600501805460ff191660011790555b60405134815233907f8964d147132eb34950084efda449f1e07fcaa2b53f7c3ffa82b5ddb1f08404469060200160405180910390a2565b600060126000836040516020016113e59190615bfd565b604051602081830303815290604052805190602001208152602001908152602001600020549050919050565b60008181526018602090815260408083208054825181850281018501909352808352849383018282801561146457602002820191906000526020600020905b815481526020019060010190808311611450575b5050505050905060005b81518110156114c4576015600083838151811061148d5761148d615c19565b60209081029190910181015182528101919091526040016000206005015460ff166114bc575060019392505050565b60010161146e565b5060009392505050565b601760205281600052604060002081815481106114ea57600080fd5b90600052602060002001600091509150505481565b6001600160a01b0383161580159061151f57506001600160a01b03821615155b1561154a5761152d81611411565b1561154a5760405162461bcd60e51b815260040161116490615c2f565b6115558383836146e7565b505050565b6115626146ba565b6001600160a01b03818116600090815260196020526040902054166115995760405162461bcd60e51b815260040161116490615b9d565b6001600160a01b03166000908152601960205260409020600501805460ff19169055565b336115c7836126d6565b6001600160a01b03161461160d5760405162461bcd60e51b815260206004820152600d60248201526c2737ba103a34329037bbb732b960991b6044820152606401611164565b61161682611411565b156116335760405162461bcd60e51b815260040161116490615c2f565b600061163e836126d6565b905061164b81838561476c565b60008381526013602052604080822060010180546001600160a01b0319166001600160a01b03868116918217909255915191929084169186917f1757856899d0b1fbb2e309cb05cda166887b13df401307904c3042b4b759dc3991a4505050565b6116b461481c565b336000908152601960205260409020546001600160a01b03166117195760405162461bcd60e51b815260206004820152601c60248201527f4e6f7420726567697374657265642061732061726269747261746f72000000006044820152606401611164565b3360009081526019602052604090206001015461176f5760405162461bcd60e51b81526020600482015260146024820152734e6f207374616b6520746f20776974686472617760601b6044820152606401611164565b61177833612c82565b156117de5760405162461bcd60e51b815260206004820152603060248201527f43616e6e6f7420756e7374616b65207768696c652061737369676e656420746f60448201526f2061637469766520646973707574657360801b6064820152608401611164565b33600081815260196020526040808220600181018054908490556005909101805460ff19169055905190929083908381818185875af1925050503d8060008114611844576040519150601f19603f3d011682016040523d82523d6000602084013e611849565b606091505b505090508061188c5760405162461bcd60e51b815260206004820152600f60248201526e151c985b9cd9995c8819985a5b1959608a1b6044820152606401611164565b60405182815233907f4b4803db5a516ab7afb1cf06da5811f83efd88abd80e1ad1167c6998033728719060200160405180910390a250506118cd6001600755565b565b600081815260156020526040812080549091036118fe5760405162461bcd60e51b815260040161116490615c76565b600581015460ff16156119235760405162461bcd60e51b815260040161116490615ca6565b60028101546001600160a01b0316331461198b5760405162461bcd60e51b815260206004820152602360248201527f4f6e6c7920746865206469737075746520617574686f722063616e207265736f6044820152626c766560e81b6064820152608401611164565b60068101546000818152601a602052604090206002810154156119f05760405162461bcd60e51b815260206004820152601c60248201527f41726269747261746f727320616c72656164792061737369676e6564000000006044820152606401611164565b80600701544211611a395760405162461bcd60e51b8152602060048201526013602482015272111958591b1a5b99481b9bdd081c185cdcd959606a1b6044820152606401611164565b600881015460ff1615611a5e5760405162461bcd60e51b815260040161116490615cdd565b60088101805460ff191660011790556040805160608101909152603f808252615f6160208301396009820190611a949082615d5c565b5060058301805460ff19166001908117909155830154611ab390611411565b611adb5760018301546000908152601360205260409020600401805461ff0019169055611aff565b60018301546000908152601360205260409020600401805461ff0019166101001790555b60405160008152849083907f4cbb1b383796e513e3c0915f41a9d0198320a473adb9a55d1c3b5f2941ca4d759060200160405180910390a360018301546040516000815285907fc84a77110774854ab237145b108e924962dbaa5191275eb044a6cb09621c4a949060200160405180910390a350505050565b611b8061481c565b6000611b8b82614846565b6001600160a01b031603611bb15760405162461bcd60e51b815260040161116490615e1c565b60003411611c015760405162461bcd60e51b815260206004820152601e60248201527f5061796d656e74206d7573742062652067726561746572207468616e203000006044820152606401611164565b600081815260136020526040812090611c19836126d6565b905034826006016000828254611c2f9190615bea565b9091555050600c5460009061271090611c489034615e4a565b611c529190615e61565b90506000611c608234615e83565b9050600082118015611c7c5750600b546001600160a01b031615155b15611d2657600b546040516000916001600160a01b03169084908381818185875af1925050503d8060008114611cce576040519150601f19603f3d011682016040523d82523d6000602084013e611cd3565b606091505b5050905080611d245760405162461bcd60e51b815260206004820152601c60248201527f506c6174666f726d20666565207472616e73666572206661696c6564000000006044820152606401611164565b505b600085815260176020908152604080832080548251818502810185019093528083528493830182828015611d7957602002820191906000526020600020905b815481526020019060010190808311611d65575b50505060008a81526016602052604081209394509150505b8251811015611e8757600060146000858481518110611db257611db2615c19565b6020026020010151815260200190815260200160002090508060060160009054906101000a900460ff168015611dfa575080600401548160050154611df79190615bea565b42105b15611e7e576000612710826003015488611e149190615e4a565b611e1e9190615e61565b60018301546001600160a01b03166000908152600286016020526040812080549293508392909190611e51908490615bea565b9091555050835481908590600090611e6a908490615bea565b90915550611e7a90508187615bea565b9550505b50600101611d91565b506000611e948486615e83565b90508015611ee5576001600160a01b038716600090815260028301602052604081208054839290611ec6908490615bea565b9091555050815481908390600090611edf908490615bea565b90915550505b887f7f4ebe5ca42340d9b48ed614d06fdfcdef473881621be7ff1ef4692c8d879e4334604051611f1791815260200190565b60405180910390a25050505050505050611f316001600755565b50565b6014602052600090815260409020805460018201546002830154600384015460048501546005860154600687015460078801805497986001600160a01b0390971697959694959394929360ff8084169461010090940416929190611f9790615b69565b80601f0160208091040260200160405190810160405280929190818152602001828054611fc390615b69565b80156120105780601f10611fe557610100808354040283529160200191612010565b820191906000526020600020905b815481529060010190602001808311611ff357829003601f168201915b5050505050905089565b6120226146ba565b600082815260156020526040812080549091036120515760405162461bcd60e51b815260040161116490615c76565b600581015460ff16156120765760405162461bcd60e51b815260040161116490615ca6565b60058101805460ff1916831515179055600181015461209490611411565b6120bc5760018101546000908152601360205260409020600401805461ff00191690556120e0565b60018101546000908152601360205260409020600401805461ff0019166101001790555b8060010154837fc84a77110774854ab237145b108e924962dbaa5191275eb044a6cb09621c4a9484604051612119911515815260200190565b60405180910390a3505050565b61212e6146ba565b6000818152601560205260408120805490910361215d5760405162461bcd60e51b815260040161116490615c76565b600581015460ff16156121825760405162461bcd60e51b815260040161116490615ca6565b60068101546000818152601a60205260409020600881015460ff16156121ba5760405162461bcd60e51b815260040161116490615cdd565b60038160050154101561220f5760405162461bcd60e51b815260206004820181905260248201527f4d696e696d756d207570686f6c6420766f746573206e6f7420726561636865646044820152606401611164565b600081600a01541161226f5760405162461bcd60e51b8152602060048201526024808201527f5468726565207570686f6c6420766f7465732074696d657374616d70206e6f74604482015263081cd95d60e21b6064820152608401611164565b6201518081600a01546122829190615bea565b4210156122db5760405162461bcd60e51b815260206004820152602160248201527f323420686f75722077616974696e6720706572696f64206e6f742070617373656044820152601960fa1b6064820152608401611164565b6000604051806080016040528060468152602001615fa0604691399050612303838683614861565b5050505050565b61155583838360405180602001604052806000815250613863565b600081815260156020526040812080549091036123545760405162461bcd60e51b815260040161116490615c76565b600581015460ff16156123795760405162461bcd60e51b815260040161116490615ca6565b60068101546000818152601a60205260409020600781015442116123d55760405162461bcd60e51b8152602060048201526013602482015272111958591b1a5b99481b9bdd081c185cdcd959606a1b6044820152606401611164565b600881015460ff16156123fa5760405162461bcd60e51b815260040161116490615cdd565b60006040518060600160405280603a8152602001615f27603a91399050612303838683614861565b6015602052600090815260409020805460018201546002830154600384018054939492936001600160a01b03909216929161245c90615b69565b80601f016020809104026020016040519081016040528092919081815260200182805461248890615b69565b80156124d55780601f106124aa576101008083540402835291602001916124d5565b820191906000526020600020905b8154815290600101906020018083116124b857829003601f168201915b50505050600483015460058401546006909401549293909260ff909116915087565b600061250283614846565b6001600160a01b0316036125285760405162461bcd60e51b815260040161116490615e1c565b601080546000918261253983615e96565b9091555060118054919250600091908261255283615e96565b909155506040805160e08101825284815260208082018881523383850190815260608401898152426080860152600060a0860181905260c08601889052898152601590945294909220835181559051600182015590516002820180546001600160a01b0319166001600160a01b0390921691909117905591519293509160038201906125de9082615d5c565b506080820151600482015560a082015160058201805460ff191691151591909117905560c090910151600690910155600084815260186020908152604080832080546001818101835591855283852001869055848452601a90925290912082815590810183905561265262093a8042615bea565b600782015560088101805460ff19169055600085815260136020526040902060040154610100900460ff166126a0576000858152601360205260409020600401805461ff0019166101001790555b6040513390869085907f83201991c75b30e493678d0543bdbd02d6a194a5a0dda31490a5fe09e9f0a22090600090a45050505050565b600061105582614675565b600082815260156020526040812080549091036127105760405162461bcd60e51b815260040161116490615c76565b600581015460ff16156127355760405162461bcd60e51b815260040161116490615ca6565b6000825111801561274857506003825111155b6127945760405162461bcd60e51b815260206004820152601d60248201527f496e76616c6964206e756d626572206f662061726269747261746f72730000006044820152606401611164565b60068101546000818152601a602052604090206002810154156127f95760405162461bcd60e51b815260206004820152601c60248201527f41726269747261746f727320616c72656164792061737369676e6564000000006044820152606401611164565b60005b845181101561294a576019600086838151811061281b5761281b615c19565b6020908102919091018101516001600160a01b031682528101919091526040016000206005015460ff166128895760405162461bcd60e51b815260206004820152601560248201527441726269747261746f72206e6f742061637469766560581b6044820152606401611164565b60006001600160a01b0316601960008784815181106128aa576128aa615c19565b6020908102919091018101516001600160a01b039081168352908201929092526040016000205416036128ef5760405162461bcd60e51b815260040161116490615b9d565b8160020185828151811061290557612905615c19565b60209081029190910181015182546001808201855560009485529290932090920180546001600160a01b0319166001600160a01b0390931692909217909155016127fc565b5084827f60b461c7775ceaa53a16286bd8c1f9e8c8bc1578ab53b3035ad58e5def5a42878660405161297c9190615a5d565b60405180910390a35050505050565b60006001600160a01b0382166129b7576040516322718ad960e21b815260006004820152602401611164565b506001600160a01b031660009081526003602052604090205490565b6129db6146ba565b6118cd6000614afc565b600d546000906001600160a01b031615801590612a0c5750600d546001600160a01b031633145b612a495760405162461bcd60e51b815260206004820152600e60248201526d4f6e6c79204352452070726f787960901b6044820152606401611164565b6001600160a01b038516612a925760405162461bcd60e51b815260206004820152601060248201526f5a65726f2062656e656669636961727960801b6044820152606401611164565b600084604051602001612aa59190615bfd565b60408051601f1981840301815291815281516020928301206000818152601290935291205490915015612b125760405162461bcd60e51b8152602060048201526015602482015274125408185b1c9958591e481c9959da5cdd195c9959605a1b6044820152606401611164565b600e805460009182612b2383615e96565b9091555060008381526012602090815260408083208490558051610120810182528481526001600160a01b038c81168285019081528284018d8152606084018d90528b1515608085015260a084018790524260c085015260e084018790526127106101008501528787526013909552929094208151815591516001830180546001600160a01b0319169190951617909355905192935090916002820190612bca9082615d5c565b5060608201516003820190612bdf9082615d5c565b50608082015160048201805460a085015161ffff1990911692151561ff00191692909217610100921515830217905560c0830151600583015560e0830151600683015590910151600790910155612c368782614b4e565b866001600160a01b0316817f725520a098b8482798bc7dbba42fdafe9a372e065d49b40f4f87da50cf476d2588604051612c7091906151d5565b60405180910390a39695505050505050565b60008060015b601154811015612d19576000818152601a60205260409020600881015460ff16612d105760005b6002820154811015612d0e57856001600160a01b0316826002018281548110612cda57612cda615c19565b6000918252602090912001546001600160a01b031603612d065783612cfe81615e96565b945050612d0e565b600101612caf565b505b50600101612c88565b5092915050565b612d286146ba565b612710811115612d695760405162461bcd60e51b815260206004820152600c60248201526b08ccaca40e8dede40d0d2ced60a31b6044820152606401611164565b600c55565b612d7661481c565b6000818152601660209081526040808320338452600281019092529091205480612dda5760405162461bcd60e51b81526020600482015260156024820152744e6f20726f79616c7469657320746f20636c61696d60581b6044820152606401611164565b3360008181526002840160205260408082208290554260018601555190919083908381818185875af1925050503d8060008114612e33576040519150601f19603f3d011682016040523d82523d6000602084013e612e38565b606091505b5050905080612e895760405162461bcd60e51b815260206004820152601760248201527f526f79616c7479207472616e73666572206661696c65640000000000000000006044820152606401611164565b604051828152339085907e5ff6321fbc462bad97d71220393208f0286cd4482b70c04f592526a75656d39060200160405180910390a3505050611f316001600755565b60606001805461106a90615b69565b611121338383614bb3565b601b8181548110612ef657600080fd5b6000918252602090912001546001600160a01b0316905081565b600080612f1c87614846565b6001600160a01b031603612f425760405162461bcd60e51b815260040161116490615e1c565b33612f4c876126d6565b6001600160a01b031614612fa25760405162461bcd60e51b815260206004820152601f60248201527f4f6e6c79204950206f776e65722063616e206d696e74206c6963656e736573006044820152606401611164565b62015180841015612fea5760405162461bcd60e51b8152602060048201526012602482015271111d5c985d1a5bdb881d1bdbc81cda1bdc9d60721b6044820152606401611164565b60008681526013602052604090206007015485111561304b5760405162461bcd60e51b815260206004820152601a60248201527f496e76616c696420726f79616c74792070657263656e746167650000000000006044820152606401611164565b6130586002612710615e61565b8511156130a35760405162461bcd60e51b8152602060048201526019602482015278526f79616c74792063616e6e6f74206578636565642035302560381b6044820152606401611164565b600f8054600091826130b483615e96565b919050559050604051806101200160405280828152602001336001600160a01b03168152602001888152602001878152602001868152602001428152602001600115158152602001851515815260200184815250601460008381526020019081526020016000206000820151816000015560208201518160010160006101000a8154816001600160a01b0302191690836001600160a01b0316021790555060408201518160020155606082015181600301556080820151816004015560a0820151816005015560c08201518160060160006101000a81548160ff02191690831515021790555060e08201518160060160016101000a81548160ff0219169083151502179055506101008201518160070190816131d09190615d5c565b5050506000878152601760209081526040808320805460018101825590845282842001849055898352601390915281206007018054889290613213908490615e83565b90915550506040513390889083907ff3e06c5a2377f321895ab1f570aa3551aadcbe18d7fc962f31b9693634df630890600090a49695505050505050565b60136020526000908152604090208054600182015460028301805492936001600160a01b039092169261328390615b69565b80601f01602080910402602001604051908101604052809291908181526020018280546132af90615b69565b80156132fc5780601f106132d1576101008083540402835291602001916132fc565b820191906000526020600020905b8154815290600101906020018083116132df57829003601f168201915b50505050509080600301805461331190615b69565b80601f016020809104026020016040519081016040528092919081815260200182805461333d90615b69565b801561338a5780601f1061335f5761010080835404028352916020019161338a565b820191906000526020600020905b81548152906001019060200180831161336d57829003601f168201915b50505050600483015460058401546006850154600790950154939460ff80841695610100909404169350909189565b600081815260146020526040812060018101546002820154600383015460048401546005850154600686015460078701805489988998899889988998899860609895976001600160a01b0390951696939592949193909260ff808216936101009092041691819061342990615b69565b80601f016020809104026020016040519081016040528092919081815260200182805461345590615b69565b80156134a25780601f10613477576101008083540402835291602001916134a2565b820191906000526020600020905b81548152906001019060200180831161348557829003601f168201915b505050505090509850985098509850985098509850985050919395975091939597565b600083815260156020526040812080549091036134f45760405162461bcd60e51b815260040161116490615c76565b600581015460ff16156135195760405162461bcd60e51b815260040161116490615ca6565b60068101546000818152601a6020526040812080549091036135755760405162461bcd60e51b8152602060048201526015602482015274105c989a5d1c985d1a5bdb881b9bdd08199bdd5b99605a1b6044820152606401611164565b80600701544211156135c95760405162461bcd60e51b815260206004820152601b60248201527f4172626974726174696f6e20646561646c696e652070617373656400000000006044820152606401611164565b600881015460ff16156135ee5760405162461bcd60e51b815260040161116490615cdd565b6000805b600283015481101561364857336001600160a01b031683600201828154811061361d5761361d615c19565b6000918252602090912001546001600160a01b0316036136405760019150613648565b6001016135f2565b50806136965760405162461bcd60e51b815260206004820152601a60248201527f4e6f7420616e2061737369676e65642061726269747261746f720000000000006044820152606401611164565b33600090815260038301602052604090205460ff16156136e85760405162461bcd60e51b815260206004820152600d60248201526c105b1c9958591e481d9bdd1959609a1b6044820152606401611164565b3360009081526003830160209081526040808320805460ff1990811660011790915560048601909252909120805488158015919093161790556137415760058201805490600061373783615e96565b9190505550613759565b60068201805490600061375383615e96565b91905055505b33600090815260196020526040812060030180549161377783615e96565b90915550506040518615158152339084907ff5483bd93ab7b7fb4e9b1565a5f04c64f423fe2f7df393453cc06a7337d250d69060200160405180910390a38580156137c6575060038260050154145b80156137d45750600a820154155b156137e05742600a8301555b6000826006015483600501546137f69190615bea565b6002840154909150811080159060009061381257506001613846565b600283106138465784600601548560050154111561383257506001613846565b846005015485600601541115613846575060015b801561385757613857868b8a614861565b50505050505050505050565b6001600160a01b0384161580159061388357506001600160a01b03831615155b156138ae5761389182611411565b156138ae5760405162461bcd60e51b815260040161116490615c2f565b6138ba84848484614c4a565b50505050565b600080846040516020016138d49190615bfd565b60408051601f19818403018152918152815160209283012060008181526012909352912054909150156139415760405162461bcd60e51b8152602060048201526015602482015274125408185b1c9958591e481c9959da5cdd195c9959605a1b6044820152606401611164565b600e80546000918261395283615e96565b909155506000838152601260209081526040808320849055805161012081018252848152338184019081528183018c8152606083018c90528a1515608084015260a083018690524260c084015260e083018690526127106101008401528686526013909452919093208351815590516001820180546001600160a01b0319166001600160a01b039092169190911790559051929350909160028201906139f89082615d5c565b5060608201516003820190613a0d9082615d5c565b50608082015160048201805460a085015161ffff1990911692151561ff00191692909217610100921515830217905560c0830151600583015560e0830151600683015590910151600790910155613a643382614b4e565b336001600160a01b0316817f725520a098b8482798bc7dbba42fdafe9a372e065d49b40f4f87da50cf476d2588604051613a9e91906151d5565b60405180910390a395945050505050565b600d546000906001600160a01b031615801590613ad65750600d546001600160a01b031633145b613b135760405162461bcd60e51b815260206004820152600e60248201526d4f6e6c79204352452070726f787960901b6044820152606401611164565b6000613b1e88614846565b6001600160a01b031603613b445760405162461bcd60e51b815260040161116490615e1c565b6001600160a01b038616613b8a5760405162461bcd60e51b815260206004820152600d60248201526c5a65726f206c6963656e73656560981b6044820152606401611164565b62015180841015613bd25760405162461bcd60e51b8152602060048201526012602482015271111d5c985d1a5bdb881d1bdbc81cda1bdc9d60721b6044820152606401611164565b600087815260136020526040902060070154851115613c335760405162461bcd60e51b815260206004820152601a60248201527f496e76616c696420726f79616c74792070657263656e746167650000000000006044820152606401611164565b613c406002612710615e61565b851115613c8b5760405162461bcd60e51b8152602060048201526019602482015278526f79616c74792063616e6e6f74206578636565642035302560381b6044820152606401611164565b600f805460009182613c9c83615e96565b919050559050604051806101200160405280828152602001886001600160a01b03168152602001898152602001878152602001868152602001428152602001600115158152602001851515815260200184815250601460008381526020019081526020016000206000820151816000015560208201518160010160006101000a8154816001600160a01b0302191690836001600160a01b0316021790555060408201518160020155606082015181600301556080820151816004015560a0820151816005015560c08201518160060160006101000a81548160ff02191690831515021790555060e08201518160060160016101000a81548160ff021916908315150217905550610100820151816007019081613db89190615d5c565b50505060008881526017602090815260408083208054600181018255908452828420018490558a8352601390915281206007018054889290613dfb908490615e83565b90915550506040516001600160a01b03881690899083907ff3e06c5a2377f321895ab1f570aa3551aadcbe18d7fc962f31b9693634df630890600090a4979650505050505050565b600081815260186020908152604091829020805483518184028101840190945280845260609392830182828015613e9957602002820191906000526020600020905b815481526020019060010190808311613e85575b50505050509050919050565b600080805b601b54811015613f115760196000601b8381548110613ecb57613ecb615c19565b60009182526020808320909101546001600160a01b0316835282019290925260400190206005015460ff1615613f095781613f0581615e96565b9250505b600101613eaa565b50919050565b601a6020526000908152604090208054600182015460058301546006840154600785015460088601546009870180549697959694959394929360ff90921692613f5f90615b69565b80601f0160208091040260200160405190810160405280929190818152602001828054613f8b90615b69565b8015613fd85780601f10613fad57610100808354040283529160200191613fd8565b820191906000526020600020905b815481529060010190602001808311613fbb57829003601f168201915b50505050509080600a0154905088565b60606000613ff583614846565b6001600160a01b03160361401b5760405162461bcd60e51b815260040161116490615e1c565b6000828152601360205260409020600301805461403790615b69565b80601f016020809104026020016040519081016040528092919081815260200182805461406390615b69565b8015613e995780601f1061408557610100808354040283529160200191613e99565b820191906000526020600020905b8154815290600101906020018083116140935750939695505050505050565b6060601b8054806020026020016040519081016040528092919081815260200182805480156110e357602002820191906000526020600020905b81546001600160a01b031681526001909101906020018083116140ec575050505050905090565b61411b6146ba565b600b80546001600160a01b0319166001600160a01b0392909216919091179055565b6000818152601560205260408120805460018201546002830154600484015460058501546006860154600387018054899889986060988a98899889989497939692956001600160a01b03909216949293909260ff1691849061419e90615b69565b80601f01602080910402602001604051908101604052809291908181526020018280546141ca90615b69565b80156142175780601f106141ec57610100808354040283529160200191614217565b820191906000526020600020905b8154815290600101906020018083116141fa57829003601f168201915b50505050509350975097509750975097509750975050919395979092949650565b601860205281600052604060002081815481106114ea57600080fd5b6001600160a01b03918216600090815260056020908152604080832093909416825291909152205460ff1690565b600854600954600a54604051632f4de29b60e11b81526001600160a01b039283166004820152602481019190915230604482015260648101849052600060848201819052929190911690635e9bc5369060a401602060405180830381865afa1580156142f2573d6000803e3d6000fd5b505050506040513d601f19601f820116820180604052508101906110559190615eaf565b60008060606000806000806060600080601a60008c8152602001908152602001600020905080600001548160010154826002018360050154846006015485600701548660080160009054906101000a900460ff168760090188600a0154868054806020026020016040519081016040528092919081815260200182805480156143c857602002820191906000526020600020905b81546001600160a01b031681526001909101906020018083116143aa575b505050505096508180546143db90615b69565b80601f016020809104026020016040519081016040528092919081815260200182805461440790615b69565b80156144545780601f1061442957610100808354040283529160200191614454565b820191906000526020600020905b81548152906001019060200180831161443757829003601f168201915b50505050509150995099509950995099509950995099509950509193959799909294969850565b6144836146ba565b6001600160a01b0381166144ad57604051631e4fbdf760e01b815260006004820152602401611164565b611f3181614afc565b60008181526013602052604081206001810154600482015460058301546006840154600785015460028601805460609788978a97889788978897889795966001600160a01b039095169594600388019460ff80821695610100909204169390929091879061452390615b69565b80601f016020809104026020016040519081016040528092919081815260200182805461454f90615b69565b801561459c5780601f106145715761010080835404028352916020019161459c565b820191906000526020600020905b81548152906001019060200180831161457f57829003601f168201915b505050505096508580546145af90615b69565b80601f01602080910402602001604051908101604052809291908181526020018280546145db90615b69565b80156146285780601f106145fd57610100808354040283529160200191614628565b820191906000526020600020905b81548152906001019060200180831161460b57829003601f168201915b505050505095509850985098509850985098509850985050919395975091939597565b6146536146ba565b600d80546001600160a01b0319166001600160a01b0392909216919091179055565b60008061468183614846565b90506001600160a01b03811661105557604051637e27328960e01b815260048101849052602401611164565b6115558383836001614c62565b6006546001600160a01b031633146118cd5760405163118cdaa760e01b8152336004820152602401611164565b6001600160a01b03821661471157604051633250574960e11b815260006004820152602401611164565b600061471e838333614d68565b9050836001600160a01b0316816001600160a01b0316146138ba576040516364283d7b60e01b81526001600160a01b0380861660048301526024820184905282166044820152606401611164565b6001600160a01b03821661479657604051633250574960e11b815260006004820152602401611164565b60006147a483836000614d68565b90506001600160a01b0381166147d057604051637e27328960e01b815260048101839052602401611164565b836001600160a01b0316816001600160a01b0316146138ba576040516364283d7b60e01b81526001600160a01b0380861660048301526024820184905282166044820152606401611164565b60026007540361483f57604051633ee5aeb560e01b815260040160405180910390fd5b6002600755565b6000908152600260205260409020546001600160a01b031690565b6000838152601a602090815260408083208584526015909252909120600882015460ff16156148c55760405162461bcd60e51b815260206004820152601060248201526f105b1c9958591e481c995cdbdb1d995960821b6044820152606401611164565b6006820154600583015460088401805460ff1916600117905511600983016148ed8582615d5c565b5060058201805460ff19166001179055806149335761490f8260010154611411565b6149335760018201546000908152601360205260409020600401805461ff00191690555b60005b6002840154811015614a7557600084600201828154811061495957614959615c19565b60009182526020808320909101546001600160a01b03168083526003880190915260409091205490915060ff1615614a6c576001600160a01b038116600090815260048601602052604090205460ff1683151581151503614a17576001600160a01b03821660009081526019602052604081206004018054916149db83615e96565b90915550506001600160a01b03821660009081526019602052604081206002018054600a9290614a0c908490615bea565b90915550614a6a9050565b6001600160a01b03821660009081526019602052604090206002015415614a6a576001600160a01b0382166000908152601960205260408120600201805460059290614a64908490615e83565b90915550505b505b50600101614936565b5084867f4cbb1b383796e513e3c0915f41a9d0198320a473adb9a55d1c3b5f2941ca4d7583604051614aab911515815260200190565b60405180910390a38160010154857fc84a77110774854ab237145b108e924962dbaa5191275eb044a6cb09621c4a9483604051614aec911515815260200190565b60405180910390a3505050505050565b600680546001600160a01b038381166001600160a01b0319831681179093556040519116919082907f8be0079c531659141344cd1fd0a4f28419497f9722a3daafe3b4186f6b6457e090600090a35050565b6001600160a01b038216614b7857604051633250574960e11b815260006004820152602401611164565b6000614b8683836000614d68565b90506001600160a01b03811615611555576040516339e3563760e11b815260006004820152602401611164565b6001600160a01b038216614be557604051630b61174360e31b81526001600160a01b0383166004820152602401611164565b6001600160a01b03838116600081815260056020908152604080832094871680845294825291829020805460ff191686151590811790915591519182527f17307eab39ab6107e8899845ad3d59bd9653f200f220920489ca2b5937696c319101612119565b614c558484846114ff565b6138ba3385858585614e63565b8080614c7657506001600160a01b03821615155b15614d38576000614c8684614675565b90506001600160a01b03831615801590614cb25750826001600160a01b0316816001600160a01b031614155b8015614cc55750614cc38184614254565b155b15614cee5760405163a9fbf51f60e01b81526001600160a01b0384166004820152602401611164565b8115614d365783856001600160a01b0316826001600160a01b03167f8c5be1e5ebec7d5bd14f71427d1e84f3dd0314c0f7b2291e5b200ac8c7c3b92560405160405180910390a45b505b5050600090815260046020526040902080546001600160a01b0319166001600160a01b0392909216919091179055565b600080614d7484614846565b90506000614d83868686614f8d565b60008681526013602052604090205490915015614e5a576001600160a01b03821615801590614dba57506001600160a01b03861615155b15614e205760008581526013602052604080822060010180546001600160a01b0319166001600160a01b038a8116918217909255915191929085169188917f1757856899d0b1fbb2e309cb05cda166887b13df401307904c3042b4b759dc3991a4614e5a565b6001600160a01b03861615614e5a57600085815260136020526040902060010180546001600160a01b0319166001600160a01b0388161790555b95945050505050565b6001600160a01b0383163b1561230357604051630a85bd0160e11b81526001600160a01b0384169063150b7a0290614ea5908890889087908790600401615ecc565b6020604051808303816000875af1925050508015614ee0575060408051601f3d908101601f19168201909252614edd91810190615f09565b60015b614f49573d808015614f0e576040519150601f19603f3d011682016040523d82523d6000602084013e614f13565b606091505b508051600003614f4157604051633250574960e11b81526001600160a01b0385166004820152602401611164565b805160208201fd5b6001600160e01b03198116630a85bd0160e11b14614f8557604051633250574960e11b81526001600160a01b0385166004820152602401611164565b505050505050565b600080614f9984614846565b90506001600160a01b03831615614fb557614fb5818486615081565b6001600160a01b03811615614ff357614fd2600085600080614c62565b6001600160a01b038116600090815260036020526040902080546000190190555b6001600160a01b03851615615022576001600160a01b0385166000908152600360205260409020805460010190555b60008481526002602052604080822080546001600160a01b0319166001600160a01b0389811691821790925591518793918516917fddf252ad1be2c89b69c2b068fc378daa952ba7f163c4a11628f55a4df523b3ef91a4949350505050565b61508c8383836150e5565b611555576001600160a01b0383166150ba57604051637e27328960e01b815260048101829052602401611164565b60405163177e802f60e01b81526001600160a01b038316600482015260248101829052604401611164565b60006001600160a01b038316158015906151435750826001600160a01b0316846001600160a01b0316148061511f575061511f8484614254565b8061514357506000828152600460205260409020546001600160a01b038481169116145b949350505050565b6001600160e01b031981168114611f3157600080fd5b60006020828403121561517357600080fd5b813561517e8161514b565b9392505050565b60005b838110156151a0578181015183820152602001615188565b50506000910152565b600081518084526151c1816020860160208601615185565b601f01601f19169290920160200192915050565b60208152600061517e60208301846151a9565b6000602082840312156151fa57600080fd5b5035919050565b6001600160a01b0381168114611f3157600080fd5b6000806040838503121561522957600080fd5b823561523481615201565b946020939093013593505050565b60006020828403121561525457600080fd5b813561517e81615201565b634e487b7160e01b600052604160045260246000fd5b604051601f8201601f1916810167ffffffffffffffff8111828210171561529e5761529e61525f565b604052919050565b600067ffffffffffffffff8311156152c0576152c061525f565b6152d3601f8401601f1916602001615275565b90508281528383830111156152e757600080fd5b828260208301376000602084830101529392505050565b600082601f83011261530f57600080fd5b61517e838335602085016152a6565b60006020828403121561533057600080fd5b813567ffffffffffffffff81111561534757600080fd5b615143848285016152fe565b6000806040838503121561536657600080fd5b50508035926020909101359150565b60008060006060848603121561538a57600080fd5b833561539581615201565b925060208401356153a581615201565b929592945050506040919091013590565b600080604083850312156153c957600080fd5b8235915060208301356153db81615201565b809150509250929050565b60006101208b835260018060a01b038b1660208401528960408401528860608401528760808401528660a084015285151560c084015284151560e084015280610100840152615437818401856151a9565b9c9b505050505050505050505050565b8035801515811461545757600080fd5b919050565b6000806040838503121561546f57600080fd5b8235915061547f60208401615447565b90509250929050565b87815286602082015260018060a01b038616604082015260e0606082015260006154b560e08301876151a9565b60808301959095525091151560a083015260c090910152949350505050565b600080604083850312156154e757600080fd5b82359150602083013567ffffffffffffffff81111561550557600080fd5b615511858286016152fe565b9150509250929050565b6000806040838503121561552e57600080fd5b8235915060208084013567ffffffffffffffff8082111561554e57600080fd5b818601915086601f83011261556257600080fd5b8135818111156155745761557461525f565b8060051b9150615585848301615275565b818152918301840191848101908984111561559f57600080fd5b938501935b838510156155c957843592506155b983615201565b82825293850193908501906155a4565b8096505050505050509250929050565b600080600080608085870312156155ef57600080fd5b84356155fa81615201565b9350602085013567ffffffffffffffff8082111561561757600080fd5b615623888389016152fe565b9450604087013591508082111561563957600080fd5b50615646878288016152fe565b92505061565560608601615447565b905092959194509250565b6000806040838503121561567357600080fd5b823561567e81615201565b915061547f60208401615447565b600080600080600060a086880312156156a457600080fd5b8535945060208601359350604086013592506156c260608701615447565b9150608086013567ffffffffffffffff8111156156de57600080fd5b6156ea888289016152fe565b9150509295509295909350565b8981526001600160a01b0389166020820152610120604082018190526000906157228382018b6151a9565b90508281036060840152615736818a6151a9565b9715156080840152505093151560a085015260c084019290925260e083015261010090910152949350505050565b600061010060018060a01b038b16835289602084015288604084015287606084015286608084015285151560a084015284151560c08401528060e08401526157ae818401856151a9565b9b9a5050505050505050505050565b6000806000606084860312156157d257600080fd5b833592506157e260208501615447565b9150604084013567ffffffffffffffff8111156157fe57600080fd5b61580a868287016152fe565b9150509250925092565b6000806000806080858703121561582a57600080fd5b843561583581615201565b9350602085013561584581615201565b925060408501359150606085013567ffffffffffffffff81111561586857600080fd5b8501601f8101871361587957600080fd5b615888878235602084016152a6565b91505092959194509250565b6000806000606084860312156158a957600080fd5b833567ffffffffffffffff808211156158c157600080fd5b6158cd878388016152fe565b945060208601359150808211156158e357600080fd5b506158f0868287016152fe565b9250506158ff60408501615447565b90509250925092565b60008060008060008060c0878903121561592157600080fd5b86359550602087013561593381615201565b9450604087013593506060870135925061594f60808801615447565b915060a087013567ffffffffffffffff81111561596b57600080fd5b61597789828a016152fe565b9150509295509295509295565b6020808252825182820181905260009190848201906040850190845b818110156159bc578351835292840192918401916001016159a0565b50909695505050505050565b60006101008a835289602084015288604084015287606084015286608084015285151560a08401528060c0840152615a02818401866151a9565b9150508260e08301529998505050505050505050565b60008151808452602080850194506020840160005b83811015615a525781516001600160a01b031687529582019590820190600101615a2d565b509495945050505050565b60208152600061517e6020830184615a18565b60008060408385031215615a8357600080fd5b8235615a8e81615201565b915060208301356153db81615201565b60006101208b83528a6020840152806040840152615abe8184018b615a18565b90508860608401528760808401528660a084015285151560c084015282810360e0840152615aec81866151a9565b915050826101008301529a9950505050505050505050565b6001600160a01b038916815261010060208201819052600090615b298382018b6151a9565b90508281036040840152615b3d818a6151a9565b97151560608401525050931515608085015260a084019290925260c083015260e0909101529392505050565b600181811c90821680615b7d57607f821691505b602082108103613f1157634e487b7160e01b600052602260045260246000fd5b60208082526019908201527f41726269747261746f72206e6f74207265676973746572656400000000000000604082015260600190565b634e487b7160e01b600052601160045260246000fd5b8082018082111561105557611055615bd4565b60008251615c0f818460208701615185565b9190910192915050565b634e487b7160e01b600052603260045260246000fd5b60208082526027908201527f43616e6e6f74207472616e7366657220495020776974682061637469766520646040820152666973707574657360c81b606082015260800190565b602080825260169082015275111a5cdc1d5d1948191bd95cc81b9bdd08195e1a5cdd60521b604082015260600190565b60208082526018908201527f4469737075746520616c7265616479207265736f6c7665640000000000000000604082015260600190565b6020808252601c908201527f4172626974726174696f6e20616c7265616479207265736f6c76656400000000604082015260600190565b601f821115611555576000816000526020600020601f850160051c81016020861015615d3d5750805b601f850160051c820191505b81811015614f8557828155600101615d49565b815167ffffffffffffffff811115615d7657615d7661525f565b615d8a81615d848454615b69565b84615d14565b602080601f831160018114615dbf5760008415615da75750858301515b600019600386901b1c1916600185901b178555614f85565b600085815260208120601f198616915b82811015615dee57888601518255948401946001909101908401615dcf565b5085821015615e0c5787850151600019600388901b60f8161c191681555b5050505050600190811b01905550565b602080825260149082015273151bdad95b88191bd95cc81b9bdd08195e1a5cdd60621b604082015260600190565b808202811582820484141761105557611055615bd4565b600082615e7e57634e487b7160e01b600052601260045260246000fd5b500490565b8181038181111561105557611055615bd4565b600060018201615ea857615ea8615bd4565b5060010190565b600060208284031215615ec157600080fd5b815161517e81615201565b6001600160a01b0385811682528416602082015260408101839052608060608201819052600090615eff908301846151a9565b9695505050505050565b600060208284031215615f1b57600080fd5b815161517e8161514b56fe4172626974726174696f6e207265736f6c76656420616674657220646561646c696e65206261736564206f6e20766f7465206d616a6f7269747944697370757465206175746f2d72656a65637465643a204e6f2061726269747261746f727320617661696c61626c652077697468696e20646561646c696e654172626974726174696f6e207265736f6c76656420616674657220323420686f75722077616974696e6720706572696f64207769746820332b207570686f6c6420766f746573a2646970667358221220ab50dce812704acb54e65b15c86fd8f905c32e74e9f734dd8cd01ba52c8bc77564736f6c63430008180033",
  "linkReferences": {},
  "deployedLinkReferences": {}
}