{
  "_format": "hh-sol-artifact-1",
  "contractName": "ModredIPCREConsumer",
  "sourceName": "contracts/ModredIPCREConsumer.sol",
  "abi": [
    {
      "inputs": [
        {
          "internalType": "address",
          "name": "_forwarderAddress",
          "type": "address"
        },
        {
          "internalType": "address",
          "name": "_modredIPAddress",
          "type": "address"
        }
      ],
      "stateMutability": "nonpayable",
      "type": "constructor"
    },
    {
      "inputs": [
        {
          "internalType": "address",
          "name": "received",
          "type": "address"
        },
        {
          "internalType": "address",
          "name": "expected",
          "type": "address"
        }
      ],
      "name": "InvalidAuthor",
      "type": "error"
    },
    {
      "inputs": [],
      "name": "InvalidForwarderAddress",
      "type": "error"
    },
    {
      "inputs": [
        {
          "internalType": "address",
          "name": "sender",
          "type": "address"
        },
        {
          "internalType": "address",
          "name": "expected",
          "type": "address"
        }
      ],
      "name": "InvalidSender",
      "type": "error"
    },
    {
      "inputs": [
        {
          "internalType": "bytes32",
          "name": "received",
          "type": "bytes32"
        },
        {
          "internalType": "bytes32",
          "name": "expected",
          "type": "bytes32"
        }
      ],
      "name": "InvalidWorkflowId",
      "type": "error"
    },
    {
      "inputs": [
        {
          "internalType": "bytes10",
          "name": "received",
          "type": "bytes10"
        },
        {
          "internalType": "bytes10",
          "name": "expected",
          "type": "bytes10"
        }
      ],
      "name": "InvalidWorkflowName",
      "type": "error"
    },
    {
      "inputs": [
        {
          "internalType": "address",
          "name": "owner",
          "type": "address"
        }
      ],
      "name": "OwnableInvalidOwner",
      "type": "error"
    },
    {
      "inputs": [
        {
          "internalType": "address",
          "name": "account",
          "type": "address"
        }
      ],
      "name": "OwnableUnauthorizedAccount",
      "type": "error"
    },
    {
      "inputs": [
        {
          "internalType": "uint8",
          "name": "instructionType",
          "type": "uint8"
        }
      ],
      "name": "UnknownInstructionType",
      "type": "error"
    },
    {
      "inputs": [],
      "name": "WorkflowNameRequiresAuthorValidation",
      "type": "error"
    },
    {
      "anonymous": false,
      "inputs": [
        {
          "indexed": true,
          "internalType": "address",
          "name": "previousAuthor",
          "type": "address"
        },
        {
          "indexed": true,
          "internalType": "address",
          "name": "newAuthor",
          "type": "address"
        }
      ],
      "name": "ExpectedAuthorUpdated",
      "type": "event"
    },
    {
      "anonymous": false,
      "inputs": [
        {
          "indexed": true,
          "internalType": "bytes32",
          "name": "previousId",
          "type": "bytes32"
        },
        {
          "indexed": true,
          "internalType": "bytes32",
          "name": "newId",
          "type": "bytes32"
        }
      ],
      "name": "ExpectedWorkflowIdUpdated",
      "type": "event"
    },
    {
      "anonymous": false,
      "inputs": [
        {
          "indexed": true,
          "internalType": "bytes10",
          "name": "previousName",
          "type": "bytes10"
        },
        {
          "indexed": true,
          "internalType": "bytes10",
          "name": "newName",
          "type": "bytes10"
        }
      ],
      "name": "ExpectedWorkflowNameUpdated",
      "type": "event"
    },
    {
      "anonymous": false,
      "inputs": [
        {
          "indexed": true,
          "internalType": "address",
          "name": "previousForwarder",
          "type": "address"
        },
        {
          "indexed": true,
          "internalType": "address",
          "name": "newForwarder",
          "type": "address"
        }
      ],
      "name": "ForwarderAddressUpdated",
      "type": "event"
    },
    {
      "anonymous": false,
      "inputs": [
        {
          "indexed": true,
          "internalType": "address",
          "name": "beneficiary",
          "type": "address"
        },
        {
          "indexed": false,
          "internalType": "uint256",
          "name": "tokenId",
          "type": "uint256"
        },
        {
          "indexed": false,
          "internalType": "string",
          "name": "ipHash",
          "type": "string"
        }
      ],
      "name": "IPRegisteredViaCRE",
      "type": "event"
    },
    {
      "anonymous": false,
      "inputs": [
        {
          "indexed": true,
          "internalType": "uint256",
          "name": "tokenId",
          "type": "uint256"
        },
        {
          "indexed": true,
          "internalType": "address",
          "name": "licensee",
          "type": "address"
        },
        {
          "indexed": false,
          "internalType": "uint256",
          "name": "licenseId",
          "type": "uint256"
        }
      ],
      "name": "LicenseMintedViaCRE",
      "type": "event"
    },
    {
      "anonymous": false,
      "inputs": [
        {
          "indexed": true,
          "internalType": "address",
          "name": "previousOwner",
          "type": "address"
        },
        {
          "indexed": true,
          "internalType": "address",
          "name": "newOwner",
          "type": "address"
        }
      ],
      "name": "OwnershipTransferred",
      "type": "event"
    },
    {
      "inputs": [],
      "name": "INSTRUCTION_MINT_LICENSE",
      "outputs": [
        {
          "internalType": "uint8",
          "name": "",
          "type": "uint8"
        }
      ],
      "stateMutability": "view",
      "type": "function"
    },
    {
      "inputs": [],
      "name": "INSTRUCTION_REGISTER_IP",
      "outputs": [
        {
          "internalType": "uint8",
          "name": "",
          "type": "uint8"
        }
      ],
      "stateMutability": "view",
      "type": "function"
    },
    {
      "inputs": [],
      "name": "getExpectedAuthor",
      "outputs": [
        {
          "internalType": "address",
          "name": "",
          "type": "address"
        }
      ],
      "stateMutability": "view",
      "type": "function"
    },
    {
      "inputs": [],
      "name": "getExpectedWorkflowId",
      "outputs": [
        {
          "internalType": "bytes32",
          "name": "",
          "type": "bytes32"
        }
      ],
      "stateMutability": "view",
      "type": "function"
    },
    {
      "inputs": [],
      "name": "getExpectedWorkflowName",
      "outputs": [
        {
          "internalType": "bytes10",
          "name": "",
          "type": "bytes10"
        }
      ],
      "stateMutability": "view",
      "type": "function"
    },
    {
      "inputs": [],
      "name": "getForwarderAddress",
      "outputs": [
        {
          "internalType": "address",
          "name": "",
          "type": "address"
        }
      ],
      "stateMutability": "view",
      "type": "function"
    },
    {
      "inputs": [],
      "name": "modredIP",
      "outputs": [
        {
          "internalType": "contract ModredIP",
          "name": "",
          "type": "address"
        }
      ],
      "stateMutability": "view",
      "type": "function"
    },
    {
      "inputs": [
        {
          "internalType": "bytes",
          "name": "metadata",
          "type": "bytes"
        },
        {
          "internalType": "bytes",
          "name": "report",
          "type": "bytes"
        }
      ],
      "name": "onReport",
      "outputs": [],
      "stateMutability": "nonpayable",
      "type": "function"
    },
    {
      "inputs": [],
      "name": "owner",
      "outputs": [
        {
          "internalType": "address",
          "name": "",
          "type": "address"
        }
      ],
      "stateMutability": "view",
      "type": "function"
    },
    {
      "inputs": [],
      "name": "renounceOwnership",
      "outputs": [],
      "stateMutability": "nonpayable",
      "type": "function"
    },
    {
      "inputs": [
        {
          "internalType": "address",
          "name": "_author",
          "type": "address"
        }
      ],
      "name": "setExpectedAuthor",
      "outputs": [],
      "stateMutability": "nonpayable",
      "type": "function"
    },
    {
      "inputs": [
        {
          "internalType": "bytes32",
          "name": "_id",
          "type": "bytes32"
        }
      ],
      "name": "setExpectedWorkflowId",
      "outputs": [],
      "stateMutability": "nonpayable",
      "type": "function"
    },
    {
      "inputs": [
        {
          "internalType": "string",
          "name": "_name",
          "type": "string"
        }
      ],
      "name": "setExpectedWorkflowName",
      "outputs": [],
      "stateMutability": "nonpayable",
      "type": "function"
    },
    {
      "inputs": [
        {
          "internalType": "address",
          "name": "_forwarder",
          "type": "address"
        }
      ],
      "name": "setForwarderAddress",
      "outputs": [],
      "stateMutability": "nonpayable",
      "type": "function"
    },
    {
      "inputs": [
        {
          "internalType": "bytes4",
          "name": "interfaceId",
          "type": "bytes4"
        }
      ],
      "name": "supportsInterface",
      "outputs": [
        {
          "internalType": "bool",
          "name": "",
          "type": "bool"
        }
      ],
      "stateMutability": "view",
      "type": "function"
    },
    {
      "inputs": [
        {
          "internalType": "address",
          "name": "newOwner",
          "type": "address"
        }
      ],
      "name": "transferOwnership",
      "outputs": [],
      "stateMutability": "nonpayable",
      "type": "function"
    }
  ],
  "bytecode": "0x60a06040523480156200001157600080fd5b5060405162001516380380620015168339810160408190526200003491620001a2565b8133806200005d57604051631e4fbdf760e01b8152600060048201526024015b60405180910390fd5b620000688162000135565b506001600160a01b038116620000905760405162e0775560e61b815260040160405180910390fd5b600180546001600160a01b0319166001600160a01b0383169081179091556040516000907f039ad854736757070884dd787ef1a7f58db33546639d1f3efddcf4a33fb8997e908290a3506001600160a01b038116620001225760405162461bcd60e51b815260206004820152600d60248201526c05a65726f204d6f64726564495609c1b604482015260640162000054565b6001600160a01b031660805250620001da565b600080546001600160a01b038381166001600160a01b0319831681178455604051919092169283917f8be0079c531659141344cd1fd0a4f28419497f9722a3daafe3b4186f6b6457e09190a35050565b80516001600160a01b03811681146200019d57600080fd5b919050565b60008060408385031215620001b657600080fd5b620001c18362000185565b9150620001d16020840162000185565b90509250929050565b608051611312620002046000396000818161018a0152818161094e0152610a6901526113126000f3fe608060405234801561001057600080fd5b50600436106101005760003560e01c80638da5cb5b11610097578063d60c884b11610066578063d60c884b14610226578063d777cc6d14610239578063f2fde38b1461024c578063f5c793ef1461025f57600080fd5b80638da5cb5b146101c9578063a619d818146101da578063bc1fc27a14610200578063c3c44ac21461021357600080fd5b80633441856f116100d35780633441856f146101745780633add93e014610185578063715018a6146101ac578063805f2132146101b657600080fd5b806301ffc9a714610105578063041341221461012d578063158407e1146101475780633397cf671461014f575b600080fd5b610118610113366004610d31565b610270565b60405190151581526020015b60405180910390f35b610135600181565b60405160ff9091168152602001610124565b610135600081565b6002546001600160a01b03165b6040516001600160a01b039091168152602001610124565b6001546001600160a01b031661015c565b61015c7f000000000000000000000000000000000000000000000000000000000000000081565b6101b46102a7565b005b6101b46101c4366004610dab565b6102bb565b6000546001600160a01b031661015c565b600254600160a01b900460b01b6040516001600160b01b03199091168152602001610124565b6101b461020e366004610e17565b6104f4565b6101b4610221366004610e59565b6106f4565b6101b4610234366004610e87565b610735565b6101b4610247366004610e87565b61078f565b6101b461025a366004610e87565b6107e9565b600354604051908152602001610124565b60006001600160e01b0319821663402f909960e11b14806102a157506001600160e01b031982166301ffc9a760e01b145b92915050565b6102af610827565b6102b96000610854565b565b6001546001600160a01b0316158015906102e057506001546001600160a01b03163314155b156103185760015460405163708986dd60e11b81523360048201526001600160a01b0390911660248201526044015b60405180910390fd5b60035415158061033257506002546001600160a01b031615155b806103525750600254600160a01b900460b01b6001600160b01b03191615155b156104e457600080600061039b87878080601f0160208091040260200160405190810160405280939291908181526020018383808284376000920191909152506108a492505050565b6003549295509093509150158015906103b657506003548314155b156103e257600354604051634dfd1cdd60e11b815261030f918591600401918252602082015260400190565b6002546001600160a01b03161580159061040a57506002546001600160a01b03828116911614155b1561043f57600254604051631715315f60e31b81526001600160a01b038084166004830152909116602482015260440161030f565b600254600160a01b900460b01b6001600160b01b031916156104e0576002546001600160a01b031661048457604051634847901160e01b815260040160405180910390fd5b6002546001600160b01b0319838116600160a01b90920460b01b16146104e05760025460405163362304d360e11b81526001600160b01b03198481166004830152600160a01b90920460b01b909116602482015260440161030f565b5050505b6104ee828261090c565b50505050565b6104fc610827565b600254600160a01b900460b01b6000829003610564576002805469ffffffffffffffffffff60a01b191690556040516000906001600160b01b03198316907f1e7ddd09d504c82dcfc784a464b167469f5aad967606ec4822d848ef9141dfa5908390a3505050565b600060028484604051610578929190610ea4565b602060405180830381855afa158015610595573d6000803e3d6000fd5b5050506040513d601f19601f820116820180604052508101906105b89190610eb4565b905060006105e6826040516020016105d291815260200190565b604051602081830303815290604052610b70565b60408051600a8082528183019092529192506000919060208201818036833701905050905060005b600a8110801561061e5750825181105b1561067b5782818151811061063557610635610ee3565b602001015160f81c60f81b82828151811061065257610652610ee3565b60200101906001600160f81b031916908160001a9053508061067381610f0f565b91505061060e565b5061068581610f28565b6002805469ffffffffffffffffffff60a01b1916600160a01b60b093841c81029190911791829055604051910490911b6001600160b01b031990811691908616907f1e7ddd09d504c82dcfc784a464b167469f5aad967606ec4822d848ef9141dfa590600090a3505050505050565b6106fc610827565b6003805490829055604051829082907f0dbedcdf21925e053b4c574eae180d7f2883235ab4976ecc0873598a2a999b0390600090a35050565b61073d610827565b600280546001600160a01b038381166001600160a01b0319831681179093556040519116919082907f3321cda85c145617e47418aa14255e9dcbec53a753778e57591703b89a3cad3190600090a35050565b610797610827565b600180546001600160a01b038381166001600160a01b0319831681179093556040519116919082907f039ad854736757070884dd787ef1a7f58db33546639d1f3efddcf4a33fb8997e90600090a35050565b6107f1610827565b6001600160a01b03811661081b57604051631e4fbdf760e01b81526000600482015260240161030f565b61082481610854565b50565b6000546001600160a01b031633146102b95760405163118cdaa760e01b815233600482015260240161030f565b600080546001600160a01b038381166001600160a01b0319831681178455604051919092169283917f8be0079c531659141344cd1fd0a4f28419497f9722a3daafe3b4186f6b6457e09190a35050565b6000806000605e845110156108f05760405162461bcd60e51b815260206004820152601260248201527113595d1859185d18481d1bdbc81cda1bdc9d60721b604482015260640161030f565b50505060208101516040820151604a83015160601c9193909250565b60008061091b83850185610fb8565b909250905060ff8216610a30576000806000808480602001905181019061094291906110d7565b935093509350935060007f00000000000000000000000000000000000000000000000000000000000000006001600160a01b0316637566d4e8868686866040518563ffffffff1660e01b815260040161099e949392919061118b565b6020604051808303816000875af11580156109bd573d6000803e3d6000fd5b505050506040513d601f19601f820116820180604052508101906109e19190610eb4565b9050846001600160a01b03167f1a0aecdd452f6ca480d4ead24f34b7d69b164b8435e89f7e572b4edab35c4c4c8286604051610a1e9291906111d5565b60405180910390a250505050506104ee565b60001960ff831601610b525760008060008060008086806020019051810190610a5991906111ee565b95509550955095509550955060007f00000000000000000000000000000000000000000000000000000000000000006001600160a01b031663bb9007c18888888888886040518763ffffffff1660e01b8152600401610abd9695949392919061126b565b6020604051808303816000875af1158015610adc573d6000803e3d6000fd5b505050506040513d601f19601f82011682018060405250810190610b009190610eb4565b9050856001600160a01b0316877f4bd5971393f2bb0eb951da5d81daaed5e088f557a6e00d1b81c4c86b41d9311c83604051610b3e91815260200190565b60405180910390a3505050505050506104ee565b6040516312c8262d60e11b815260ff8316600482015260240161030f565b6060600082516002610b8291906112b2565b67ffffffffffffffff811115610b9a57610b9a610ecd565b6040519080825280601f01601f191660200182016040528015610bc4576020820181803683370190505b50905060005b8351811015610d2a576040518060400160405280601081526020016f181899199a1a9b1b9c1cb0b131b232b360811b8152506004858381518110610c1057610c10610ee3565b016020015182516001600160f81b031990911690911c60f81c908110610c3857610c38610ee3565b01602001516001600160f81b03191682610c538360026112b2565b81518110610c6357610c63610ee3565b60200101906001600160f81b031916908160001a9053506040518060400160405280601081526020016f181899199a1a9b1b9c1cb0b131b232b360811b815250848281518110610cb557610cb5610ee3565b602091010151815160f89190911c600f16908110610cd557610cd5610ee3565b01602001516001600160f81b03191682610cf08360026112b2565b610cfb9060016112c9565b81518110610d0b57610d0b610ee3565b60200101906001600160f81b031916908160001a905350600101610bca565b5092915050565b600060208284031215610d4357600080fd5b81356001600160e01b031981168114610d5b57600080fd5b9392505050565b60008083601f840112610d7457600080fd5b50813567ffffffffffffffff811115610d8c57600080fd5b602083019150836020828501011115610da457600080fd5b9250929050565b60008060008060408587031215610dc157600080fd5b843567ffffffffffffffff80821115610dd957600080fd5b610de588838901610d62565b90965094506020870135915080821115610dfe57600080fd5b50610e0b87828801610d62565b95989497509550505050565b60008060208385031215610e2a57600080fd5b823567ffffffffffffffff811115610e4157600080fd5b610e4d85828601610d62565b90969095509350505050565b600060208284031215610e6b57600080fd5b5035919050565b6001600160a01b038116811461082457600080fd5b600060208284031215610e9957600080fd5b8135610d5b81610e72565b8183823760009101908152919050565b600060208284031215610ec657600080fd5b5051919050565b634e487b7160e01b600052604160045260246000fd5b634e487b7160e01b600052603260045260246000fd5b634e487b7160e01b600052601160045260246000fd5b600060018201610f2157610f21610ef9565b5060010190565b805160208201516001600160b01b0319808216929190600a831015610f5757808184600a0360031b1b83161693505b505050919050565b604051601f8201601f1916810167ffffffffffffffff81118282101715610f8857610f88610ecd565b604052919050565b600067ffffffffffffffff821115610faa57610faa610ecd565b50601f01601f191660200190565b60008060408385031215610fcb57600080fd5b823560ff81168114610fdc57600080fd5b9150602083013567ffffffffffffffff811115610ff857600080fd5b8301601f8101851361100957600080fd5b803561101c61101782610f90565b610f5f565b81815286602083850101111561103157600080fd5b816020840160208301376000602083830101528093505050509250929050565b60005b8381101561106c578181015183820152602001611054565b50506000910152565b600082601f83011261108657600080fd5b815161109461101782610f90565b8181528460208386010111156110a957600080fd5b6110ba826020830160208701611051565b949350505050565b805180151581146110d257600080fd5b919050565b600080600080608085870312156110ed57600080fd5b84516110f881610e72565b602086015190945067ffffffffffffffff8082111561111657600080fd5b61112288838901611075565b9450604087015191508082111561113857600080fd5b5061114587828801611075565b925050611154606086016110c2565b905092959194509250565b60008151808452611177816020860160208601611051565b601f01601f19169290920160200192915050565b6001600160a01b03851681526080602082018190526000906111af9083018661115f565b82810360408401526111c1818661115f565b915050821515606083015295945050505050565b8281526040602082015260006110ba604083018461115f565b60008060008060008060c0878903121561120757600080fd5b86519550602087015161121981610e72565b6040880151606089015191965094509250611236608088016110c2565b915060a087015167ffffffffffffffff81111561125257600080fd5b61125e89828a01611075565b9150509295509295509295565b86815260018060a01b0386166020820152846040820152836060820152821515608082015260c060a082015260006112a660c083018461115f565b98975050505050505050565b80820281158282048414176102a1576102a1610ef9565b808201808211156102a1576102a1610ef956fea26469706673582212203a43a6872b38fd991e5a0bf5503ae3ca75ea01745f9f82855c27af9b3a31392664736f6c63430008180033",
  "linkReferences": {},
  "deployedLinkReferences": {}
}