{
  "_format": "hh-sol-artifact-1",
  "contractName": "ModredIP",
  "sourceName": "contracts/ModredIP.sol",
  "abi": [
    {
      "inputs": [
        {
          "internalType": "address",
          "name": "_registry",
          "type": "address"
        },
        {
          "internalType": "address",
          "name": "_accountImplementation",
          "type": "address"
        },
        {
          "internalType": "uint256",
          "name": "_chainId",
          "type": "uint256"
        },
        {
          "internalType": "address",
          "name": "_platformFeeCollector",
          "type": "address"
        }
      ],
      "stateMutability": "nonpayable",
      "type": "constructor"
    },
    {
      "inputs": [
        {
          "internalType": "address",
          "name": "sender",
          "type": "address"
        },
        {
          "internalType": "uint256",
          "name": "tokenId",
          "type": "uint256"
        },
        {
          "internalType": "address",
          "name": "owner",
          "type": "address"
        }
      ],
      "name": "ERC721IncorrectOwner",
      "type": "error"
    },
    {
      "inputs": [
        {
          "internalType": "address",
          "name": "operator",
          "type": "address"
        },
        {
          "internalType": "uint256",
          "name": "tokenId",
          "type": "uint256"
        }
      ],
      "name": "ERC721InsufficientApproval",
      "type": "error"
    },
    {
      "inputs": [
        {
          "internalType": "address",
          "name": "approver",
          "type": "address"
        }
      ],
      "name": "ERC721InvalidApprover",
      "type": "error"
    },
    {
      "inputs": [
        {
          "internalType": "address",
          "name": "operator",
          "type": "address"
        }
      ],
      "name": "ERC721InvalidOperator",
      "type": "error"
    },
    {
      "inputs": [
        {
          "internalType": "address",
          "name": "owner",
          "type": "address"
        }
      ],
      "name": "ERC721InvalidOwner",
      "type": "error"
    },
    {
      "inputs": [
        {
          "internalType": "address",
          "name": "receiver",
          "type": "address"
        }
      ],
      "name": "ERC721InvalidReceiver",
      "type": "error"
    },
    {
      "inputs": [
        {
          "internalType": "address",
          "name": "sender",
          "type": "address"
        }
      ],
      "name": "ERC721InvalidSender",
      "type": "error"
    },
    {
      "inputs": [
        {
          "internalType": "uint256",
          "name": "tokenId",
          "type": "uint256"
        }
      ],
      "name": "ERC721NonexistentToken",
      "type": "error"
    },
    {
      "inputs": [
        {
          "internalType": "address",
          "name": "owner",
          "type": "address"
        }
      ],
      "name": "OwnableInvalidOwner",
      "type": "error"
    },
    {
      "inputs": [
        {
          "internalType": "address",
          "name": "account",
          "type": "address"
        }
      ],
      "name": "OwnableUnauthorizedAccount",
      "type": "error"
    },
    {
      "inputs": [],
      "name": "ReentrancyGuardReentrantCall",
      "type": "error"
    },
    {
      "anonymous": false,
      "inputs": [
        {
          "indexed": true,
          "internalType": "address",
          "name": "owner",
          "type": "address"
        },
        {
          "indexed": true,
          "internalType": "address",
          "name": "approved",
          "type": "address"
        },
        {
          "indexed": true,
          "internalType": "uint256",
          "name": "tokenId",
          "type": "uint256"
        }
      ],
      "name": "Approval",
      "type": "event"
    },
    {
      "anonymous": false,
      "inputs": [
        {
          "indexed": true,
          "internalType": "address",
          "name": "owner",
          "type": "address"
        },
        {
          "indexed": true,
          "internalType": "address",
          "name": "operator",
          "type": "address"
        },
        {
          "indexed": false,
          "internalType": "bool",
          "name": "approved",
          "type": "bool"
        }
      ],
      "name": "ApprovalForAll",
      "type": "event"
    },
    {
      "anonymous": false,
      "inputs": [
        {
          "indexed": true,
          "internalType": "uint256",
          "name": "arbitrationId",
          "type": "uint256"
        },
        {
          "indexed": true,
          "internalType": "uint256",
          "name": "disputeId",
          "type": "uint256"
        },
        {
          "indexed": false,
          "internalType": "bool",
          "name": "upheld",
          "type": "bool"
        }
      ],
      "name": "ArbitrationResolved",
      "type": "event"
    },
    {
      "anonymous": false,
      "inputs": [
        {
          "indexed": true,
          "internalType": "uint256",
          "name": "arbitrationId",
          "type": "uint256"
        },
        {
          "indexed": true,
          "internalType": "address",
          "name": "arbitrator",
          "type": "address"
        },
        {
          "indexed": false,
          "internalType": "bool",
          "name": "decision",
          "type": "bool"
        }
      ],
      "name": "ArbitrationVote",
      "type": "event"
    },
    {
      "anonymous": false,
      "inputs": [
        {
          "indexed": true,
          "internalType": "address",
          "name": "arbitrator",
          "type": "address"
        },
        {
          "indexed": false,
          "internalType": "uint256",
          "name": "stake",
          "type": "uint256"
        }
      ],
      "name": "ArbitratorRegistered",
      "type": "event"
    },
    {
      "anonymous": false,
      "inputs": [
        {
          "indexed": true,
          "internalType": "address",
          "name": "arbitrator",
          "type": "address"
        },
        {
          "indexed": false,
          "internalType": "uint256",
          "name": "stake",
          "type": "uint256"
        }
      ],
      "name": "ArbitratorUnstaked",
      "type": "event"
    },
    {
      "anonymous": false,
      "inputs": [
        {
          "indexed": true,
          "internalType": "uint256",
          "name": "arbitrationId",
          "type": "uint256"
        },
        {
          "indexed": true,
          "internalType": "uint256",
          "name": "disputeId",
          "type": "uint256"
        },
        {
          "indexed": false,
          "internalType": "address[]",
          "name": "arbitrators",
          "type": "address[]"
        }
      ],
      "name": "ArbitratorsAssigned",
      "type": "event"
    },
    {
      "anonymous": false,
      "inputs": [
        {
          "indexed": true,
          "internalType": "uint256",
          "name": "disputeId",
          "type": "uint256"
        },
        {
          "indexed": true,
          "internalType": "uint256",
          "name": "tokenId",
          "type": "uint256"
        },
        {
          "indexed": true,
          "internalType": "address",
          "name": "disputer",
          "type": "address"
        }
      ],
      "name": "DisputeRaised",
      "type": "event"
    },
    {
      "anonymous": false,
      "inputs": [
        {
          "indexed": true,
          "internalType": "uint256",
          "name": "disputeId",
          "type": "uint256"
        },
        {
          "indexed": true,
          "internalType": "uint256",
          "name": "tokenId",
          "type": "uint256"
        },
        {
          "indexed": false,
          "internalType": "bool",
          "name": "resolved",
          "type": "bool"
        }
      ],
      "name": "DisputeResolved",
      "type": "event"
    },
    {
      "anonymous": false,
      "inputs": [
        {
          "indexed": true,
          "internalType": "uint256",
          "name": "tokenId",
          "type": "uint256"
        },
        {
          "indexed": true,
          "internalType": "address",
          "name": "owner",
          "type": "address"
        },
        {
          "indexed": false,
          "internalType": "string",
          "name": "ipHash",
          "type": "string"
        }
      ],
      "name": "IPRegistered",
      "type": "event"
    },
    {
      "anonymous": false,
      "inputs": [
        {
          "indexed": true,
          "internalType": "uint256",
          "name": "tokenId",
          "type": "uint256"
        },
        {
          "indexed": true,
          "internalType": "address",
          "name": "from",
          "type": "address"
        },
        {
          "indexed": true,
          "internalType": "address",
          "name": "to",
          "type": "address"
        }
      ],
      "name": "IPTransferred",
      "type": "event"
    },
    {
      "anonymous": false,
      "inputs": [
        {
          "indexed": true,
          "internalType": "uint256",
          "name": "licenseId",
          "type": "uint256"
        },
        {
          "indexed": true,
          "internalType": "uint256",
          "name": "tokenId",
          "type": "uint256"
        },
        {
          "indexed": true,
          "internalType": "address",
          "name": "licensee",
          "type": "address"
        }
      ],
      "name": "LicenseMinted",
      "type": "event"
    },
    {
      "anonymous": false,
      "inputs": [
        {
          "indexed": true,
          "internalType": "address",
          "name": "previousOwner",
          "type": "address"
        },
        {
          "indexed": true,
          "internalType": "address",
          "name": "newOwner",
          "type": "address"
        }
      ],
      "name": "OwnershipTransferred",
      "type": "event"
    },
    {
      "anonymous": false,
      "inputs": [
        {
          "indexed": true,
          "internalType": "uint256",
          "name": "tokenId",
          "type": "uint256"
        },
        {
          "indexed": false,
          "internalType": "uint256",
          "name": "amount",
          "type": "uint256"
        }
      ],
      "name": "RevenuePaid",
      "type": "event"
    },
    {
      "anonymous": false,
      "inputs": [
        {
          "indexed": true,
          "internalType": "uint256",
          "name": "tokenId",
          "type": "uint256"
        },
        {
          "indexed": true,
          "internalType": "address",
          "name": "claimant",
          "type": "address"
        },
        {
          "indexed": false,
          "internalType": "uint256",
          "name": "amount",
          "type": "uint256"
        }
      ],
      "name": "RoyaltyClaimed",
      "type": "event"
    },
    {
      "anonymous": false,
      "inputs": [
        {
          "indexed": true,
          "internalType": "address",
          "name": "from",
          "type": "address"
        },
        {
          "indexed": true,
          "internalType": "address",
          "name": "to",
          "type": "address"
        },
        {
          "indexed": true,
          "internalType": "uint256",
          "name": "tokenId",
          "type": "uint256"
        }
      ],
      "name": "Transfer",
      "type": "event"
    },
    {
      "inputs": [],
      "name": "ARBITRATION_TIMEOUT",
      "outputs": [
        {
          "internalType": "uint256",
          "name": "",
          "type": "uint256"
        }
      ],
      "stateMutability": "view",
      "type": "function"
    },
    {
      "inputs": [],
      "name": "DISPUTE_TIMEOUT",
      "outputs": [
        {
          "internalType": "uint256",
          "name": "",
          "type": "uint256"
        }
      ],
      "stateMutability": "view",
      "type": "function"
    },
    {
      "inputs": [],
      "name": "MINIMUM_LICENSE_DURATION",
      "outputs": [
        {
          "internalType": "uint256",
          "name": "",
          "type": "uint256"
        }
      ],
      "stateMutability": "view",
      "type": "function"
    },
    {
      "inputs": [],
      "name": "MIN_ARBITRATOR_STAKE",
      "outputs": [
        {
          "internalType": "uint256",
          "name": "",
          "type": "uint256"
        }
      ],
      "stateMutability": "view",
      "type": "function"
    },
    {
      "inputs": [],
      "name": "MIN_UPHOLD_VOTES",
      "outputs": [
        {
          "internalType": "uint256",
          "name": "",
          "type": "uint256"
        }
      ],
      "stateMutability": "view",
      "type": "function"
    },
    {
      "inputs": [],
      "name": "REQUIRED_ARBITRATORS",
      "outputs": [
        {
          "internalType": "uint256",
          "name": "",
          "type": "uint256"
        }
      ],
      "stateMutability": "view",
      "type": "function"
    },
    {
      "inputs": [],
      "name": "ROYALTY_DECIMALS",
      "outputs": [
        {
          "internalType": "uint256",
          "name": "",
          "type": "uint256"
        }
      ],
      "stateMutability": "view",
      "type": "function"
    },
    {
      "inputs": [],
      "name": "UPHOLD_WAIT_PERIOD",
      "outputs": [
        {
          "internalType": "uint256",
          "name": "",
          "type": "uint256"
        }
      ],
      "stateMutability": "view",
      "type": "function"
    },
    {
      "inputs": [],
      "name": "accountImplementation",
      "outputs": [
        {
          "internalType": "address",
          "name": "",
          "type": "address"
        }
      ],
      "stateMutability": "view",
      "type": "function"
    },
    {
      "inputs": [
        {
          "internalType": "address",
          "name": "arbitrator",
          "type": "address"
        }
      ],
      "name": "activateArbitrator",
      "outputs": [],
      "stateMutability": "nonpayable",
      "type": "function"
    },
    {
      "inputs": [
        {
          "internalType": "address",
          "name": "to",
          "type": "address"
        },
        {
          "internalType": "uint256",
          "name": "tokenId",
          "type": "uint256"
        }
      ],
      "name": "approve",
      "outputs": [],
      "stateMutability": "nonpayable",
      "type": "function"
    },
    {
      "inputs": [
        {
          "internalType": "uint256",
          "name": "",
          "type": "uint256"
        }
      ],
      "name": "arbitrations",
      "outputs": [
        {
          "internalType": "uint256",
          "name": "arbitrationId",
          "type": "uint256"
        },
        {
          "internalType": "uint256",
          "name": "disputeId",
          "type": "uint256"
        },
        {
          "internalType": "uint256",
          "name": "votesFor",
          "type": "uint256"
        },
        {
          "internalType": "uint256",
          "name": "votesAgainst",
          "type": "uint256"
        },
        {
          "internalType": "uint256",
          "name": "deadline",
          "type": "uint256"
        },
        {
          "internalType": "bool",
          "name": "isResolved",
          "type": "bool"
        },
        {
          "internalType": "string",
          "name": "resolution",
          "type": "string"
        },
        {
          "internalType": "uint256",
          "name": "threeUpholdVotesTimestamp",
          "type": "uint256"
        }
      ],
      "stateMutability": "view",
      "type": "function"
    },
    {
      "inputs": [
        {
          "internalType": "uint256",
          "name": "",
          "type": "uint256"
        }
      ],
      "name": "arbitratorList",
      "outputs": [
        {
          "internalType": "address",
          "name": "",
          "type": "address"
        }
      ],
      "stateMutability": "view",
      "type": "function"
    },
    {
      "inputs": [
        {
          "internalType": "address",
          "name": "",
          "type": "address"
        }
      ],
      "name": "arbitrators",
      "outputs": [
        {
          "internalType": "address",
          "name": "arbitrator",
          "type": "address"
        },
        {
          "internalType": "uint256",
          "name": "stake",
          "type": "uint256"
        },
        {
          "internalType": "uint256",
          "name": "reputation",
          "type": "uint256"
        },
        {
          "internalType": "uint256",
          "name": "totalCases",
          "type": "uint256"
        },
        {
          "internalType": "uint256",
          "name": "successfulCases",
          "type": "uint256"
        },
        {
          "internalType": "bool",
          "name": "isActive",
          "type": "bool"
        },
        {
          "internalType": "uint256",
          "name": "registrationDate",
          "type": "uint256"
        }
      ],
      "stateMutability": "view",
      "type": "function"
    },
    {
      "inputs": [
        {
          "internalType": "uint256",
          "name": "disputeId",
          "type": "uint256"
        },
        {
          "internalType": "address[]",
          "name": "selectedArbitrators",
          "type": "address[]"
        }
      ],
      "name": "assignArbitrators",
      "outputs": [],
      "stateMutability": "nonpayable",
      "type": "function"
    },
    {
      "inputs": [
        {
          "internalType": "address",
          "name": "owner",
          "type": "address"
        }
      ],
      "name": "balanceOf",
      "outputs": [
        {
          "internalType": "uint256",
          "name": "",
          "type": "uint256"
        }
      ],
      "stateMutability": "view",
      "type": "function"
    },
    {
      "inputs": [],
      "name": "chainId",
      "outputs": [
        {
          "internalType": "uint256",
          "name": "",
          "type": "uint256"
        }
      ],
      "stateMutability": "view",
      "type": "function"
    },
    {
      "inputs": [
        {
          "internalType": "uint256",
          "name": "disputeId",
          "type": "uint256"
        }
      ],
      "name": "checkAndResolveArbitration",
      "outputs": [],
      "stateMutability": "nonpayable",
      "type": "function"
    },
    {
      "inputs": [
        {
          "internalType": "uint256",
          "name": "tokenId",
          "type": "uint256"
        }
      ],
      "name": "claimRoyalties",
      "outputs": [],
      "stateMutability": "nonpayable",
      "type": "function"
    },
    {
      "inputs": [],
      "name": "creProxy",
      "outputs": [
        {
          "internalType": "address",
          "name": "",
          "type": "address"
        }
      ],
      "stateMutability": "view",
      "type": "function"
    },
    {
      "inputs": [
        {
          "internalType": "address",
          "name": "arbitrator",
          "type": "address"
        }
      ],
      "name": "deactivateArbitrator",
      "outputs": [],
      "stateMutability": "nonpayable",
      "type": "function"
    },
    {
      "inputs": [
        {
          "internalType": "uint256",
          "name": "",
          "type": "uint256"
        }
      ],
      "name": "disputes",
      "outputs": [
        {
          "internalType": "uint256",
          "name": "disputeId",
          "type": "uint256"
        },
        {
          "internalType": "uint256",
          "name": "tokenId",
          "type": "uint256"
        },
        {
          "internalType": "address",
          "name": "disputer",
          "type": "address"
        },
        {
          "internalType": "string",
          "name": "reason",
          "type": "string"
        },
        {
          "internalType": "uint256",
          "name": "timestamp",
          "type": "uint256"
        },
        {
          "internalType": "bool",
          "name": "isResolved",
          "type": "bool"
        },
        {
          "internalType": "uint256",
          "name": "arbitrationId",
          "type": "uint256"
        }
      ],
      "stateMutability": "view",
      "type": "function"
    },
    {
      "inputs": [],
      "name": "getActiveArbitratorsCount",
      "outputs": [
        {
          "internalType": "uint256",
          "name": "",
          "type": "uint256"
        }
      ],
      "stateMutability": "view",
      "type": "function"
    },
    {
      "inputs": [],
      "name": "getAllArbitrators",
      "outputs": [
        {
          "internalType": "address[]",
          "name": "",
          "type": "address[]"
        }
      ],
      "stateMutability": "view",
      "type": "function"
    },
    {
      "inputs": [
        {
          "internalType": "uint256",
          "name": "tokenId",
          "type": "uint256"
        }
      ],
      "name": "getApproved",
      "outputs": [
        {
          "internalType": "address",
          "name": "",
          "type": "address"
        }
      ],
      "stateMutability": "view",
      "type": "function"
    },
    {
      "inputs": [
        {
          "internalType": "uint256",
          "name": "arbitrationId",
          "type": "uint256"
        }
      ],
      "name": "getArbitration",
      "outputs": [
        {
          "internalType": "uint256",
          "name": "arbitrationId_",
          "type": "uint256"
        },
        {
          "internalType": "uint256",
          "name": "disputeId_",
          "type": "uint256"
        },
        {
          "internalType": "address[]",
          "name": "arbitrators_",
          "type": "address[]"
        },
        {
          "internalType": "uint256",
          "name": "votesFor_",
          "type": "uint256"
        },
        {
          "internalType": "uint256",
          "name": "votesAgainst_",
          "type": "uint256"
        },
        {
          "internalType": "uint256",
          "name": "deadline_",
          "type": "uint256"
        },
        {
          "internalType": "bool",
          "name": "isResolved_",
          "type": "bool"
        },
        {
          "internalType": "string",
          "name": "resolution_",
          "type": "string"
        },
        {
          "internalType": "uint256",
          "name": "threeUpholdVotesTimestamp_",
          "type": "uint256"
        }
      ],
      "stateMutability": "view",
      "type": "function"
    },
    {
      "inputs": [
        {
          "internalType": "address",
          "name": "arbitrator",
          "type": "address"
        }
      ],
      "name": "getArbitrator",
      "outputs": [
        {
          "internalType": "address",
          "name": "arbitrator_",
          "type": "address"
        },
        {
          "internalType": "uint256",
          "name": "stake_",
          "type": "uint256"
        },
        {
          "internalType": "uint256",
          "name": "reputation_",
          "type": "uint256"
        },
        {
          "internalType": "uint256",
          "name": "totalCases_",
          "type": "uint256"
        },
        {
          "internalType": "uint256",
          "name": "successfulCases_",
          "type": "uint256"
        },
        {
          "internalType": "bool",
          "name": "isActive_",
          "type": "bool"
        },
        {
          "internalType": "uint256",
          "name": "registrationDate_",
          "type": "uint256"
        }
      ],
      "stateMutability": "view",
      "type": "function"
    },
    {
      "inputs": [
        {
          "internalType": "address",
          "name": "arbitrator",
          "type": "address"
        }
      ],
      "name": "getArbitratorActiveDisputes",
      "outputs": [
        {
          "internalType": "uint256",
          "name": "",
          "type": "uint256"
        }
      ],
      "stateMutability": "view",
      "type": "function"
    },
    {
      "inputs": [
        {
          "internalType": "uint256",
          "name": "arbitrationId",
          "type": "uint256"
        },
        {
          "internalType": "address",
          "name": "arbitrator",
          "type": "address"
        }
      ],
      "name": "getArbitratorDecision",
      "outputs": [
        {
          "internalType": "bool",
          "name": "",
          "type": "bool"
        }
      ],
      "stateMutability": "view",
      "type": "function"
    },
    {
      "inputs": [
        {
          "internalType": "uint256",
          "name": "disputeId",
          "type": "uint256"
        }
      ],
      "name": "getDispute",
      "outputs": [
        {
          "internalType": "uint256",
          "name": "disputeId_",
          "type": "uint256"
        },
        {
          "internalType": "uint256",
          "name": "tokenId_",
          "type": "uint256"
        },
        {
          "internalType": "address",
          "name": "disputer_",
          "type": "address"
        },
        {
          "internalType": "string",
          "name": "reason_",
          "type": "string"
        },
        {
          "internalType": "uint256",
          "name": "timestamp_",
          "type": "uint256"
        },
        {
          "internalType": "bool",
          "name": "isResolved_",
          "type": "bool"
        },
        {
          "internalType": "uint256",
          "name": "arbitrationId_",
          "type": "uint256"
        }
      ],
      "stateMutability": "view",
      "type": "function"
    },
    {
      "inputs": [
        {
          "internalType": "uint256",
          "name": "tokenId",
          "type": "uint256"
        }
      ],
      "name": "getIPAccount",
      "outputs": [
        {
          "internalType": "address",
          "name": "",
          "type": "address"
        }
      ],
      "stateMutability": "view",
      "type": "function"
    },
    {
      "inputs": [
        {
          "internalType": "uint256",
          "name": "tokenId",
          "type": "uint256"
        }
      ],
      "name": "getIPAsset",
      "outputs": [
        {
          "internalType": "address",
          "name": "owner_",
          "type": "address"
        },
        {
          "internalType": "string",
          "name": "ipHash_",
          "type": "string"
        },
        {
          "internalType": "string",
          "name": "metadata_",
          "type": "string"
        },
        {
          "internalType": "bool",
          "name": "isEncrypted_",
          "type": "bool"
        },
        {
          "internalType": "bool",
          "name": "isDisputed_",
          "type": "bool"
        },
        {
          "internalType": "uint256",
          "name": "registrationDate_",
          "type": "uint256"
        },
        {
          "internalType": "uint256",
          "name": "totalRevenue_",
          "type": "uint256"
        },
        {
          "internalType": "uint256",
          "name": "royaltyTokens_",
          "type": "uint256"
        }
      ],
      "stateMutability": "view",
      "type": "function"
    },
    {
      "inputs": [
        {
          "internalType": "uint256",
          "name": "licenseId",
          "type": "uint256"
        }
      ],
      "name": "getLicense",
      "outputs": [
        {
          "internalType": "address",
          "name": "licensee_",
          "type": "address"
        },
        {
          "internalType": "uint256",
          "name": "tokenId_",
          "type": "uint256"
        },
        {
          "internalType": "uint256",
          "name": "royaltyPercentage_",
          "type": "uint256"
        },
        {
          "internalType": "uint256",
          "name": "duration_",
          "type": "uint256"
        },
        {
          "internalType": "uint256",
          "name": "startDate_",
          "type": "uint256"
        },
        {
          "internalType": "bool",
          "name": "isActive_",
          "type": "bool"
        },
        {
          "internalType": "bool",
          "name": "commercialUse_",
          "type": "bool"
        },
        {
          "internalType": "string",
          "name": "terms_",
          "type": "string"
        }
      ],
      "stateMutability": "view",
      "type": "function"
    },
    {
      "inputs": [
        {
          "internalType": "uint256",
          "name": "tokenId",
          "type": "uint256"
        },
        {
          "internalType": "address",
          "name": "claimant",
          "type": "address"
        }
      ],
      "name": "getRoyaltyInfo",
      "outputs": [
        {
          "internalType": "uint256",
          "name": "totalRevenue_",
          "type": "uint256"
        },
        {
          "internalType": "uint256",
          "name": "claimableAmount_",
          "type": "uint256"
        },
        {
          "internalType": "uint256",
          "name": "lastClaimed_",
          "type": "uint256"
        },
        {
          "internalType": "uint256",
          "name": "totalAccumulated_",
          "type": "uint256"
        }
      ],
      "stateMutability": "view",
      "type": "function"
    },
    {
      "inputs": [
        {
          "internalType": "uint256",
          "name": "tokenId",
          "type": "uint256"
        }
      ],
      "name": "getTokenDisputes",
      "outputs": [
        {
          "internalType": "uint256[]",
          "name": "",
          "type": "uint256[]"
        }
      ],
      "stateMutability": "view",
      "type": "function"
    },
    {
      "inputs": [
        {
          "internalType": "uint256",
          "name": "tokenId",
          "type": "uint256"
        }
      ],
      "name": "hasActiveDisputes",
      "outputs": [
        {
          "internalType": "bool",
          "name": "",
          "type": "bool"
        }
      ],
      "stateMutability": "view",
      "type": "function"
    },
    {
      "inputs": [
        {
          "internalType": "uint256",
          "name": "arbitrationId",
          "type": "uint256"
        },
        {
          "internalType": "address",
          "name": "arbitrator",
          "type": "address"
        }
      ],
      "name": "hasArbitratorVoted",
      "outputs": [
        {
          "internalType": "bool",
          "name": "",
          "type": "bool"
        }
      ],
      "stateMutability": "view",
      "type": "function"
    },
    {
      "inputs": [
        {
          "internalType": "uint256",
          "name": "",
          "type": "uint256"
        }
      ],
      "name": "ipAssets",
      "outputs": [
        {
          "internalType": "uint256",
          "name": "tokenId",
          "type": "uint256"
        },
        {
          "internalType": "address",
          "name": "owner",
          "type": "address"
        },
        {
          "internalType": "string",
          "name": "ipHash",
          "type": "string"
        },
        {
          "internalType": "string",
          "name": "metadata",
          "type": "string"
        },
        {
          "internalType": "bool",
          "name": "isEncrypted",
          "type": "bool"
        },
        {
          "internalType": "bool",
          "name": "isDisputed",
          "type": "bool"
        },
        {
          "internalType": "uint256",
          "name": "registrationDate",
          "type": "uint256"
        },
        {
          "internalType": "uint256",
          "name": "totalRevenue",
          "type": "uint256"
        },
        {
          "internalType": "uint256",
          "name": "royaltyTokens",
          "type": "uint256"
        }
      ],
      "stateMutability": "view",
      "type": "function"
    },
    {
      "inputs": [
        {
          "internalType": "address",
          "name": "owner",
          "type": "address"
        },
        {
          "internalType": "address",
          "name": "operator",
          "type": "address"
        }
      ],
      "name": "isApprovedForAll",
      "outputs": [
        {
          "internalType": "bool",
          "name": "",
          "type": "bool"
        }
      ],
      "stateMutability": "view",
      "type": "function"
    },
    {
      "inputs": [
        {
          "internalType": "uint256",
          "name": "",
          "type": "uint256"
        }
      ],
      "name": "licenses",
      "outputs": [
        {
          "internalType": "uint256",
          "name": "licenseId",
          "type": "uint256"
        },
        {
          "internalType": "address",
          "name": "licensee",
          "type": "address"
        },
        {
          "internalType": "uint256",
          "name": "tokenId",
          "type": "uint256"
        },
        {
          "internalType": "uint256",
          "name": "royaltyPercentage",
          "type": "uint256"
        },
        {
          "internalType": "uint256",
          "name": "duration",
          "type": "uint256"
        },
        {
          "internalType": "uint256",
          "name": "startDate",
          "type": "uint256"
        },
        {
          "internalType": "bool",
          "name": "isActive",
          "type": "bool"
        },
        {
          "internalType": "bool",
          "name": "commercialUse",
          "type": "bool"
        },
        {
          "internalType": "string",
          "name": "terms",
          "type": "string"
        }
      ],
      "stateMutability": "view",
      "type": "function"
    },
    {
      "inputs": [
        {
          "internalType": "uint256",
          "name": "tokenId",
          "type": "uint256"
        },
        {
          "internalType": "uint256",
          "name": "royaltyPercentage",
          "type": "uint256"
        },
        {
          "internalType": "uint256",
          "name": "duration",
          "type": "uint256"
        },
        {
          "internalType": "bool",
          "name": "commercialUse",
          "type": "bool"
        },
        {
          "internalType": "string",
          "name": "terms",
          "type": "string"
        }
      ],
      "name": "mintLicense",
      "outputs": [
        {
          "internalType": "uint256",
          "name": "",
          "type": "uint256"
        }
      ],
      "stateMutability": "nonpayable",
      "type": "function"
    },
    {
      "inputs": [
        {
          "internalType": "uint256",
          "name": "tokenId",
          "type": "uint256"
        },
        {
          "internalType": "address",
          "name": "licensee",
          "type": "address"
        },
        {
          "internalType": "uint256",
          "name": "royaltyPercentage",
          "type": "uint256"
        },
        {
          "internalType": "uint256",
          "name": "duration",
          "type": "uint256"
        },
        {
          "internalType": "bool",
          "name": "commercialUse",
          "type": "bool"
        },
        {
          "internalType": "string",
          "name": "terms",
          "type": "string"
        }
      ],
      "name": "mintLicenseByProxy",
      "outputs": [
        {
          "internalType": "uint256",
          "name": "",
          "type": "uint256"
        }
      ],
      "stateMutability": "nonpayable",
      "type": "function"
    },
    {
      "inputs": [],
      "name": "name",
      "outputs": [
        {
          "internalType": "string",
          "name": "",
          "type": "string"
        }
      ],
      "stateMutability": "view",
      "type": "function"
    },
    {
      "inputs": [],
      "name": "nextArbitrationId",
      "outputs": [
        {
          "internalType": "uint256",
          "name": "",
          "type": "uint256"
        }
      ],
      "stateMutability": "view",
      "type": "function"
    },
    {
      "inputs": [],
      "name": "nextDisputeId",
      "outputs": [
        {
          "internalType": "uint256",
          "name": "",
          "type": "uint256"
        }
      ],
      "stateMutability": "view",
      "type": "function"
    },
    {
      "inputs": [],
      "name": "nextLicenseId",
      "outputs": [
        {
          "internalType": "uint256",
          "name": "",
          "type": "uint256"
        }
      ],
      "stateMutability": "view",
      "type": "function"
    },
    {
      "inputs": [],
      "name": "nextTokenId",
      "outputs": [
        {
          "internalType": "uint256",
          "name": "",
          "type": "uint256"
        }
      ],
      "stateMutability": "view",
      "type": "function"
    },
    {
      "inputs": [],
      "name": "owner",
      "outputs": [
        {
          "internalType": "address",
          "name": "",
          "type": "address"
        }
      ],
      "stateMutability": "view",
      "type": "function"
    },
    {
      "inputs": [
        {
          "internalType": "uint256",
          "name": "tokenId",
          "type": "uint256"
        }
      ],
      "name": "ownerOf",
      "outputs": [
        {
          "internalType": "address",
          "name": "",
          "type": "address"
        }
      ],
      "stateMutability": "view",
      "type": "function"
    },
    {
      "inputs": [
        {
          "internalType": "uint256",
          "name": "tokenId",
          "type": "uint256"
        }
      ],
      "name": "payRevenue",
      "outputs": [],
      "stateMutability": "payable",
      "type": "function"
    },
    {
      "inputs": [],
      "name": "platformFeeCollector",
      "outputs": [
        {
          "internalType": "address",
          "name": "",
          "type": "address"
        }
      ],
      "stateMutability": "view",
      "type": "function"
    },
    {
      "inputs": [],
      "name": "platformFeePercentage",
      "outputs": [
        {
          "internalType": "uint256",
          "name": "",
          "type": "uint256"
        }
      ],
      "stateMutability": "view",
      "type": "function"
    },
    {
      "inputs": [
        {
          "internalType": "uint256",
          "name": "tokenId",
          "type": "uint256"
        },
        {
          "internalType": "string",
          "name": "reason",
          "type": "string"
        }
      ],
      "name": "raiseDispute",
      "outputs": [],
      "stateMutability": "nonpayable",
      "type": "function"
    },
    {
      "inputs": [],
      "name": "registerArbitrator",
      "outputs": [],
      "stateMutability": "payable",
      "type": "function"
    },
    {
      "inputs": [
        {
          "internalType": "string",
          "name": "ipHash",
          "type": "string"
        },
        {
          "internalType": "string",
          "name": "metadata",
          "type": "string"
        },
        {
          "internalType": "bool",
          "name": "isEncrypted",
          "type": "bool"
        }
      ],
      "name": "registerIP",
      "outputs": [
        {
          "internalType": "uint256",
          "name": "",
          "type": "uint256"
        }
      ],
      "stateMutability": "nonpayable",
      "type": "function"
    },
    {
      "inputs": [
        {
          "internalType": "address",
          "name": "beneficiary",
          "type": "address"
        },
        {
          "internalType": "string",
          "name": "ipHash",
          "type": "string"
        },
        {
          "internalType": "string",
          "name": "metadata",
          "type": "string"
        },
        {
          "internalType": "bool",
          "name": "isEncrypted",
          "type": "bool"
        }
      ],
      "name": "registerIPFor",
      "outputs": [
        {
          "internalType": "uint256",
          "name": "",
          "type": "uint256"
        }
      ],
      "stateMutability": "nonpayable",
      "type": "function"
    },
    {
      "inputs": [],
      "name": "registry",
      "outputs": [
        {
          "internalType": "contract ERC6551Registry",
          "name": "",
          "type": "address"
        }
      ],
      "stateMutability": "view",
      "type": "function"
    },
    {
      "inputs": [],
      "name": "renounceOwnership",
      "outputs": [],
      "stateMutability": "nonpayable",
      "type": "function"
    },
    {
      "inputs": [
        {
          "internalType": "uint256",
          "name": "disputeId",
          "type": "uint256"
        }
      ],
      "name": "resolveArbitrationAfterDeadline",
      "outputs": [],
      "stateMutability": "nonpayable",
      "type": "function"
    },
    {
      "inputs": [
        {
          "internalType": "uint256",
          "name": "disputeId",
          "type": "uint256"
        },
        {
          "internalType": "bool",
          "name": "resolved",
          "type": "bool"
        }
      ],
      "name": "resolveDispute",
      "outputs": [],
      "stateMutability": "nonpayable",
      "type": "function"
    },
    {
      "inputs": [
        {
          "internalType": "uint256",
          "name": "disputeId",
          "type": "uint256"
        }
      ],
      "name": "resolveDisputeWithoutArbitrators",
      "outputs": [],
      "stateMutability": "nonpayable",
      "type": "function"
    },
    {
      "inputs": [
        {
          "internalType": "uint256",
          "name": "",
          "type": "uint256"
        }
      ],
      "name": "royaltyVaults",
      "outputs": [
        {
          "internalType": "uint256",
          "name": "totalAccumulated",
          "type": "uint256"
        },
        {
          "internalType": "uint256",
          "name": "lastClaimed",
          "type": "uint256"
        }
      ],
      "stateMutability": "view",
      "type": "function"
    },
    {
      "inputs": [
        {
          "internalType": "address",
          "name": "from",
          "type": "address"
        },
        {
          "internalType": "address",
          "name": "to",
          "type": "address"
        },
        {
          "internalType": "uint256",
          "name": "tokenId",
          "type": "uint256"
        }
      ],
      "name": "safeTransferFrom",
      "outputs": [],
      "stateMutability": "nonpayable",
      "type": "function"
    },
    {
      "inputs": [
        {
          "internalType": "address",
          "name": "from",
          "type": "address"
        },
        {
          "internalType": "address",
          "name": "to",
          "type": "address"
        },
        {
          "internalType": "uint256",
          "name": "tokenId",
          "type": "uint256"
        },
        {
          "internalType": "bytes",
          "name": "data",
          "type": "bytes"
        }
      ],
      "name": "safeTransferFrom",
      "outputs": [],
      "stateMutability": "nonpayable",
      "type": "function"
    },
    {
      "inputs": [
        {
          "internalType": "address",
          "name": "operator",
          "type": "address"
        },
        {
          "internalType": "bool",
          "name": "approved",
          "type": "bool"
        }
      ],
      "name": "setApprovalForAll",
      "outputs": [],
      "stateMutability": "nonpayable",
      "type": "function"
    },
    {
      "inputs": [
        {
          "internalType": "address",
          "name": "_creProxy",
          "type": "address"
        }
      ],
      "name": "setCREProxy",
      "outputs": [],
      "stateMutability": "nonpayable",
      "type": "function"
    },
    {
      "inputs": [
        {
          "internalType": "address",
          "name": "_platformFeeCollector",
          "type": "address"
        }
      ],
      "name": "setPlatformFeeCollector",
      "outputs": [],
      "stateMutability": "nonpayable",
      "type": "function"
    },
    {
      "inputs": [
        {
          "internalType": "uint256",
          "name": "_platformFeePercentage",
          "type": "uint256"
        }
      ],
      "name": "setPlatformFeePercentage",
      "outputs": [],
      "stateMutability": "nonpayable",
      "type": "function"
    },
    {
      "inputs": [
        {
          "internalType": "uint256",
          "name": "disputeId",
          "type": "uint256"
        },
        {
          "internalType": "bool",
          "name": "decision",
          "type": "bool"
        },
        {
          "internalType": "string",
          "name": "resolution",
          "type": "string"
        }
      ],
      "name": "submitArbitrationDecision",
      "outputs": [],
      "stateMutability": "nonpayable",
      "type": "function"
    },
    {
      "inputs": [
        {
          "internalType": "bytes4",
          "name": "interfaceId",
          "type": "bytes4"
        }
      ],
      "name": "supportsInterface",
      "outputs": [
        {
          "internalType": "bool",
          "name": "",
          "type": "bool"
        }
      ],
      "stateMutability": "view",
      "type": "function"
    },
    {
      "inputs": [],
      "name": "symbol",
      "outputs": [
        {
          "internalType": "string",
          "name": "",
          "type": "string"
        }
      ],
      "stateMutability": "view",
      "type": "function"
    },
    {
      "inputs": [
        {
          "internalType": "uint256",
          "name": "",
          "type": "uint256"
        },
        {
          "internalType": "uint256",
          "name": "",
          "type": "uint256"
        }
      ],
      "name": "tokenDisputes",
      "outputs": [
        {
          "internalType": "uint256",
          "name": "",
          "type": "uint256"
        }
      ],
      "stateMutability": "view",
      "type": "function"
    },
    {
      "inputs": [
        {
          "internalType": "uint256",
          "name": "",
          "type": "uint256"
        },
        {
          "internalType": "uint256",
          "name": "",
          "type": "uint256"
        }
      ],
      "name": "tokenLicenses",
      "outputs": [
        {
          "internalType": "uint256",
          "name": "",
          "type": "uint256"
        }
      ],
      "stateMutability": "view",
      "type": "function"
    },
    {
      "inputs": [
        {
          "internalType": "uint256",
          "name": "tokenId",
          "type": "uint256"
        }
      ],
      "name": "tokenURI",
      "outputs": [
        {
          "internalType": "string",
          "name": "",
          "type": "string"
        }
      ],
      "stateMutability": "view",
      "type": "function"
    },
    {
      "inputs": [
        {
          "internalType": "address",
          "name": "from",
          "type": "address"
        },
        {
          "internalType": "address",
          "name": "to",
          "type": "address"
        },
        {
          "internalType": "uint256",
          "name": "tokenId",
          "type": "uint256"
        }
      ],
      "name": "transferFrom",
      "outputs": [],
      "stateMutability": "nonpayable",
      "type": "function"
    },
    {
      "inputs": [
        {
          "internalType": "uint256",
          "name": "tokenId",
          "type": "uint256"
        },
        {
          "internalType": "address",
          "name": "to",
          "type": "address"
        }
      ],
      "name": "transferIP",
      "outputs": [],
      "stateMutability": "nonpayable",
      "type": "function"
    },
    {
      "inputs": [
        {
          "internalType": "address",
          "name": "newOwner",
          "type": "address"
        }
      ],
      "name": "transferOwnership",
      "outputs": [],
      "stateMutability": "nonpayable",
      "type": "function"
    },
    {
      "inputs": [],
      "name": "unstake",
      "outputs": [],
      "stateMutability": "nonpayable",
      "type": "function"
    }
  ],
  "bytecode": "0x608060405260fa600c556001600e556001600f55600160105560016011553480156200002a57600080fd5b5060405162006177380380620061778339810160408190526200004d91620001a6565b336040518060400160405280600881526020016704d6f6472656449560c41b8152506040518060400160405280600381526020016208aa8960eb1b81525081600090816200009c9190620002a1565b506001620000ab8282620002a1565b5050506001600160a01b038116620000dd57604051631e4fbdf760e01b81526000600482015260240160405180910390fd5b620000e88162000137565b506001600755600880546001600160a01b039586166001600160a01b0319918216179091556009805494861694821694909417909355600a91909155600b80549190931691161790556200036d565b600680546001600160a01b038381166001600160a01b0319831681179093556040519116919082907f8be0079c531659141344cd1fd0a4f28419497f9722a3daafe3b4186f6b6457e090600090a35050565b80516001600160a01b0381168114620001a157600080fd5b919050565b60008060008060808587031215620001bd57600080fd5b620001c88562000189565b9350620001d86020860162000189565b925060408501519150620001ef6060860162000189565b905092959194509250565b634e487b7160e01b600052604160045260246000fd5b600181811c908216806200022557607f821691505b6020821081036200024657634e487b7160e01b600052602260045260246000fd5b50919050565b601f8211156200029c576000816000526020600020601f850160051c81016020861015620002775750805b601f850160051c820191505b81811015620002985782815560010162000283565b5050505b505050565b81516001600160401b03811115620002bd57620002bd620001fa565b620002d581620002ce845462000210565b846200024c565b602080601f8311600181146200030d5760008415620002f45750858301515b600019600386901b1c1916600185901b17855562000298565b600085815260208120601f198616915b828110156200033e578886015182559484019460019091019084016200031d565b50858210156200035d5787850151600019600388901b60f8161c191681555b5050505050600190811b01905550565b615dfa806200037d6000396000f3fe60806040526004361061045d5760003560e01c80637b1039991161023f578063bb9007c111610139578063cf7f8f79116100b6578063f2d5c14c1161007a578063f2d5c14c14610edd578063f2f9371114610efd578063f2fde38b14610f32578063f338456e14610f52578063fa99e0e214610f8657600080fd5b8063cf7f8f7914610ddc578063dfc90cf214610e5d578063e3a96cbd14610e7d578063e73fcbd914610e9d578063e985e9c514610ebd57600080fd5b8063c31a5e72116100fd578063c31a5e7214610d24578063c87b56dd14610d6e578063c9e519e814610d8e578063ca77df2c14610db0578063cdd78cfc14610dc657600080fd5b8063bb9007c114610c76578063bdc51fbb14610c96578063c0a0dc8714610cae578063c203a57814610cdb578063c26c445314610cf057600080fd5b8063a22cb465116101c7578063b2dd12121161018b578063b2dd121214610bc2578063b315f72814610bf6578063b3c424ae14610c16578063b88d4fde14610c36578063b917246614610c5657600080fd5b8063a22cb46514610b2d578063a23ae20314610b4d578063a8597e1314610b6d578063a9b1b6cc14610803578063b1cefb4b14610b8d57600080fd5b8063853a65f91161020e578063853a65f914610aa457806386ad310f14610ac45780638da5cb5b14610ae457806395d89b4114610b025780639a8a059214610b1757600080fd5b80637b103999146109fa5780637f39170a14610a1a5780638333903e14610a3a57806383ced0b014610a5a57600080fd5b806334b25ee21161035b578063564a565d116102d8578063703f08a61161029c578063703f08a61461096f57806370a082311461098f578063715018a6146109af5780637566d4e8146109c457806375794a3c146109e457600080fd5b8063564a565d146108b35780635aef573c146108e65780636352211e14610906578063669c659e146107d55780636f3636651461092657600080fd5b8063486265c61161031f578063486265c6146107ec57806348abc14d14610803578063492f471c146108185780634eece7c71461082e57806351d0ea371461084e57600080fd5b806334b25ee2146106c9578063388b0c02146106e95780633a2ed6cd1461079557806342842e0e146107b55780634539e2c3146107d557600080fd5b806311464fbe116103e95780632d932598116103ad5780632d9325981461062c5780632def66201461064c57806332258409146106615780633248cdf814610681578063337908451461069457600080fd5b806311464fbe1461058c57806316a0425e146105ac578063194e5b5c146105cc57806323b872dd146105ec57806324c37d351461060c57600080fd5b806309c71c031161043057806309c71c03146105135780630ccb8eda146105385780630d4a51e9146105585780630db399341461056e5780630f0355561461058457600080fd5b806301ffc9a71461046257806306fdde0314610497578063081812fc146104b9578063095ea7b3146104f1575b600080fd5b34801561046e57600080fd5b5061048261047d366004614f9b565b610fa6565b60405190151581526020015b60405180910390f35b3480156104a357600080fd5b506104ac610ff8565b60405161048e9190615005565b3480156104c557600080fd5b506104d96104d4366004615018565b61108a565b6040516001600160a01b03909116815260200161048e565b3480156104fd57600080fd5b5061051161050c366004615046565b6110b3565b005b34801561051f57600080fd5b5061052a62093a8081565b60405190815260200161048e565b34801561054457600080fd5b50610511610553366004615072565b6110c2565b34801561056457600080fd5b5061052a60115481565b34801561057a57600080fd5b5061052a60105481565b610511611131565b34801561059857600080fd5b506009546104d9906001600160a01b031681565b3480156105b857600080fd5b506104826105c7366004615018565b61136b565b3480156105d857600080fd5b5061052a6105e736600461508f565b611428565b3480156105f857600080fd5b506105116106073660046150b1565b611459565b34801561061857600080fd5b50610511610627366004615072565b6114b4565b34801561063857600080fd5b506105116106473660046150f2565b611517565b34801561065857600080fd5b50610511611606565b34801561066d57600080fd5b5061051161067c366004615018565b611829565b61051161068f366004615018565b611ad2565b3480156106a057600080fd5b506106b46106af366004615018565b611e8e565b60405161048e99989796959493929190615122565b3480156106d557600080fd5b506105116106e4366004615198565b611f74565b3480156106f557600080fd5b50610754610704366004615072565b6001600160a01b0390811660009081526018602052604090208054600182015460028301546003840154600485015460058601546006909601549490961696929591949093919260ff9091169190565b604080516001600160a01b03909816885260208801969096529486019390935260608501919091526080840152151560a083015260c082015260e00161048e565b3480156107a157600080fd5b506105116107b0366004615018565b612080565b3480156107c157600080fd5b506105116107d03660046150b1565b612264565b3480156107e157600080fd5b5061052a6201518081565b3480156107f857600080fd5b5061052a62278d0081565b34801561080f57600080fd5b5061052a600381565b34801561082457600080fd5b5061052a600f5481565b34801561083a57600080fd5b50610511610849366004615018565b61227f565b34801561085a57600080fd5b50610754610869366004615072565b60186020526000908152604090208054600182015460028301546003840154600485015460058601546006909601546001600160a01b0390951695939492939192909160ff169087565b3480156108bf57600080fd5b506108d36108ce366004615018565b61237c565b60405161048e97969594939291906151c4565b3480156108f257600080fd5b506105116109013660046152cf565b612451565b34801561091257600080fd5b506104d9610921366004615018565b612630565b34801561093257600080fd5b5061095a610941366004615018565b6015602052600090815260409020805460019091015482565b6040805192835260208301919091520161048e565b34801561097b57600080fd5b5061051161098a366004615316565b61263b565b34801561099b57600080fd5b5061052a6109aa366004615072565b6128e5565b3480156109bb57600080fd5b5061051161292d565b3480156109d057600080fd5b5061052a6109df3660046153d4565b61293f565b3480156109f057600080fd5b5061052a600e5481565b348015610a0657600080fd5b506008546104d9906001600160a01b031681565b348015610a2657600080fd5b5061052a610a35366004615072565b612b4b565b348015610a4657600080fd5b50610511610a55366004615018565b612be9565b348015610a6657600080fd5b50610482610a753660046150f2565b60008281526019602090815260408083206001600160a01b038516845260040190915290205460ff1692915050565b348015610ab057600080fd5b50600b546104d9906001600160a01b031681565b348015610ad057600080fd5b50610511610adf366004615018565b612c37565b348015610af057600080fd5b506006546001600160a01b03166104d9565b348015610b0e57600080fd5b506104ac612d95565b348015610b2357600080fd5b5061052a600a5481565b348015610b3957600080fd5b50610511610b4836600461545b565b612da4565b348015610b5957600080fd5b506104d9610b68366004615018565b612daf565b348015610b7957600080fd5b5061052a610b88366004615487565b612dd9565b348015610b9957600080fd5b50610bad610ba8366004615018565b61311a565b60405161048e999897969594939291906154f2565b348015610bce57600080fd5b50610be2610bdd366004615018565b613282565b60405161048e98979695949392919061555f565b348015610c0257600080fd5b50600d546104d9906001600160a01b031681565b348015610c2257600080fd5b50610511610c313660046155b8565b61338e565b348015610c4257600080fd5b50610511610c5136600461560f565b61372c565b348015610c6257600080fd5b5061052a610c7136600461568f565b613789565b348015610c8257600080fd5b5061052a610c91366004615703565b6138e9565b348015610ca257600080fd5b5061052a633b9aca0081565b348015610cba57600080fd5b50610cce610cc9366004615018565b613c7d565b60405161048e919061577f565b348015610ce757600080fd5b5061052a613cdf565b348015610cfc57600080fd5b50610d10610d0b366004615018565b613d51565b60405161048e9897969594939291906157c3565b348015610d3057600080fd5b50610482610d3f3660046150f2565b60008281526019602090815260408083206001600160a01b038516845260030190915290205460ff1692915050565b348015610d7a57600080fd5b506104ac610d89366004615018565b613e22565b348015610d9a57600080fd5b50610da3613eec565b60405161048e9190615858565b348015610dbc57600080fd5b5061052a61271081565b348015610dd257600080fd5b5061052a600c5481565b348015610de857600080fd5b50610e3d610df73660046150f2565b6000918252601260209081526040808420601583528185206006909101546001600160a01b03949094168552600281019092529092205460018301549254919390929190565b60408051948552602085019390935291830152606082015260800161048e565b348015610e6957600080fd5b50610511610e78366004615072565b613f4d565b348015610e8957600080fd5b506108d3610e98366004615018565b613f77565b348015610ea957600080fd5b5061052a610eb836600461508f565b614072565b348015610ec957600080fd5b50610482610ed836600461586b565b61408e565b348015610ee957600080fd5b506104d9610ef8366004615018565b6140bc565b348015610f0957600080fd5b50610f1d610f18366004615018565b614150565b60405161048e99989796959493929190615899565b348015610f3e57600080fd5b50610511610f4d366004615072565b6142b5565b348015610f5e57600080fd5b50610f72610f6d366004615018565b6142f0565b60405161048e9897969594939291906158ff565b348015610f9257600080fd5b50610511610fa1366004615072565b614485565b60006001600160e01b031982166380ac58cd60e01b1480610fd757506001600160e01b03198216635b5e139f60e01b145b80610ff257506301ffc9a760e01b6001600160e01b03198316145b92915050565b60606000805461100790615964565b80601f016020809104026020016040519081016040528092919081815260200182805461103390615964565b80156110805780601f1061105557610100808354040283529160200191611080565b820191906000526020600020905b81548152906001019060200180831161106357829003601f168201915b5050505050905090565b6000611095826144af565b506000828152600460205260409020546001600160a01b0316610ff2565b6110be8282336144e7565b5050565b6110ca6144f4565b6001600160a01b038181166000908152601860205260409020541661110a5760405162461bcd60e51b815260040161110190615998565b60405180910390fd5b6001600160a01b03166000908152601860205260409020600501805460ff19166001179055565b633b9aca0034101561117a5760405162461bcd60e51b8152602060048201526012602482015271496e73756666696369656e74207374616b6560701b6044820152606401611101565b336000908152601860205260409020546001600160a01b031615806111b257503360009081526018602052604090206005015460ff16155b6111f35760405162461bcd60e51b8152602060048201526012602482015271105b1c9958591e481c9959da5cdd195c995960721b6044820152606401611101565b336000908152601860205260409020546001600160a01b03166112ef57601a805460018082019092557f057c384a7d1c54f3a1b2e5e67b2617b8224fdfd1ea7234eea573a6ff665ff63e018054336001600160a01b031991821681179092556040805160e0810182528381523460208083019182526000838501818152606085018281526080860183815260a087018b81524260c089019081529a8552601890955296909220945185549097166001600160a01b039097169690961784559151968301969096559251600282015591516003830155516004820155915160058301805460ff191691151591909117905551600690910155611334565b33600090815260186020526040812060010180543492906113119084906159e5565b9091555050336000908152601860205260409020600501805460ff191660011790555b60405134815233907f8964d147132eb34950084efda449f1e07fcaa2b53f7c3ffa82b5ddb1f08404469060200160405180910390a2565b6000818152601760209081526040808320805482518185028101850190935280835284938301828280156113be57602002820191906000526020600020905b8154815260200190600101908083116113aa575b5050505050905060005b815181101561141e57601460008383815181106113e7576113e76159f8565b60209081029190910181015182528101919091526040016000206005015460ff16611416575060019392505050565b6001016113c8565b5060009392505050565b6016602052816000526040600020818154811061144457600080fd5b90600052602060002001600091509150505481565b6001600160a01b0383161580159061147957506001600160a01b03821615155b156114a4576114878161136b565b156114a45760405162461bcd60e51b815260040161110190615a0e565b6114af838383614521565b505050565b6114bc6144f4565b6001600160a01b03818116600090815260186020526040902054166114f35760405162461bcd60e51b815260040161110190615998565b6001600160a01b03166000908152601860205260409020600501805460ff19169055565b3361152183612630565b6001600160a01b0316146115675760405162461bcd60e51b815260206004820152600d60248201526c2737ba103a34329037bbb732b960991b6044820152606401611101565b6115708261136b565b1561158d5760405162461bcd60e51b815260040161110190615a0e565b600061159883612630565b90506115a58183856145a6565b60008381526012602052604080822060010180546001600160a01b0319166001600160a01b03868116918217909255915191929084169186917f1757856899d0b1fbb2e309cb05cda166887b13df401307904c3042b4b759dc3991a4505050565b61160e614656565b336000908152601860205260409020546001600160a01b03166116735760405162461bcd60e51b815260206004820152601c60248201527f4e6f7420726567697374657265642061732061726269747261746f72000000006044820152606401611101565b336000908152601860205260409020600101546116c95760405162461bcd60e51b81526020600482015260146024820152734e6f207374616b6520746f20776974686472617760601b6044820152606401611101565b6116d233612b4b565b156117385760405162461bcd60e51b815260206004820152603060248201527f43616e6e6f7420756e7374616b65207768696c652061737369676e656420746f60448201526f2061637469766520646973707574657360801b6064820152608401611101565b33600081815260186020526040808220600181018054908490556005909101805460ff19169055905190929083908381818185875af1925050503d806000811461179e576040519150601f19603f3d011682016040523d82523d6000602084013e6117a3565b606091505b50509050806117e65760405162461bcd60e51b815260206004820152600f60248201526e151c985b9cd9995c8819985a5b1959608a1b6044820152606401611101565b60405182815233907f4b4803db5a516ab7afb1cf06da5811f83efd88abd80e1ad1167c6998033728719060200160405180910390a250506118276001600755565b565b600081815260146020526040812080549091036118585760405162461bcd60e51b815260040161110190615a55565b600581015460ff161561187d5760405162461bcd60e51b815260040161110190615a85565b60028101546001600160a01b031633146118e55760405162461bcd60e51b815260206004820152602360248201527f4f6e6c7920746865206469737075746520617574686f722063616e207265736f6044820152626c766560e81b6064820152608401611101565b6006810154600081815260196020526040902060028101541561194a5760405162461bcd60e51b815260206004820152601c60248201527f41726269747261746f727320616c72656164792061737369676e6564000000006044820152606401611101565b806007015442116119935760405162461bcd60e51b8152602060048201526013602482015272111958591b1a5b99481b9bdd081c185cdcd959606a1b6044820152606401611101565b600881015460ff16156119b85760405162461bcd60e51b815260040161110190615abc565b60088101805460ff191660011790556040805160608101909152603f808252615d40602083013960098201906119ee9082615b3b565b5060058301805460ff19166001908117909155830154611a0d9061136b565b611a355760018301546000908152601260205260409020600401805461ff0019169055611a59565b60018301546000908152601260205260409020600401805461ff0019166101001790555b60405160008152849083907f4cbb1b383796e513e3c0915f41a9d0198320a473adb9a55d1c3b5f2941ca4d759060200160405180910390a360018301546040516000815285907fc84a77110774854ab237145b108e924962dbaa5191275eb044a6cb09621c4a949060200160405180910390a350505050565b611ada614656565b6000611ae582614680565b6001600160a01b031603611b0b5760405162461bcd60e51b815260040161110190615bfb565b60003411611b5b5760405162461bcd60e51b815260206004820152601e60248201527f5061796d656e74206d7573742062652067726561746572207468616e203000006044820152606401611101565b600081815260126020526040812090611b7383612630565b905034826006016000828254611b8991906159e5565b9091555050600c5460009061271090611ba29034615c29565b611bac9190615c40565b90506000611bba8234615c62565b9050600082118015611bd65750600b546001600160a01b031615155b15611c8057600b546040516000916001600160a01b03169084908381818185875af1925050503d8060008114611c28576040519150601f19603f3d011682016040523d82523d6000602084013e611c2d565b606091505b5050905080611c7e5760405162461bcd60e51b815260206004820152601c60248201527f506c6174666f726d20666565207472616e73666572206661696c6564000000006044820152606401611101565b505b600085815260166020908152604080832080548251818502810185019093528083528493830182828015611cd357602002820191906000526020600020905b815481526020019060010190808311611cbf575b50505060008a81526015602052604081209394509150505b8251811015611de157600060136000858481518110611d0c57611d0c6159f8565b6020026020010151815260200190815260200160002090508060060160009054906101000a900460ff168015611d54575080600401548160050154611d5191906159e5565b42105b15611dd8576000612710826003015488611d6e9190615c29565b611d789190615c40565b60018301546001600160a01b03166000908152600286016020526040812080549293508392909190611dab9084906159e5565b9091555050835481908590600090611dc49084906159e5565b90915550611dd4905081876159e5565b9550505b50600101611ceb565b506000611dee8486615c62565b90508015611e3f576001600160a01b038716600090815260028301602052604081208054839290611e209084906159e5565b9091555050815481908390600090611e399084906159e5565b90915550505b887f7f4ebe5ca42340d9b48ed614d06fdfcdef473881621be7ff1ef4692c8d879e4334604051611e7191815260200190565b60405180910390a25050505050505050611e8b6001600755565b50565b6013602052600090815260409020805460018201546002830154600384015460048501546005860154600687015460078801805497986001600160a01b0390971697959694959394929360ff8084169461010090940416929190611ef190615964565b80601f0160208091040260200160405190810160405280929190818152602001828054611f1d90615964565b8015611f6a5780601f10611f3f57610100808354040283529160200191611f6a565b820191906000526020600020905b815481529060010190602001808311611f4d57829003601f168201915b5050505050905089565b611f7c6144f4565b60008281526014602052604081208054909103611fab5760405162461bcd60e51b815260040161110190615a55565b600581015460ff1615611fd05760405162461bcd60e51b815260040161110190615a85565b60058101805460ff19168315151790556001810154611fee9061136b565b6120165760018101546000908152601260205260409020600401805461ff001916905561203a565b60018101546000908152601260205260409020600401805461ff0019166101001790555b8060010154837fc84a77110774854ab237145b108e924962dbaa5191275eb044a6cb09621c4a9484604051612073911515815260200190565b60405180910390a3505050565b6120886144f4565b600081815260146020526040812080549091036120b75760405162461bcd60e51b815260040161110190615a55565b600581015460ff16156120dc5760405162461bcd60e51b815260040161110190615a85565b60068101546000818152601960205260409020600881015460ff16156121145760405162461bcd60e51b815260040161110190615abc565b6003816005015410156121695760405162461bcd60e51b815260206004820181905260248201527f4d696e696d756d207570686f6c6420766f746573206e6f7420726561636865646044820152606401611101565b600081600a0154116121c95760405162461bcd60e51b8152602060048201526024808201527f5468726565207570686f6c6420766f7465732074696d657374616d70206e6f74604482015263081cd95d60e21b6064820152608401611101565b6201518081600a01546121dc91906159e5565b4210156122355760405162461bcd60e51b815260206004820152602160248201527f323420686f75722077616974696e6720706572696f64206e6f742070617373656044820152601960fa1b6064820152608401611101565b6000604051806080016040528060468152602001615d7f60469139905061225d83868361469b565b5050505050565b6114af8383836040518060200160405280600081525061372c565b600081815260146020526040812080549091036122ae5760405162461bcd60e51b815260040161110190615a55565b600581015460ff16156122d35760405162461bcd60e51b815260040161110190615a85565b600681015460008181526019602052604090206007810154421161232f5760405162461bcd60e51b8152602060048201526013602482015272111958591b1a5b99481b9bdd081c185cdcd959606a1b6044820152606401611101565b600881015460ff16156123545760405162461bcd60e51b815260040161110190615abc565b60006040518060600160405280603a8152602001615d06603a9139905061225d83868361469b565b6014602052600090815260409020805460018201546002830154600384018054939492936001600160a01b0390921692916123b690615964565b80601f01602080910402602001604051908101604052809291908181526020018280546123e290615964565b801561242f5780601f106124045761010080835404028352916020019161242f565b820191906000526020600020905b81548152906001019060200180831161241257829003601f168201915b50505050600483015460058401546006909401549293909260ff909116915087565b600061245c83614680565b6001600160a01b0316036124825760405162461bcd60e51b815260040161110190615bfb565b601080546000918261249383615c75565b909155506011805491925060009190826124ac83615c75565b909155506040805160e08101825284815260208082018881523383850190815260608401898152426080860152600060a0860181905260c08601889052898152601490945294909220835181559051600182015590516002820180546001600160a01b0319166001600160a01b0390921691909117905591519293509160038201906125389082615b3b565b506080820151600482015560a082015160058201805460ff191691151591909117905560c09091015160069091015560008481526017602090815260408083208054600181810183559185528385200186905584845260199092529091208281559081018390556125ac62093a80426159e5565b600782015560088101805460ff19169055600085815260126020526040902060040154610100900460ff166125fa576000858152601260205260409020600401805461ff0019166101001790555b6040513390869085907f83201991c75b30e493678d0543bdbd02d6a194a5a0dda31490a5fe09e9f0a22090600090a45050505050565b6000610ff2826144af565b6000828152601460205260408120805490910361266a5760405162461bcd60e51b815260040161110190615a55565b600581015460ff161561268f5760405162461bcd60e51b815260040161110190615a85565b600082511180156126a257506003825111155b6126ee5760405162461bcd60e51b815260206004820152601d60248201527f496e76616c6964206e756d626572206f662061726269747261746f72730000006044820152606401611101565b600681015460008181526019602052604090206002810154156127535760405162461bcd60e51b815260206004820152601c60248201527f41726269747261746f727320616c72656164792061737369676e6564000000006044820152606401611101565b60005b84518110156128a45760186000868381518110612775576127756159f8565b6020908102919091018101516001600160a01b031682528101919091526040016000206005015460ff166127e35760405162461bcd60e51b815260206004820152601560248201527441726269747261746f72206e6f742061637469766560581b6044820152606401611101565b60006001600160a01b031660186000878481518110612804576128046159f8565b6020908102919091018101516001600160a01b039081168352908201929092526040016000205416036128495760405162461bcd60e51b815260040161110190615998565b8160020185828151811061285f5761285f6159f8565b60209081029190910181015182546001808201855560009485529290932090920180546001600160a01b0319166001600160a01b039093169290921790915501612756565b5084827f60b461c7775ceaa53a16286bd8c1f9e8c8bc1578ab53b3035ad58e5def5a4287866040516128d69190615858565b60405180910390a35050505050565b60006001600160a01b038216612911576040516322718ad960e21b815260006004820152602401611101565b506001600160a01b031660009081526003602052604090205490565b6129356144f4565b6118276000614936565b600d546000906001600160a01b0316158015906129665750600d546001600160a01b031633145b6129a35760405162461bcd60e51b815260206004820152600e60248201526d4f6e6c79204352452070726f787960901b6044820152606401611101565b6001600160a01b0385166129ec5760405162461bcd60e51b815260206004820152601060248201526f5a65726f2062656e656669636961727960801b6044820152606401611101565b600e8054600091826129fd83615c75565b9091555060408051610120810182528281526001600160a01b0389811660208084019182528385018b8152606085018b90528915156080860152600060a086018190524260c087015260e0860181905261271061010087015287815260129092529490208351815590516001820180546001600160a01b03191691909316179091559151929350916002820190612a949082615b3b565b5060608201516003820190612aa99082615b3b565b50608082015160048201805460a085015161ffff1990911692151561ff00191692909217610100921515830217905560c0830151600583015560e0830151600683015590910151600790910155612b008682614988565b856001600160a01b0316817f725520a098b8482798bc7dbba42fdafe9a372e065d49b40f4f87da50cf476d2587604051612b3a9190615005565b60405180910390a395945050505050565b60008060015b601154811015612be2576000818152601960205260409020600881015460ff16612bd95760005b6002820154811015612bd757856001600160a01b0316826002018281548110612ba357612ba36159f8565b6000918252602090912001546001600160a01b031603612bcf5783612bc781615c75565b945050612bd7565b600101612b78565b505b50600101612b51565b5092915050565b612bf16144f4565b612710811115612c325760405162461bcd60e51b815260206004820152600c60248201526b08ccaca40e8dede40d0d2ced60a31b6044820152606401611101565b600c55565b612c3f614656565b6000818152601560209081526040808320338452600281019092529091205480612ca35760405162461bcd60e51b81526020600482015260156024820152744e6f20726f79616c7469657320746f20636c61696d60581b6044820152606401611101565b3360008181526002840160205260408082208290554260018601555190919083908381818185875af1925050503d8060008114612cfc576040519150601f19603f3d011682016040523d82523d6000602084013e612d01565b606091505b5050905080612d525760405162461bcd60e51b815260206004820152601760248201527f526f79616c7479207472616e73666572206661696c65640000000000000000006044820152606401611101565b604051828152339085907e5ff6321fbc462bad97d71220393208f0286cd4482b70c04f592526a75656d39060200160405180910390a3505050611e8b6001600755565b60606001805461100790615964565b6110be3383836149ed565b601a8181548110612dbf57600080fd5b6000918252602090912001546001600160a01b0316905081565b600080612de587614680565b6001600160a01b031603612e0b5760405162461bcd60e51b815260040161110190615bfb565b33612e1587612630565b6001600160a01b031614612e6b5760405162461bcd60e51b815260206004820152601f60248201527f4f6e6c79204950206f776e65722063616e206d696e74206c6963656e736573006044820152606401611101565b62015180841015612eb35760405162461bcd60e51b8152602060048201526012602482015271111d5c985d1a5bdb881d1bdbc81cda1bdc9d60721b6044820152606401611101565b600086815260126020526040902060070154851115612f145760405162461bcd60e51b815260206004820152601a60248201527f496e76616c696420726f79616c74792070657263656e746167650000000000006044820152606401611101565b612f216002612710615c40565b851115612f6c5760405162461bcd60e51b8152602060048201526019602482015278526f79616c74792063616e6e6f74206578636565642035302560381b6044820152606401611101565b600f805460009182612f7d83615c75565b919050559050604051806101200160405280828152602001336001600160a01b03168152602001888152602001878152602001868152602001428152602001600115158152602001851515815260200184815250601360008381526020019081526020016000206000820151816000015560208201518160010160006101000a8154816001600160a01b0302191690836001600160a01b0316021790555060408201518160020155606082015181600301556080820151816004015560a0820151816005015560c08201518160060160006101000a81548160ff02191690831515021790555060e08201518160060160016101000a81548160ff0219169083151502179055506101008201518160070190816130999190615b3b565b50505060008781526016602090815260408083208054600181018255908452828420018490558983526012909152812060070180548892906130dc908490615c62565b90915550506040513390889083907ff3e06c5a2377f321895ab1f570aa3551aadcbe18d7fc962f31b9693634df630890600090a49695505050505050565b60126020526000908152604090208054600182015460028301805492936001600160a01b039092169261314c90615964565b80601f016020809104026020016040519081016040528092919081815260200182805461317890615964565b80156131c55780601f1061319a576101008083540402835291602001916131c5565b820191906000526020600020905b8154815290600101906020018083116131a857829003601f168201915b5050505050908060030180546131da90615964565b80601f016020809104026020016040519081016040528092919081815260200182805461320690615964565b80156132535780601f1061322857610100808354040283529160200191613253565b820191906000526020600020905b81548152906001019060200180831161323657829003601f168201915b50505050600483015460058401546006850154600790950154939460ff80841695610100909404169350909189565b600081815260136020526040812060018101546002820154600383015460048401546005850154600686015460078701805489988998899889988998899860609895976001600160a01b0390951696939592949193909260ff80821693610100909204169181906132f290615964565b80601f016020809104026020016040519081016040528092919081815260200182805461331e90615964565b801561336b5780601f106133405761010080835404028352916020019161336b565b820191906000526020600020905b81548152906001019060200180831161334e57829003601f168201915b505050505090509850985098509850985098509850985050919395975091939597565b600083815260146020526040812080549091036133bd5760405162461bcd60e51b815260040161110190615a55565b600581015460ff16156133e25760405162461bcd60e51b815260040161110190615a85565b60068101546000818152601960205260408120805490910361343e5760405162461bcd60e51b8152602060048201526015602482015274105c989a5d1c985d1a5bdb881b9bdd08199bdd5b99605a1b6044820152606401611101565b80600701544211156134925760405162461bcd60e51b815260206004820152601b60248201527f4172626974726174696f6e20646561646c696e652070617373656400000000006044820152606401611101565b600881015460ff16156134b75760405162461bcd60e51b815260040161110190615abc565b6000805b600283015481101561351157336001600160a01b03168360020182815481106134e6576134e66159f8565b6000918252602090912001546001600160a01b0316036135095760019150613511565b6001016134bb565b508061355f5760405162461bcd60e51b815260206004820152601a60248201527f4e6f7420616e2061737369676e65642061726269747261746f720000000000006044820152606401611101565b33600090815260038301602052604090205460ff16156135b15760405162461bcd60e51b815260206004820152600d60248201526c105b1c9958591e481d9bdd1959609a1b6044820152606401611101565b3360009081526003830160209081526040808320805460ff19908116600117909155600486019092529091208054881580159190931617905561360a5760058201805490600061360083615c75565b9190505550613622565b60068201805490600061361c83615c75565b91905055505b33600090815260186020526040812060030180549161364083615c75565b90915550506040518615158152339084907ff5483bd93ab7b7fb4e9b1565a5f04c64f423fe2f7df393453cc06a7337d250d69060200160405180910390a385801561368f575060038260050154145b801561369d5750600a820154155b156136a95742600a8301555b6000826006015483600501546136bf91906159e5565b600284015490915081108015906000906136db5750600161370f565b6002831061370f578460060154856005015411156136fb5750600161370f565b84600501548560060154111561370f575060015b801561372057613720868b8a61469b565b50505050505050505050565b6001600160a01b0384161580159061374c57506001600160a01b03831615155b156137775761375a8261136b565b156137775760405162461bcd60e51b815260040161110190615a0e565b61378384848484614a84565b50505050565b600e80546000918291908261379d83615c75565b9091555060408051610120810182528281523360208083019182528284018a8152606084018a90528815156080850152600060a085018190524260c086015260e0850181905261271061010086015286815260129092529390208251815590516001820180546001600160a01b0319166001600160a01b0390921691909117905591519293509160028201906138339082615b3b565b50606082015160038201906138489082615b3b565b50608082015160048201805460a085015161ffff1990911692151561ff00191692909217610100921515830217905560c0830151600583015560e083015160068301559091015160079091015561389f3382614988565b336001600160a01b0316817f725520a098b8482798bc7dbba42fdafe9a372e065d49b40f4f87da50cf476d25876040516138d99190615005565b60405180910390a3949350505050565b600d546000906001600160a01b0316158015906139105750600d546001600160a01b031633145b61394d5760405162461bcd60e51b815260206004820152600e60248201526d4f6e6c79204352452070726f787960901b6044820152606401611101565b600061395888614680565b6001600160a01b03160361397e5760405162461bcd60e51b815260040161110190615bfb565b6001600160a01b0386166139c45760405162461bcd60e51b815260206004820152600d60248201526c5a65726f206c6963656e73656560981b6044820152606401611101565b62015180841015613a0c5760405162461bcd60e51b8152602060048201526012602482015271111d5c985d1a5bdb881d1bdbc81cda1bdc9d60721b6044820152606401611101565b600087815260126020526040902060070154851115613a6d5760405162461bcd60e51b815260206004820152601a60248201527f496e76616c696420726f79616c74792070657263656e746167650000000000006044820152606401611101565b613a7a6002612710615c40565b851115613ac55760405162461bcd60e51b8152602060048201526019602482015278526f79616c74792063616e6e6f74206578636565642035302560381b6044820152606401611101565b600f805460009182613ad683615c75565b919050559050604051806101200160405280828152602001886001600160a01b03168152602001898152602001878152602001868152602001428152602001600115158152602001851515815260200184815250601360008381526020019081526020016000206000820151816000015560208201518160010160006101000a8154816001600160a01b0302191690836001600160a01b0316021790555060408201518160020155606082015181600301556080820151816004015560a0820151816005015560c08201518160060160006101000a81548160ff02191690831515021790555060e08201518160060160016101000a81548160ff021916908315150217905550610100820151816007019081613bf29190615b3b565b50505060008881526016602090815260408083208054600181018255908452828420018490558a8352601290915281206007018054889290613c35908490615c62565b90915550506040516001600160a01b03881690899083907ff3e06c5a2377f321895ab1f570aa3551aadcbe18d7fc962f31b9693634df630890600090a4979650505050505050565b600081815260176020908152604091829020805483518184028101840190945280845260609392830182828015613cd357602002820191906000526020600020905b815481526020019060010190808311613cbf575b50505050509050919050565b600080805b601a54811015613d4b5760186000601a8381548110613d0557613d056159f8565b60009182526020808320909101546001600160a01b0316835282019290925260400190206005015460ff1615613d435781613d3f81615c75565b9250505b600101613ce4565b50919050565b60196020526000908152604090208054600182015460058301546006840154600785015460088601546009870180549697959694959394929360ff90921692613d9990615964565b80601f0160208091040260200160405190810160405280929190818152602001828054613dc590615964565b8015613e125780601f10613de757610100808354040283529160200191613e12565b820191906000526020600020905b815481529060010190602001808311613df557829003601f168201915b50505050509080600a0154905088565b60606000613e2f83614680565b6001600160a01b031603613e555760405162461bcd60e51b815260040161110190615bfb565b60008281526012602052604090206003018054613e7190615964565b80601f0160208091040260200160405190810160405280929190818152602001828054613e9d90615964565b8015613cd35780601f10613ebf57610100808354040283529160200191613cd3565b820191906000526020600020905b815481529060010190602001808311613ecd5750939695505050505050565b6060601a80548060200260200160405190810160405280929190818152602001828054801561108057602002820191906000526020600020905b81546001600160a01b03168152600190910190602001808311613f26575050505050905090565b613f556144f4565b600b80546001600160a01b0319166001600160a01b0392909216919091179055565b6000818152601460205260408120805460018201546002830154600484015460058501546006860154600387018054899889986060988a98899889989497939692956001600160a01b03909216949293909260ff16918490613fd890615964565b80601f016020809104026020016040519081016040528092919081815260200182805461400490615964565b80156140515780601f1061402657610100808354040283529160200191614051565b820191906000526020600020905b81548152906001019060200180831161403457829003601f168201915b50505050509350975097509750975097509750975050919395979092949650565b6017602052816000526040600020818154811061144457600080fd5b6001600160a01b03918216600090815260056020908152604080832093909416825291909152205460ff1690565b600854600954600a54604051632f4de29b60e11b81526001600160a01b039283166004820152602481019190915230604482015260648101849052600060848201819052929190911690635e9bc5369060a401602060405180830381865afa15801561412c573d6000803e3d6000fd5b505050506040513d601f19601f82011682018060405250810190610ff29190615c8e565b60008060606000806000806060600080601960008c8152602001908152602001600020905080600001548160010154826002018360050154846006015485600701548660080160009054906101000a900460ff168760090188600a01548680548060200260200160405190810160405280929190818152602001828054801561420257602002820191906000526020600020905b81546001600160a01b031681526001909101906020018083116141e4575b5050505050965081805461421590615964565b80601f016020809104026020016040519081016040528092919081815260200182805461424190615964565b801561428e5780601f106142635761010080835404028352916020019161428e565b820191906000526020600020905b81548152906001019060200180831161427157829003601f168201915b50505050509150995099509950995099509950995099509950509193959799909294969850565b6142bd6144f4565b6001600160a01b0381166142e757604051631e4fbdf760e01b815260006004820152602401611101565b611e8b81614936565b60008181526012602052604081206001810154600482015460058301546006840154600785015460028601805460609788978a97889788978897889795966001600160a01b039095169594600388019460ff80821695610100909204169390929091879061435d90615964565b80601f016020809104026020016040519081016040528092919081815260200182805461438990615964565b80156143d65780601f106143ab576101008083540402835291602001916143d6565b820191906000526020600020905b8154815290600101906020018083116143b957829003601f168201915b505050505096508580546143e990615964565b80601f016020809104026020016040519081016040528092919081815260200182805461441590615964565b80156144625780601f1061443757610100808354040283529160200191614462565b820191906000526020600020905b81548152906001019060200180831161444557829003601f168201915b505050505095509850985098509850985098509850985050919395975091939597565b61448d6144f4565b600d80546001600160a01b0319166001600160a01b0392909216919091179055565b6000806144bb83614680565b90506001600160a01b038116610ff257604051637e27328960e01b815260048101849052602401611101565b6114af8383836001614a9c565b6006546001600160a01b031633146118275760405163118cdaa760e01b8152336004820152602401611101565b6001600160a01b03821661454b57604051633250574960e11b815260006004820152602401611101565b6000614558838333614ba2565b9050836001600160a01b0316816001600160a01b031614613783576040516364283d7b60e01b81526001600160a01b0380861660048301526024820184905282166044820152606401611101565b6001600160a01b0382166145d057604051633250574960e11b815260006004820152602401611101565b60006145de83836000614ba2565b90506001600160a01b03811661460a57604051637e27328960e01b815260048101839052602401611101565b836001600160a01b0316816001600160a01b031614613783576040516364283d7b60e01b81526001600160a01b0380861660048301526024820184905282166044820152606401611101565b60026007540361467957604051633ee5aeb560e01b815260040160405180910390fd5b6002600755565b6000908152600260205260409020546001600160a01b031690565b60008381526019602090815260408083208584526014909252909120600882015460ff16156146ff5760405162461bcd60e51b815260206004820152601060248201526f105b1c9958591e481c995cdbdb1d995960821b6044820152606401611101565b6006820154600583015460088401805460ff1916600117905511600983016147278582615b3b565b5060058201805460ff191660011790558061476d57614749826001015461136b565b61476d5760018201546000908152601260205260409020600401805461ff00191690555b60005b60028401548110156148af576000846002018281548110614793576147936159f8565b60009182526020808320909101546001600160a01b03168083526003880190915260409091205490915060ff16156148a6576001600160a01b038116600090815260048601602052604090205460ff1683151581151503614851576001600160a01b038216600090815260186020526040812060040180549161481583615c75565b90915550506001600160a01b03821660009081526018602052604081206002018054600a92906148469084906159e5565b909155506148a49050565b6001600160a01b038216600090815260186020526040902060020154156148a4576001600160a01b038216600090815260186020526040812060020180546005929061489e908490615c62565b90915550505b505b50600101614770565b5084867f4cbb1b383796e513e3c0915f41a9d0198320a473adb9a55d1c3b5f2941ca4d75836040516148e5911515815260200190565b60405180910390a38160010154857fc84a77110774854ab237145b108e924962dbaa5191275eb044a6cb09621c4a9483604051614926911515815260200190565b60405180910390a3505050505050565b600680546001600160a01b038381166001600160a01b0319831681179093556040519116919082907f8be0079c531659141344cd1fd0a4f28419497f9722a3daafe3b4186f6b6457e090600090a35050565b6001600160a01b0382166149b257604051633250574960e11b815260006004820152602401611101565b60006149c083836000614ba2565b90506001600160a01b038116156114af576040516339e3563760e11b815260006004820152602401611101565b6001600160a01b038216614a1f57604051630b61174360e31b81526001600160a01b0383166004820152602401611101565b6001600160a01b03838116600081815260056020908152604080832094871680845294825291829020805460ff191686151590811790915591519182527f17307eab39ab6107e8899845ad3d59bd9653f200f220920489ca2b5937696c319101612073565b614a8f848484611459565b6137833385858585614c9d565b8080614ab057506001600160a01b03821615155b15614b72576000614ac0846144af565b90506001600160a01b03831615801590614aec5750826001600160a01b0316816001600160a01b031614155b8015614aff5750614afd818461408e565b155b15614b285760405163a9fbf51f60e01b81526001600160a01b0384166004820152602401611101565b8115614b705783856001600160a01b0316826001600160a01b03167f8c5be1e5ebec7d5bd14f71427d1e84f3dd0314c0f7b2291e5b200ac8c7c3b92560405160405180910390a45b505b5050600090815260046020526040902080546001600160a01b0319166001600160a01b0392909216919091179055565b600080614bae84614680565b90506000614bbd868686614dc7565b60008681526012602052604090205490915015614c94576001600160a01b03821615801590614bf457506001600160a01b03861615155b15614c5a5760008581526012602052604080822060010180546001600160a01b0319166001600160a01b038a8116918217909255915191929085169188917f1757856899d0b1fbb2e309cb05cda166887b13df401307904c3042b4b759dc3991a4614c94565b6001600160a01b03861615614c9457600085815260126020526040902060010180546001600160a01b0319166001600160a01b0388161790555b95945050505050565b6001600160a01b0383163b1561225d57604051630a85bd0160e11b81526001600160a01b0384169063150b7a0290614cdf908890889087908790600401615cab565b6020604051808303816000875af1925050508015614d1a575060408051601f3d908101601f19168201909252614d1791810190615ce8565b60015b614d83573d808015614d48576040519150601f19603f3d011682016040523d82523d6000602084013e614d4d565b606091505b508051600003614d7b57604051633250574960e11b81526001600160a01b0385166004820152602401611101565b805160208201fd5b6001600160e01b03198116630a85bd0160e11b14614dbf57604051633250574960e11b81526001600160a01b0385166004820152602401611101565b505050505050565b600080614dd384614680565b90506001600160a01b03831615614def57614def818486614ebb565b6001600160a01b03811615614e2d57614e0c600085600080614a9c565b6001600160a01b038116600090815260036020526040902080546000190190555b6001600160a01b03851615614e5c576001600160a01b0385166000908152600360205260409020805460010190555b60008481526002602052604080822080546001600160a01b0319166001600160a01b0389811691821790925591518793918516917fddf252ad1be2c89b69c2b068fc378daa952ba7f163c4a11628f55a4df523b3ef91a4949350505050565b614ec6838383614f1f565b6114af576001600160a01b038316614ef457604051637e27328960e01b815260048101829052602401611101565b60405163177e802f60e01b81526001600160a01b038316600482015260248101829052604401611101565b60006001600160a01b03831615801590614f7d5750826001600160a01b0316846001600160a01b03161480614f595750614f59848461408e565b80614f7d57506000828152600460205260409020546001600160a01b038481169116145b949350505050565b6001600160e01b031981168114611e8b57600080fd5b600060208284031215614fad57600080fd5b8135614fb881614f85565b9392505050565b6000815180845260005b81811015614fe557602081850181015186830182015201614fc9565b506000602082860101526020601f19601f83011685010191505092915050565b602081526000614fb86020830184614fbf565b60006020828403121561502a57600080fd5b5035919050565b6001600160a01b0381168114611e8b57600080fd5b6000806040838503121561505957600080fd5b823561506481615031565b946020939093013593505050565b60006020828403121561508457600080fd5b8135614fb881615031565b600080604083850312156150a257600080fd5b50508035926020909101359150565b6000806000606084860312156150c657600080fd5b83356150d181615031565b925060208401356150e181615031565b929592945050506040919091013590565b6000806040838503121561510557600080fd5b82359150602083013561511781615031565b809150509250929050565b60006101208b835260018060a01b038b1660208401528960408401528860608401528760808401528660a084015285151560c084015284151560e08401528061010084015261517381840185614fbf565b9c9b505050505050505050505050565b8035801515811461519357600080fd5b919050565b600080604083850312156151ab57600080fd5b823591506151bb60208401615183565b90509250929050565b87815286602082015260018060a01b038616604082015260e0606082015260006151f160e0830187614fbf565b60808301959095525091151560a083015260c090910152949350505050565b634e487b7160e01b600052604160045260246000fd5b604051601f8201601f1916810167ffffffffffffffff8111828210171561524f5761524f615210565b604052919050565b600067ffffffffffffffff83111561527157615271615210565b615284601f8401601f1916602001615226565b905082815283838301111561529857600080fd5b828260208301376000602084830101529392505050565b600082601f8301126152c057600080fd5b614fb883833560208501615257565b600080604083850312156152e257600080fd5b82359150602083013567ffffffffffffffff81111561530057600080fd5b61530c858286016152af565b9150509250929050565b6000806040838503121561532957600080fd5b8235915060208084013567ffffffffffffffff8082111561534957600080fd5b818601915086601f83011261535d57600080fd5b81358181111561536f5761536f615210565b8060051b9150615380848301615226565b818152918301840191848101908984111561539a57600080fd5b938501935b838510156153c457843592506153b483615031565b828252938501939085019061539f565b8096505050505050509250929050565b600080600080608085870312156153ea57600080fd5b84356153f581615031565b9350602085013567ffffffffffffffff8082111561541257600080fd5b61541e888389016152af565b9450604087013591508082111561543457600080fd5b50615441878288016152af565b92505061545060608601615183565b905092959194509250565b6000806040838503121561546e57600080fd5b823561547981615031565b91506151bb60208401615183565b600080600080600060a0868803121561549f57600080fd5b8535945060208601359350604086013592506154bd60608701615183565b9150608086013567ffffffffffffffff8111156154d957600080fd5b6154e5888289016152af565b9150509295509295909350565b8981526001600160a01b03891660208201526101206040820181905260009061551d8382018b614fbf565b90508281036060840152615531818a614fbf565b9715156080840152505093151560a085015260c084019290925260e083015261010090910152949350505050565b600061010060018060a01b038b16835289602084015288604084015287606084015286608084015285151560a084015284151560c08401528060e08401526155a981840185614fbf565b9b9a5050505050505050505050565b6000806000606084860312156155cd57600080fd5b833592506155dd60208501615183565b9150604084013567ffffffffffffffff8111156155f957600080fd5b615605868287016152af565b9150509250925092565b6000806000806080858703121561562557600080fd5b843561563081615031565b9350602085013561564081615031565b925060408501359150606085013567ffffffffffffffff81111561566357600080fd5b8501601f8101871361567457600080fd5b61568387823560208401615257565b91505092959194509250565b6000806000606084860312156156a457600080fd5b833567ffffffffffffffff808211156156bc57600080fd5b6156c8878388016152af565b945060208601359150808211156156de57600080fd5b506156eb868287016152af565b9250506156fa60408501615183565b90509250925092565b60008060008060008060c0878903121561571c57600080fd5b86359550602087013561572e81615031565b9450604087013593506060870135925061574a60808801615183565b915060a087013567ffffffffffffffff81111561576657600080fd5b61577289828a016152af565b9150509295509295509295565b6020808252825182820181905260009190848201906040850190845b818110156157b75783518352928401929184019160010161579b565b50909695505050505050565b60006101008a835289602084015288604084015287606084015286608084015285151560a08401528060c08401526157fd81840186614fbf565b9150508260e08301529998505050505050505050565b60008151808452602080850194506020840160005b8381101561584d5781516001600160a01b031687529582019590820190600101615828565b509495945050505050565b602081526000614fb86020830184615813565b6000806040838503121561587e57600080fd5b823561588981615031565b9150602083013561511781615031565b60006101208b83528a60208401528060408401526158b98184018b615813565b90508860608401528760808401528660a084015285151560c084015282810360e08401526158e78186614fbf565b915050826101008301529a9950505050505050505050565b6001600160a01b0389168152610100602082018190526000906159248382018b614fbf565b90508281036040840152615938818a614fbf565b97151560608401525050931515608085015260a084019290925260c083015260e0909101529392505050565b600181811c9082168061597857607f821691505b602082108103613d4b57634e487b7160e01b600052602260045260246000fd5b60208082526019908201527f41726269747261746f72206e6f74207265676973746572656400000000000000604082015260600190565b634e487b7160e01b600052601160045260246000fd5b80820180821115610ff257610ff26159cf565b634e487b7160e01b600052603260045260246000fd5b60208082526027908201527f43616e6e6f74207472616e7366657220495020776974682061637469766520646040820152666973707574657360c81b606082015260800190565b602080825260169082015275111a5cdc1d5d1948191bd95cc81b9bdd08195e1a5cdd60521b604082015260600190565b60208082526018908201527f4469737075746520616c7265616479207265736f6c7665640000000000000000604082015260600190565b6020808252601c908201527f4172626974726174696f6e20616c7265616479207265736f6c76656400000000604082015260600190565b601f8211156114af576000816000526020600020601f850160051c81016020861015615b1c5750805b601f850160051c820191505b81811015614dbf57828155600101615b28565b815167ffffffffffffffff811115615b5557615b55615210565b615b6981615b638454615964565b84615af3565b602080601f831160018114615b9e5760008415615b865750858301515b600019600386901b1c1916600185901b178555614dbf565b600085815260208120601f198616915b82811015615bcd57888601518255948401946001909101908401615bae565b5085821015615beb5787850151600019600388901b60f8161c191681555b5050505050600190811b01905550565b602080825260149082015273151bdad95b88191bd95cc81b9bdd08195e1a5cdd60621b604082015260600190565b8082028115828204841417610ff257610ff26159cf565b600082615c5d57634e487b7160e01b600052601260045260246000fd5b500490565b81810381811115610ff257610ff26159cf565b600060018201615c8757615c876159cf565b5060010190565b600060208284031215615ca057600080fd5b8151614fb881615031565b6001600160a01b0385811682528416602082015260408101839052608060608201819052600090615cde90830184614fbf565b9695505050505050565b600060208284031215615cfa57600080fd5b8151614fb881614f8556fe4172626974726174696f6e207265736f6c76656420616674657220646561646c696e65206261736564206f6e20766f7465206d616a6f7269747944697370757465206175746f2d72656a65637465643a204e6f2061726269747261746f727320617661696c61626c652077697468696e20646561646c696e654172626974726174696f6e207265736f6c76656420616674657220323420686f75722077616974696e6720706572696f64207769746820332b207570686f6c6420766f746573a2646970667358221220545f6bd37a8939e8750bae00cad27c9e4d7502531f69fc1c8d6edf54b3ab2aac64736f6c63430008180033",
  "linkReferences": {},
  "deployedLinkReferences": {}
}